{
	"data": {
		"bytecode": {
			"linkReferences": {},
			"object": "608060405234801561000f575f80fd5b506040518060400160405280600e81526020017f54726164696e675369676e616c730000000000000000000000000000000000008152506040518060400160405280600681526020017f5349474e414c0000000000000000000000000000000000000000000000000000815250335f8084848484816100a061009561025860201b60201c565b61025f60201b60201c565b5f73ffffffffffffffffffffffffffffffffffffffff168173ffffffffffffffffffffffffffffffffffffffff1603610105576040517f1ad8836c00000000000000000000000000000000000000000000000000000000815260040160405180910390fd5b6101148161025f60201b60201c565b5061017c7feafec4d89fa9619884b60000a4d96624a38f7ac2d8d9a604ecf07c12c77e480c5f1b6040518060400160405280600481526020017fa4d966240000000000000000000000000000000000000000000000000000000081525061032060201b60201c565b6101ae7fdeba1e292f8ba88238e10ab3c7f88bd4be4fac56cad5194b6ecceaf653468af15f1b8561032060201b60201c565b6101e07f2f0a68ab07768e01943a599e73362a0e17a63a72e94dd2e384d2c1d4db9327565f1b8461032060201b60201c565b6102317fe0261fa95db2eb3b5439bd033cda66d56b96f92f243a8228fd87550ed7bdfdb35f1b826040516020016102179190610393565b60405160208183030381529060405261032060201b60201c565b505050508060025f6101000a81548160ff0219169083151502179055505050505050610732565b5f33905090565b5f805f9054906101000a900473ffffffffffffffffffffffffffffffffffffffff169050815f806101000a81548173ffffffffffffffffffffffffffffffffffffffff021916908373ffffffffffffffffffffffffffffffffffffffff1602179055508173ffffffffffffffffffffffffffffffffffffffff168173ffffffffffffffffffffffffffffffffffffffff167f8be0079c531659141344cd1fd0a4f28419497f9722a3daafe3b4186f6b6457e060405160405180910390a35050565b8060015f8481526020019081526020015f20908161033e91906105dd565b50817fece574603820d07bc9b91f2a932baadf4628aabcb8afba49776529c14a6104b28260405161036f9190610712565b60405180910390a25050565b5f819050919050565b61038d8161037b565b82525050565b5f6020820190506103a65f830184610384565b92915050565b5f81519050919050565b7f4e487b71000000000000000000000000000000000000000000000000000000005f52604160045260245ffd5b7f4e487b71000000000000000000000000000000000000000000000000000000005f52602260045260245ffd5b5f600282049050600182168061042757607f821691505b60208210810361043a576104396103e3565b5b50919050565b5f819050815f5260205f209050919050565b5f6020601f8301049050919050565b5f82821b905092915050565b5f6008830261049c7fffffffffffffffffffffffffffffffffffffffffffffffffffffffffffffffff82610461565b6104a68683610461565b95508019841693508086168417925050509392505050565b5f819050919050565b5f6104e16104dc6104d78461037b565b6104be565b61037b565b9050919050565b5f819050919050565b6104fa836104c7565b61050e610506826104e8565b84845461046d565b825550505050565b5f90565b610522610516565b61052d8184846104f1565b505050565b5b81811015610550576105455f8261051a565b600181019050610533565b5050565b601f8211156105955761056681610440565b61056f84610452565b8101602085101561057e578190505b61059261058a85610452565b830182610532565b50505b505050565b5f82821c905092915050565b5f6105b55f198460080261059a565b1980831691505092915050565b5f6105cd83836105a6565b9150826002028217905092915050565b6105e6826103ac565b67ffffffffffffffff8111156105ff576105fe6103b6565b5b6106098254610410565b610614828285610554565b5f60209050601f831160018114610645575f8415610633578287015190505b61063d85826105c2565b8655506106a4565b601f19841661065386610440565b5f5b8281101561067a57848901518255600182019150602085019450602081019050610655565b868310156106975784890151610693601f8916826105a6565b8355505b6001600288020188555050505b505050505050565b5f82825260208201905092915050565b8281835e5f83830152505050565b5f601f19601f8301169050919050565b5f6106e4826103ac565b6106ee81856106ac565b93506106fe8185602086016106bc565b610707816106ca565b840191505092915050565b5f6020820190508181035f83015261072a81846106da565b905092915050565b614ab18061073f5f395ff3fe608060405260043610610143575f3560e01c8063715018a6116100b5578063ae0041aa1161006e578063ae0041aa14610524578063b49506fd1461054e578063d72fc29a14610576578063dedff9c6146105b2578063f2fde38b146105ee578063f8c94a8814610616576101bc565b8063715018a61461045c578063760d9bba14610472578063783816701461049a5780637f23690c146104c25780638da5cb5b146104de5780639790242114610508576101bc565b8063313ce56711610107578063313ce5671461030057806347c740cd1461032a57806354f6127f1461036c57806365aeaa95146103a85780636963d438146103e457806370a0823114610420576101bc565b806301ffc9a71461022257806318160ddd1461025e5780632bc1da82146102885780632d7667c9146102b057806330d0dc37146102d8576101bc565b366101bc575f340361018a576040517fe5099ee3000000000000000000000000000000000000000000000000000000008152600401610181906129c9565b60405180910390fd5b6040517f388f5adc00000000000000000000000000000000000000000000000000000000815260040160405180910390fd5b5f36606060045f369050101561020b5782826040517fe5099ee3000000000000000000000000000000000000000000000000000000008152600401610202929190612a31565b60405180910390fd5b610215838361063e565b9050915050805190602001f35b34801561022d575f80fd5b5061024860048036038101906102439190612ab9565b6107b4565b6040516102559190612afe565b60405180910390f35b348015610269575f80fd5b50610272610824565b60405161027f9190612b2f565b60405180910390f35b348015610293575f80fd5b506102ae60048036038101906102a99190612cea565b61082d565b005b3480156102bb575f80fd5b506102d660048036038101906102d191906130a2565b6108d4565b005b3480156102e3575f80fd5b506102fe60048036038101906102f991906131a5565b6109e6565b005b34801561030b575f80fd5b50610314610ae0565b6040516103219190613240565b60405180910390f35b348015610335575f80fd5b50610350600480360381019061034b9190613259565b610b02565b6040516103639796959493929190613399565b60405180910390f35b348015610377575f80fd5b50610392600480360381019061038d9190613447565b610ca4565b60405161039f9190613472565b60405180910390f35b3480156103b3575f80fd5b506103ce60048036038101906103c99190613492565b610cb6565b6040516103db9190612b2f565b60405180910390f35b3480156103ef575f80fd5b5061040a60048036038101906104059190613529565b610db1565b6040516104179190613677565b60405180910390f35b34801561042b575f80fd5b5061044660048036038101906104419190613697565b610f27565b6040516104539190612b2f565b60405180910390f35b348015610467575f80fd5b50610470610f6d565b005b34801561047d575f80fd5b50610498600480360381019061049391906136c2565b610f80565b005b3480156104a5575f80fd5b506104c060048036038101906104bb9190613755565b610fd3565b005b6104dc60048036038101906104d791906137d5565b611116565b005b3480156104e9575f80fd5b506104f2611165565b6040516104ff919061382f565b60405180910390f35b610522600480360381019061051d9190613908565b61118c565b005b34801561052f575f80fd5b506105386111db565b6040516105459190612b2f565b60405180910390f35b348015610559575f80fd5b50610574600480360381019061056f9190612cea565b6111e1565b005b348015610581575f80fd5b5061059c60048036038101906105979190613697565b611226565b6040516105a99190613a35565b60405180910390f35b3480156105bd575f80fd5b506105d860048036038101906105d39190613a55565b611274565b6040516105e59190613677565b60405180910390f35b3480156105f9575f80fd5b50610614600480360381019061060f9190613697565b611324565b005b348015610621575f80fd5b5061063c60048036038101906106379190613c0d565b6113a6565b005b60605f61066d5f357fffffffff000000000000000000000000000000000000000000000000000000001661164c565b5090505f73ffffffffffffffffffffffffffffffffffffffff168173ffffffffffffffffffffffffffffffffffffffff1603610703575f357fffffffff00000000000000000000000000000000000000000000000000000000166040517fbb370b2b0000000000000000000000000000000000000000000000000000000081526004016106fa9190613ce2565b60405180910390fd5b5f808273ffffffffffffffffffffffffffffffffffffffff1634878733346040516020016107349493929190613d8e565b6040516020818303038152906040526040516107509190613df8565b5f6040518083038185875af1925050503d805f811461078a576040519150601f19603f3d011682016040523d82523d5f602084013e61078f565b606091505b509150915081156107a5578093505050506107ae565b80518060208301fd5b92915050565b5f63c52d600860e01b7bffffffffffffffffffffffffffffffffffffffffffffffffffffffff1916827bffffffffffffffffffffffffffffffffffffffffffffffffffffffff1916148061080d575061080c82611702565b5b8061081d575061081c82611762565b5b9050919050565b5f600354905090565b5f6108388433610cb6565b90505f810361087e57836040517fcba6e977000000000000000000000000000000000000000000000000000000008152600401610875919061382f565b60405180910390fd5b5f838261088b9190613e3b565b905061089b3386836001876117c6565b5f3382856040516020016108b193929190613e6e565b60405160208183030381529060405290506108cc8682611a8f565b505050505050565b5f855190508451811415806108ea575083518114155b806108f6575082518114155b80610902575081518114155b15610939576040517f263eee8d00000000000000000000000000000000000000000000000000000000815260040160405180910390fd5b5f5b818110156109dd576109d287828151811061095957610958613eaa565b5b602002602001015187838151811061097457610973613eaa565b5b602002602001015187848151811061098f5761098e613eaa565b5b60200260200101518785815181106109aa576109a9613eaa565b5b60200260200101518786815181106109c5576109c4613eaa565b5b6020026020010151610f80565b80600101905061093b565b50505050505050565b8273ffffffffffffffffffffffffffffffffffffffff163373ffffffffffffffffffffffffffffffffffffffff1614158015610a4e57508373ffffffffffffffffffffffffffffffffffffffff163373ffffffffffffffffffffffffffffffffffffffff1614155b15610a94573383856040517f1a525b32000000000000000000000000000000000000000000000000000000008152600401610a8b93929190613ed7565b60405180910390fd5b610aa183855f85856117c6565b8115610ada575f835f83604051602001610abd93929190613f4e565b6040516020818303038152906040529050610ad88582611a8f565b505b50505050565b5f60025f9054906101000a900460ff16610afb576012610afd565b5f5b905090565b6007602052805f5260405f205f91509050805f015f9054906101000a900473ffffffffffffffffffffffffffffffffffffffff1690806001018054610b4690613fb7565b80601f0160208091040260200160405190810160405280929190818152602001828054610b7290613fb7565b8015610bbd5780601f10610b9457610100808354040283529160200191610bbd565b820191905f5260205f20905b815481529060010190602001808311610ba057829003601f168201915b505050505090806002015f9054906101000a900463ffffffff16908060020160049054906101000a90046fffffffffffffffffffffffffffffffff16908060020160149054906101000a900461ffff1690806003018054610c1d90613fb7565b80601f0160208091040260200160405190810160405280929190818152602001828054610c4990613fb7565b8015610c945780601f10610c6b57610100808354040283529160200191610c94565b820191905f5260205f20905b815481529060010190602001808311610c7757829003601f168201915b5050505050908060040154905087565b6060610caf82611ac0565b9050919050565b5f8273ffffffffffffffffffffffffffffffffffffffff168273ffffffffffffffffffffffffffffffffffffffff1603610d2f5760045f8373ffffffffffffffffffffffffffffffffffffffff1673ffffffffffffffffffffffffffffffffffffffff1681526020019081526020015f20549050610dab565b60065f8373ffffffffffffffffffffffffffffffffffffffff1673ffffffffffffffffffffffffffffffffffffffff1681526020019081526020015f205f8473ffffffffffffffffffffffffffffffffffffffff1673ffffffffffffffffffffffffffffffffffffffff1681526020019081526020015f205490505b92915050565b60608282905067ffffffffffffffff811115610dd057610dcf612bd4565b5b604051908082528060200260200182016040528015610e0357816020015b6060815260200190600190039081610dee5790505b5090505f5b83839050811015610f20575f803073ffffffffffffffffffffffffffffffffffffffff16868685818110610e3f57610e3e613eaa565b5b9050602002810190610e519190613ff3565b604051610e5f929190614055565b5f60405180830381855af49150503d805f8114610e97576040519150601f19603f3d011682016040523d82523d5f602084013e610e9c565b606091505b509150915081610ef4575f815114610eb75780518082602001fd5b826040517fb774c284000000000000000000000000000000000000000000000000000000008152600401610eeb9190612b2f565b60405180910390fd5b80848481518110610f0857610f07613eaa565b5b60200260200101819052508260010192505050610e08565b5092915050565b5f60045f8373ffffffffffffffffffffffffffffffffffffffff1673ffffffffffffffffffffffffffffffffffffffff1681526020019081526020015f20549050919050565b610f75611b61565b610f7e5f611bdf565b565b8473ffffffffffffffffffffffffffffffffffffffff163373ffffffffffffffffffffffffffffffffffffffff1614610fbf57610fbe338685611ca0565b5b610fcc8585858585611d9d565b5050505050565b8273ffffffffffffffffffffffffffffffffffffffff163373ffffffffffffffffffffffffffffffffffffffff161415801561103b57508373ffffffffffffffffffffffffffffffffffffffff163373ffffffffffffffffffffffffffffffffffffffff1614155b15611081573383856040517f98ce294500000000000000000000000000000000000000000000000000000000815260040161107893929190613ed7565b60405180910390fd5b5f61108c8585610cb6565b9050828110156110c8576040517f0ef76c3500000000000000000000000000000000000000000000000000000000815260040160405180910390fd5b5f83820390506110dc8587836001876117c6565b5f8582856040516020016110f293929190613e6e565b604051602081830303815290604052905061110d8782611a8f565b50505050505050565b61111e611b61565b5f3414611157576040517ff36ba73700000000000000000000000000000000000000000000000000000000815260040160405180910390fd5b6111618282611ea8565b5050565b5f805f9054906101000a900473ffffffffffffffffffffffffffffffffffffffff16905090565b611194611b61565b5f34146111cd576040517ff36ba73700000000000000000000000000000000000000000000000000000000815260040160405180910390fd5b6111d78282612014565b5050565b60085481565b6111ef3384846001856117c6565b5f33838360405160200161120593929190613e6e565b60405160208183030381529060405290506112208482611a8f565b50505050565b606061126d60055f8473ffffffffffffffffffffffffffffffffffffffff1673ffffffffffffffffffffffffffffffffffffffff1681526020019081526020015f206120e2565b9050919050565b6060815167ffffffffffffffff81111561129157611290612bd4565b5b6040519080825280602002602001820160405280156112c457816020015b60608152602001906001900390816112af5790505b5090505f5b825181101561131e576112f58382815181106112e8576112e7613eaa565b5b6020026020010151611ac0565b82828151811061130857611307613eaa565b5b60200260200101819052508060010190506112c9565b50919050565b61132c611b61565b5f73ffffffffffffffffffffffffffffffffffffffff168173ffffffffffffffffffffffffffffffffffffffff160361139a576040517f08c379a0000000000000000000000000000000000000000000000000000000008152600401611391906140dd565b60405180910390fd5b6113a381611bdf565b50565b5f73ffffffffffffffffffffffffffffffffffffffff168773ffffffffffffffffffffffffffffffffffffffff1603611414576040517f08c379a000000000000000000000000000000000000000000000000000000000815260040161140b90614145565b60405180910390fd5b5f60085f815461142390614163565b91905081905590506040518060e001604052808973ffffffffffffffffffffffffffffffffffffffff1681526020018881526020018763ffffffff168152602001866fffffffffffffffffffffffffffffffff1681526020018561ffff16815260200184848080601f0160208091040260200160405190810160405280939291908181526020018383808284375f81840152601f19601f8201169050808301925050505050505081526020014281525060075f8381526020019081526020015f205f820151815f015f6101000a81548173ffffffffffffffffffffffffffffffffffffffff021916908373ffffffffffffffffffffffffffffffffffffffff160217905550602082015181600101908161153d919061433e565b506040820151816002015f6101000a81548163ffffffff021916908363ffffffff16021790555060608201518160020160046101000a8154816fffffffffffffffffffffffffffffffff02191690836fffffffffffffffffffffffffffffffff16021790555060808201518160020160146101000a81548161ffff021916908361ffff16021790555060a08201518160030190816115db9190614465565b5060c082015181600401559050508773ffffffffffffffffffffffffffffffffffffffff16817f772d68921cc379d545a730fc0a411269fe42cbe08a01093077746cffe5dc319c89898989898960405161163a96959493929190614534565b60405180910390a35050505050505050565b5f805f61168569cee78b4094da8601109660b01b857bffffffffffffffffffffffffffffffffffffffffffffffffffffffff1916612101565b90505f61169182611ac0565b905060148151141580156116a657505f815114155b156116e857806040517f42bfe79f0000000000000000000000000000000000000000000000000000000081526004016116df9190613472565b60405180910390fd5b806116f2906145e3565b60601c6001935093505050915091565b5f63a918fa6b60e01b7bffffffffffffffffffffffffffffffffffffffffffffffffffffffff1916827bffffffffffffffffffffffffffffffffffffffffffffffffffffffff1916148061175b575061175a8261213f565b5b9050919050565b5f806117746301ffc9a760e01b61164c565b5090505f73ffffffffffffffffffffffffffffffffffffffff168173ffffffffffffffffffffffffffffffffffffffff16036117b3575f9150506117c1565b6117bd8184612208565b9150505b919050565b5f73ffffffffffffffffffffffffffffffffffffffff168473ffffffffffffffffffffffffffffffffffffffff160361182b576040517f6355e76600000000000000000000000000000000000000000000000000000000815260040160405180910390fd5b8473ffffffffffffffffffffffffffffffffffffffff168473ffffffffffffffffffffffffffffffffffffffff1603611890576040517fdab7504700000000000000000000000000000000000000000000000000000000815260040160405180910390fd5b8260065f8773ffffffffffffffffffffffffffffffffffffffff1673ffffffffffffffffffffffffffffffffffffffff1681526020019081526020015f205f8673ffffffffffffffffffffffffffffffffffffffff1673ffffffffffffffffffffffffffffffffffffffff1681526020019081526020015f20819055505f83146119cf576119638460055f8873ffffffffffffffffffffffffffffffffffffffff1673ffffffffffffffffffffffffffffffffffffffff1681526020019081526020015f206122c190919063ffffffff16565b50828573ffffffffffffffffffffffffffffffffffffffff168573ffffffffffffffffffffffffffffffffffffffff167ff772a43bfdf4729b196e3fb54a818b91a2ca6c49d10b2e16278752f9f515c25d846040516119c29190613472565b60405180910390a4611a88565b611a1e8460055f8873ffffffffffffffffffffffffffffffffffffffff1673ffffffffffffffffffffffffffffffffffffffff1681526020019081526020015f206122ee90919063ffffffff16565b508115158573ffffffffffffffffffffffffffffffffffffffff168573ffffffffffffffffffffffffffffffffffffffff167f0ebf5762d8855cbe012d2ca42fb33a81175e17c8a8751f8859931ba453bd416784604051611a7f9190613472565b60405180910390a45b5050505050565b611abc827f386072cc5a58e61263b434c722725f21031cd06e7c552cfaa06db5de8a320dbc5f1b8361231b565b5050565b606060015f8381526020019081526020015f208054611ade90613fb7565b80601f0160208091040260200160405190810160405280929190818152602001828054611b0a90613fb7565b8015611b555780601f10611b2c57610100808354040283529160200191611b55565b820191905f5260205f20905b815481529060010190602001808311611b3857829003601f168201915b50505050509050919050565b611b696123d5565b73ffffffffffffffffffffffffffffffffffffffff16611b87611165565b73ffffffffffffffffffffffffffffffffffffffff1614611bdd576040517f08c379a0000000000000000000000000000000000000000000000000000000008152600401611bd490614693565b60405180910390fd5b565b5f805f9054906101000a900473ffffffffffffffffffffffffffffffffffffffff169050815f806101000a81548173ffffffffffffffffffffffffffffffffffffffff021916908373ffffffffffffffffffffffffffffffffffffffff1602179055508173ffffffffffffffffffffffffffffffffffffffff168173ffffffffffffffffffffffffffffffffffffffff167f8be0079c531659141344cd1fd0a4f28419497f9722a3daafe3b4186f6b6457e060405160405180910390a35050565b5f60065f8473ffffffffffffffffffffffffffffffffffffffff1673ffffffffffffffffffffffffffffffffffffffff1681526020019081526020015f205f8573ffffffffffffffffffffffffffffffffffffffff1673ffffffffffffffffffffffffffffffffffffffff1681526020019081526020015f205490505f811480611d2957508082115b15611d7157828185846040517ff3a6b691000000000000000000000000000000000000000000000000000000008152600401611d6894939291906146b1565b60405180910390fd5b611d9783858484611d8291906146f4565b5f60405180602001604052805f8152506117c6565b50505050565b5f73ffffffffffffffffffffffffffffffffffffffff168573ffffffffffffffffffffffffffffffffffffffff161480611e0257505f73ffffffffffffffffffffffffffffffffffffffff168473ffffffffffffffffffffffffffffffffffffffff16145b15611e39576040517fd2d5ec3000000000000000000000000000000000000000000000000000000000815260040160405180910390fd5b611e4685858585856123dc565b611e5385858585856123e3565b611e60858585858561261c565b5f3386868685604051602001611e7a959493929190614727565b6040516020818303038152906040529050611e958682612623565b611ea0858483612654565b505050505050565b7fdeba1e292f8ba88238e10ab3c7f88bd4be4fac56cad5194b6ecceaf653468af15f1b8203611f03576040517f85c169bd00000000000000000000000000000000000000000000000000000000815260040160405180910390fd5b7f2f0a68ab07768e01943a599e73362a0e17a63a72e94dd2e384d2c1d4db9327565f1b8203611f5e576040517f76755b3800000000000000000000000000000000000000000000000000000000815260040160405180910390fd5b7fe0261fa95db2eb3b5439bd033cda66d56b96f92f243a8228fd87550ed7bdfdb35f1b8203611fb9576040517f4ef6d7fb00000000000000000000000000000000000000000000000000000000815260040160405180910390fd5b8060015f8481526020019081526020015f209081611fd79190614465565b50817fece574603820d07bc9b91f2a932baadf4628aabcb8afba49776529c14a6104b2826040516120089190613472565b60405180910390a25050565b805182511461204f576040517f3bcc897900000000000000000000000000000000000000000000000000000000815260040160405180910390fd5b5f825103612089576040517f97da5f9500000000000000000000000000000000000000000000000000000000815260040160405180910390fd5b5f5b82518110156120dd576120d28382815181106120aa576120a9613eaa565b5b60200260200101518383815181106120c5576120c4613eaa565b5b6020026020010151611ea8565b80600101905061208b565b505050565b60605f6120f0835f016127b3565b905060608190508092505050919050565b5f80835f60f01b8460405160200161211b93929190614835565b60405160208183030381529060405290508061213690614885565b91505092915050565b5f63629aa69460e01b7bffffffffffffffffffffffffffffffffffffffffffffffffffffffff1916827bffffffffffffffffffffffffffffffffffffffffffffffffffffffff1916148061219857506121978261219f565b5b9050919050565b5f7f01ffc9a7000000000000000000000000000000000000000000000000000000007bffffffffffffffffffffffffffffffffffffffffffffffffffffffff1916827bffffffffffffffffffffffffffffffffffffffffffffffffffffffff1916149050919050565b5f806301ffc9a760e01b836040516024016122239190613ce2565b604051602081830303815290604052907bffffffffffffffffffffffffffffffffffffffffffffffffffffffff19166020820180517bffffffffffffffffffffffffffffffffffffffffffffffffffffffff838183161783525050505090505f805f60205f8551602087018a617530fa92503d91505f5190508280156122aa575060208210155b80156122b557505f81115b94505050505092915050565b5f6122e6835f018373ffffffffffffffffffffffffffffffffffffffff165f1b61280c565b905092915050565b5f612313835f018373ffffffffffffffffffffffffffffffffffffffff165f1b612873565b905092915050565b61234b636bb56a1460e01b8473ffffffffffffffffffffffffffffffffffffffff1661220890919063ffffffff16565b156123d0578273ffffffffffffffffffffffffffffffffffffffff16636bb56a1483836040518363ffffffff1660e01b815260040161238b9291906148fa565b5f604051808303815f875af11580156123a6573d5f803e3d5ffd5b505050506040513d5f823e3d601f19601f820116820180604052508101906123ce9190614996565b505b505050565b5f33905090565b5050505050565b5f73ffffffffffffffffffffffffffffffffffffffff168573ffffffffffffffffffffffffffffffffffffffff1603612433578260035f8282546124279190613e3b565b92505081905550612503565b5f60045f8773ffffffffffffffffffffffffffffffffffffffff1673ffffffffffffffffffffffffffffffffffffffff1681526020019081526020015f20549050838110156124bd578086856040517f08d479490000000000000000000000000000000000000000000000000000000081526004016124b4939291906149dd565b60405180910390fd5b83810360045f8873ffffffffffffffffffffffffffffffffffffffff1673ffffffffffffffffffffffffffffffffffffffff1681526020019081526020015f2081905550505b5f73ffffffffffffffffffffffffffffffffffffffff168473ffffffffffffffffffffffffffffffffffffffff160361254a578260035f8282540392505081905550612595565b8260045f8673ffffffffffffffffffffffffffffffffffffffff1673ffffffffffffffffffffffffffffffffffffffff1681526020019081526020015f205f82825401925050819055505b8373ffffffffffffffffffffffffffffffffffffffff168573ffffffffffffffffffffffffffffffffffffffff163373ffffffffffffffffffffffffffffffffffffffff167f3997e418d2cef0b3b0e907b1e39605c3f7d32dbd061e82ea5b4a770d46a160a686868660405161260d93929190614a12565b60405180910390a45050505050565b5050505050565b612650827f429ac7a06903dbc9c13dfcb3c9d11df8194581fa047c96d7a4171fc7402958ea5f1b8361231b565b5050565b61266583636bb56a1460e01b612208565b15612710578273ffffffffffffffffffffffffffffffffffffffff16636bb56a147f20804611b3e2ea21c480dc465142210acf4a2485947541770ec1fb87dee4a55c5f1b836040518363ffffffff1660e01b81526004016126c79291906148fa565b5f604051808303815f875af11580156126e2573d5f803e3d5ffd5b505050506040513d5f823e3d601f19601f8201168201806040525081019061270a9190614996565b506127ae565b816127ad575f8373ffffffffffffffffffffffffffffffffffffffff163b1461277057826040517fa608fbb6000000000000000000000000000000000000000000000000000000008152600401612767919061382f565b60405180910390fd5b826040517f26c247f40000000000000000000000000000000000000000000000000000000081526004016127a4919061382f565b60405180910390fd5b5b505050565b6060815f0180548060200260200160405190810160405280929190818152602001828054801561280057602002820191905f5260205f20905b8154815260200190600101908083116127ec575b50505050509050919050565b5f612817838361296f565b61286957825f0182908060018154018082558091505060019003905f5260205f20015f9091909190915055825f0180549050836001015f8481526020019081526020015f20819055506001905061286d565b5f90505b92915050565b5f80836001015f8481526020019081526020015f205490505f8114612964575f6001826128a091906146f4565b90505f6001865f01805490506128b691906146f4565b905081811461291c575f865f0182815481106128d5576128d4613eaa565b5b905f5260205f200154905080875f0184815481106128f6576128f5613eaa565b5b905f5260205f20018190555083876001015f8381526020019081526020015f2081905550505b855f0180548061292f5761292e614a4e565b5b600190038181905f5260205f20015f90559055856001015f8681526020019081526020015f205f905560019350505050612969565b5f9150505b92915050565b5f80836001015f8481526020019081526020015f20541415905092915050565b5f82825260208201905092915050565b5f8082015250565b5f6129b360048361298f565b91506129be8261299f565b602082019050919050565b5f6020820190508181035f8301526129e0816129a7565b9050919050565b828183375f83830152505050565b5f601f19601f8301169050919050565b5f612a10838561298f565b9350612a1d8385846129e7565b612a26836129f5565b840190509392505050565b5f6020820190508181035f830152612a4a818486612a05565b90509392505050565b5f604051905090565b5f80fd5b5f80fd5b5f7fffffffff0000000000000000000000000000000000000000000000000000000082169050919050565b612a9881612a64565b8114612aa2575f80fd5b50565b5f81359050612ab381612a8f565b92915050565b5f60208284031215612ace57612acd612a5c565b5b5f612adb84828501612aa5565b91505092915050565b5f8115159050919050565b612af881612ae4565b82525050565b5f602082019050612b115f830184612aef565b92915050565b5f819050919050565b612b2981612b17565b82525050565b5f602082019050612b425f830184612b20565b92915050565b5f73ffffffffffffffffffffffffffffffffffffffff82169050919050565b5f612b7182612b48565b9050919050565b612b8181612b67565b8114612b8b575f80fd5b50565b5f81359050612b9c81612b78565b92915050565b612bab81612b17565b8114612bb5575f80fd5b50565b5f81359050612bc681612ba2565b92915050565b5f80fd5b5f80fd5b7f4e487b71000000000000000000000000000000000000000000000000000000005f52604160045260245ffd5b612c0a826129f5565b810181811067ffffffffffffffff82111715612c2957612c28612bd4565b5b80604052505050565b5f612c3b612a53565b9050612c478282612c01565b919050565b5f67ffffffffffffffff821115612c6657612c65612bd4565b5b612c6f826129f5565b9050602081019050919050565b5f612c8e612c8984612c4c565b612c32565b905082815260208101848484011115612caa57612ca9612bd0565b5b612cb58482856129e7565b509392505050565b5f82601f830112612cd157612cd0612bcc565b5b8135612ce1848260208601612c7c565b91505092915050565b5f805f60608486031215612d0157612d00612a5c565b5b5f612d0e86828701612b8e565b9350506020612d1f86828701612bb8565b925050604084013567ffffffffffffffff811115612d4057612d3f612a60565b5b612d4c86828701612cbd565b9150509250925092565b5f67ffffffffffffffff821115612d7057612d6f612bd4565b5b602082029050602081019050919050565b5f80fd5b5f612d97612d9284612d56565b612c32565b90508083825260208201905060208402830185811115612dba57612db9612d81565b5b835b81811015612de35780612dcf8882612b8e565b845260208401935050602081019050612dbc565b5050509392505050565b5f82601f830112612e0157612e00612bcc565b5b8135612e11848260208601612d85565b91505092915050565b5f67ffffffffffffffff821115612e3457612e33612bd4565b5b602082029050602081019050919050565b5f612e57612e5284612e1a565b612c32565b90508083825260208201905060208402830185811115612e7a57612e79612d81565b5b835b81811015612ea35780612e8f8882612bb8565b845260208401935050602081019050612e7c565b5050509392505050565b5f82601f830112612ec157612ec0612bcc565b5b8135612ed1848260208601612e45565b91505092915050565b5f67ffffffffffffffff821115612ef457612ef3612bd4565b5b602082029050602081019050919050565b612f0e81612ae4565b8114612f18575f80fd5b50565b5f81359050612f2981612f05565b92915050565b5f612f41612f3c84612eda565b612c32565b90508083825260208201905060208402830185811115612f6457612f63612d81565b5b835b81811015612f8d5780612f798882612f1b565b845260208401935050602081019050612f66565b5050509392505050565b5f82601f830112612fab57612faa612bcc565b5b8135612fbb848260208601612f2f565b91505092915050565b5f67ffffffffffffffff821115612fde57612fdd612bd4565b5b602082029050602081019050919050565b5f613001612ffc84612fc4565b612c32565b9050808382526020820190506020840283018581111561302457613023612d81565b5b835b8181101561306b57803567ffffffffffffffff81111561304957613048612bcc565b5b8086016130568982612cbd565b85526020850194505050602081019050613026565b5050509392505050565b5f82601f83011261308957613088612bcc565b5b8135613099848260208601612fef565b91505092915050565b5f805f805f60a086880312156130bb576130ba612a5c565b5b5f86013567ffffffffffffffff8111156130d8576130d7612a60565b5b6130e488828901612ded565b955050602086013567ffffffffffffffff81111561310557613104612a60565b5b61311188828901612ded565b945050604086013567ffffffffffffffff81111561313257613131612a60565b5b61313e88828901612ead565b935050606086013567ffffffffffffffff81111561315f5761315e612a60565b5b61316b88828901612f97565b925050608086013567ffffffffffffffff81111561318c5761318b612a60565b5b61319888828901613075565b9150509295509295909350565b5f805f80608085870312156131bd576131bc612a5c565b5b5f6131ca87828801612b8e565b94505060206131db87828801612b8e565b93505060406131ec87828801612f1b565b925050606085013567ffffffffffffffff81111561320d5761320c612a60565b5b61321987828801612cbd565b91505092959194509250565b5f60ff82169050919050565b61323a81613225565b82525050565b5f6020820190506132535f830184613231565b92915050565b5f6020828403121561326e5761326d612a5c565b5b5f61327b84828501612bb8565b91505092915050565b61328d81612b67565b82525050565b5f81519050919050565b5f82825260208201905092915050565b8281835e5f83830152505050565b5f6132c582613293565b6132cf818561329d565b93506132df8185602086016132ad565b6132e8816129f5565b840191505092915050565b5f63ffffffff82169050919050565b61330b816132f3565b82525050565b5f6fffffffffffffffffffffffffffffffff82169050919050565b61333581613311565b82525050565b5f61ffff82169050919050565b6133518161333b565b82525050565b5f81519050919050565b5f61336b82613357565b613375818561298f565b93506133858185602086016132ad565b61338e816129f5565b840191505092915050565b5f60e0820190506133ac5f83018a613284565b81810360208301526133be81896132bb565b90506133cd6040830188613302565b6133da606083018761332c565b6133e76080830186613348565b81810360a08301526133f98185613361565b905061340860c0830184612b20565b98975050505050505050565b5f819050919050565b61342681613414565b8114613430575f80fd5b50565b5f813590506134418161341d565b92915050565b5f6020828403121561345c5761345b612a5c565b5b5f61346984828501613433565b91505092915050565b5f6020820190508181035f83015261348a8184613361565b905092915050565b5f80604083850312156134a8576134a7612a5c565b5b5f6134b585828601612b8e565b92505060206134c685828601612b8e565b9150509250929050565b5f80fd5b5f8083601f8401126134e9576134e8612bcc565b5b8235905067ffffffffffffffff811115613506576135056134d0565b5b60208301915083602082028301111561352257613521612d81565b5b9250929050565b5f806020838503121561353f5761353e612a5c565b5b5f83013567ffffffffffffffff81111561355c5761355b612a60565b5b613568858286016134d4565b92509250509250929050565b5f81519050919050565b5f82825260208201905092915050565b5f819050602082019050919050565b5f82825260208201905092915050565b5f6135b782613357565b6135c1818561359d565b93506135d18185602086016132ad565b6135da816129f5565b840191505092915050565b5f6135f083836135ad565b905092915050565b5f602082019050919050565b5f61360e82613574565b613618818561357e565b93508360208202850161362a8561358e565b805f5b85811015613665578484038952815161364685826135e5565b9450613651836135f8565b925060208a0199505060018101905061362d565b50829750879550505050505092915050565b5f6020820190508181035f83015261368f8184613604565b905092915050565b5f602082840312156136ac576136ab612a5c565b5b5f6136b984828501612b8e565b91505092915050565b5f805f805f60a086880312156136db576136da612a5c565b5b5f6136e888828901612b8e565b95505060206136f988828901612b8e565b945050604061370a88828901612bb8565b935050606061371b88828901612f1b565b925050608086013567ffffffffffffffff81111561373c5761373b612a60565b5b61374888828901612cbd565b9150509295509295909350565b5f805f806080858703121561376d5761376c612a5c565b5b5f61377a87828801612b8e565b945050602061378b87828801612b8e565b935050604061379c87828801612bb8565b925050606085013567ffffffffffffffff8111156137bd576137bc612a60565b5b6137c987828801612cbd565b91505092959194509250565b5f80604083850312156137eb576137ea612a5c565b5b5f6137f885828601613433565b925050602083013567ffffffffffffffff81111561381957613818612a60565b5b61382585828601612cbd565b9150509250929050565b5f6020820190506138425f830184613284565b92915050565b5f67ffffffffffffffff82111561386257613861612bd4565b5b602082029050602081019050919050565b5f61388561388084613848565b612c32565b905080838252602082019050602084028301858111156138a8576138a7612d81565b5b835b818110156138d157806138bd8882613433565b8452602084019350506020810190506138aa565b5050509392505050565b5f82601f8301126138ef576138ee612bcc565b5b81356138ff848260208601613873565b91505092915050565b5f806040838503121561391e5761391d612a5c565b5b5f83013567ffffffffffffffff81111561393b5761393a612a60565b5b613947858286016138db565b925050602083013567ffffffffffffffff81111561396857613967612a60565b5b61397485828601613075565b9150509250929050565b5f81519050919050565b5f82825260208201905092915050565b5f819050602082019050919050565b6139b081612b67565b82525050565b5f6139c183836139a7565b60208301905092915050565b5f602082019050919050565b5f6139e38261397e565b6139ed8185613988565b93506139f883613998565b805f5b83811015613a28578151613a0f88826139b6565b9750613a1a836139cd565b9250506001810190506139fb565b5085935050505092915050565b5f6020820190508181035f830152613a4d81846139d9565b905092915050565b5f60208284031215613a6a57613a69612a5c565b5b5f82013567ffffffffffffffff811115613a8757613a86612a60565b5b613a93848285016138db565b91505092915050565b5f67ffffffffffffffff821115613ab657613ab5612bd4565b5b613abf826129f5565b9050602081019050919050565b5f613ade613ad984613a9c565b612c32565b905082815260208101848484011115613afa57613af9612bd0565b5b613b058482856129e7565b509392505050565b5f82601f830112613b2157613b20612bcc565b5b8135613b31848260208601613acc565b91505092915050565b613b43816132f3565b8114613b4d575f80fd5b50565b5f81359050613b5e81613b3a565b92915050565b613b6d81613311565b8114613b77575f80fd5b50565b5f81359050613b8881613b64565b92915050565b613b978161333b565b8114613ba1575f80fd5b50565b5f81359050613bb281613b8e565b92915050565b5f8083601f840112613bcd57613bcc612bcc565b5b8235905067ffffffffffffffff811115613bea57613be96134d0565b5b602083019150836001820283011115613c0657613c05612d81565b5b9250929050565b5f805f805f805f60c0888a031215613c2857613c27612a5c565b5b5f613c358a828b01612b8e565b975050602088013567ffffffffffffffff811115613c5657613c55612a60565b5b613c628a828b01613b0d565b9650506040613c738a828b01613b50565b9550506060613c848a828b01613b7a565b9450506080613c958a828b01613ba4565b93505060a088013567ffffffffffffffff811115613cb657613cb5612a60565b5b613cc28a828b01613bb8565b925092505092959891949750929550565b613cdc81612a64565b82525050565b5f602082019050613cf55f830184613cd3565b92915050565b5f81905092915050565b5f613d108385613cfb565b9350613d1d8385846129e7565b82840190509392505050565b5f8160601b9050919050565b5f613d3f82613d29565b9050919050565b5f613d5082613d35565b9050919050565b613d68613d6382612b67565b613d46565b82525050565b5f819050919050565b613d88613d8382612b17565b613d6e565b82525050565b5f613d9a828688613d05565b9150613da68285613d57565b601482019150613db68284613d77565b60208201915081905095945050505050565b5f613dd282613357565b613ddc8185613cfb565b9350613dec8185602086016132ad565b80840191505092915050565b5f613e038284613dc8565b915081905092915050565b7f4e487b71000000000000000000000000000000000000000000000000000000005f52601160045260245ffd5b5f613e4582612b17565b9150613e5083612b17565b9250828201905080821115613e6857613e67613e0e565b5b92915050565b5f606082019050613e815f830186613284565b613e8e6020830185612b20565b8181036040830152613ea08184613361565b9050949350505050565b7f4e487b71000000000000000000000000000000000000000000000000000000005f52603260045260245ffd5b5f606082019050613eea5f830186613284565b613ef76020830185613284565b613f046040830184613284565b949350505050565b5f819050919050565b5f819050919050565b5f613f38613f33613f2e84613f0c565b613f15565b613225565b9050919050565b613f4881613f1e565b82525050565b5f606082019050613f615f830186613284565b613f6e6020830185613f3f565b8181036040830152613f808184613361565b9050949350505050565b7f4e487b71000000000000000000000000000000000000000000000000000000005f52602260045260245ffd5b5f6002820490506001821680613fce57607f821691505b602082108103613fe157613fe0613f8a565b5b50919050565b5f80fd5b5f80fd5b5f80fd5b5f808335600160200384360303811261400f5761400e613fe7565b5b80840192508235915067ffffffffffffffff82111561403157614030613feb565b5b60208301925060018202360383131561404d5761404c613fef565b5b509250929050565b5f614061828486613d05565b91508190509392505050565b7f4f776e61626c653a206e6577206f776e657220697320746865207a65726f20615f8201527f6464726573730000000000000000000000000000000000000000000000000000602082015250565b5f6140c760268361329d565b91506140d28261406d565b604082019050919050565b5f6020820190508181035f8301526140f4816140bb565b9050919050565b7f41737365742063616e6e6f74206265207a65726f2e00000000000000000000005f82015250565b5f61412f60158361329d565b915061413a826140fb565b602082019050919050565b5f6020820190508181035f83015261415c81614123565b9050919050565b5f61416d82612b17565b91507fffffffffffffffffffffffffffffffffffffffffffffffffffffffffffffffff820361419f5761419e613e0e565b5b600182019050919050565b5f819050815f5260205f209050919050565b5f6020601f8301049050919050565b5f82821b905092915050565b5f600883026142067fffffffffffffffffffffffffffffffffffffffffffffffffffffffffffffffff826141cb565b61421086836141cb565b95508019841693508086168417925050509392505050565b5f61424261423d61423884612b17565b613f15565b612b17565b9050919050565b5f819050919050565b61425b83614228565b61426f61426782614249565b8484546141d7565b825550505050565b5f90565b614283614277565b61428e818484614252565b505050565b5b818110156142b1576142a65f8261427b565b600181019050614294565b5050565b601f8211156142f6576142c7816141aa565b6142d0846141bc565b810160208510156142df578190505b6142f36142eb856141bc565b830182614293565b50505b505050565b5f82821c905092915050565b5f6143165f19846008026142fb565b1980831691505092915050565b5f61432e8383614307565b9150826002028217905092915050565b61434782613293565b67ffffffffffffffff8111156143605761435f612bd4565b5b61436a8254613fb7565b6143758282856142b5565b5f60209050601f8311600181146143a6575f8415614394578287015190505b61439e8582614323565b865550614405565b601f1984166143b4866141aa565b5f5b828110156143db578489015182556001820191506020850194506020810190506143b6565b868310156143f857848901516143f4601f891682614307565b8355505b6001600288020188555050505b505050505050565b5f819050815f5260205f209050919050565b601f821115614460576144318161440d565b61443a846141bc565b81016020851015614449578190505b61445d614455856141bc565b830182614293565b50505b505050565b61446e82613357565b67ffffffffffffffff81111561448757614486612bd4565b5b6144918254613fb7565b61449c82828561441f565b5f60209050601f8311600181146144cd575f84156144bb578287015190505b6144c58582614323565b86555061452c565b601f1984166144db8661440d565b5f5b82811015614502578489015182556001820191506020850194506020810190506144dd565b8683101561451f578489015161451b601f891682614307565b8355505b6001600288020188555050505b505050505050565b5f60a0820190508181035f83015261454c81896132bb565b905061455b6020830188613302565b614568604083018761332c565b6145756060830186613348565b8181036080830152614588818486612a05565b9050979650505050505050565b5f819050602082019050919050565b5f7fffffffffffffffffffffffffffffffffffffffff00000000000000000000000082169050919050565b5f6145da82516145a4565b80915050919050565b5f6145ed82613357565b826145f784614595565b9050614602816145cf565b925060148210156146425761463d7fffffffffffffffffffffffffffffffffffffffff000000000000000000000000836014036008026141cb565b831692505b5050919050565b7f4f776e61626c653a2063616c6c6572206973206e6f7420746865206f776e65725f82015250565b5f61467d60208361329d565b915061468882614649565b602082019050919050565b5f6020820190508181035f8301526146aa81614671565b9050919050565b5f6080820190506146c45f830187613284565b6146d16020830186612b20565b6146de6040830185613284565b6146eb6060830184612b20565b95945050505050565b5f6146fe82612b17565b915061470983612b17565b925082820390508181111561472157614720613e0e565b5b92915050565b5f60a08201905061473a5f830188613284565b6147476020830187613284565b6147546040830186613284565b6147616060830185612b20565b81810360808301526147738184613361565b90509695505050505050565b5f7fffffffffffffffffffff0000000000000000000000000000000000000000000082169050919050565b5f819050919050565b6147c46147bf8261477f565b6147aa565b82525050565b5f7fffff00000000000000000000000000000000000000000000000000000000000082169050919050565b5f819050919050565b61480f61480a826147ca565b6147f5565b82525050565b5f819050919050565b61482f61482a826145a4565b614815565b82525050565b5f61484082866147b3565b600a8201915061485082856147fe565b600282019150614860828461481e565b601482019150819050949350505050565b5f61487c8251613414565b80915050919050565b5f61488f82613357565b8261489984614595565b90506148a481614871565b925060208210156148e4576148df7fffffffffffffffffffffffffffffffffffffffffffffffffffffffffffffffff836020036008026141cb565b831692505b5050919050565b6148f481613414565b82525050565b5f60408201905061490d5f8301856148eb565b818103602083015261491f8184613361565b90509392505050565b5f61493a61493584612c4c565b612c32565b90508281526020810184848401111561495657614955612bd0565b5b6149618482856132ad565b509392505050565b5f82601f83011261497d5761497c612bcc565b5b815161498d848260208601614928565b91505092915050565b5f602082840312156149ab576149aa612a5c565b5b5f82015167ffffffffffffffff8111156149c8576149c7612a60565b5b6149d484828501614969565b91505092915050565b5f6060820190506149f05f830186612b20565b6149fd6020830185613284565b614a0a6040830184612b20565b949350505050565b5f606082019050614a255f830186612b20565b614a326020830185612aef565b8181036040830152614a448184613361565b9050949350505050565b7f4e487b71000000000000000000000000000000000000000000000000000000005f52603160045260245ffdfea2646970667358221220bc16769490c3eefdcaebde928ec5d4ad550d5cd88c6d73bc019afc69de28796064736f6c634300081a0033",
			"opcodes": "PUSH1 0x80 PUSH1 0x40 MSTORE CALLVALUE DUP1 ISZERO PUSH2 0xF JUMPI PUSH0 DUP1 REVERT JUMPDEST POP PUSH1 0x40 MLOAD DUP1 PUSH1 0x40 ADD PUSH1 0x40 MSTORE DUP1 PUSH1 0xE DUP2 MSTORE PUSH1 0x20 ADD PUSH32 0x54726164696E675369676E616C73000000000000000000000000000000000000 DUP2 MSTORE POP PUSH1 0x40 MLOAD DUP1 PUSH1 0x40 ADD PUSH1 0x40 MSTORE DUP1 PUSH1 0x6 DUP2 MSTORE PUSH1 0x20 ADD PUSH32 0x5349474E414C0000000000000000000000000000000000000000000000000000 DUP2 MSTORE POP CALLER PUSH0 DUP1 DUP5 DUP5 DUP5 DUP5 DUP2 PUSH2 0xA0 PUSH2 0x95 PUSH2 0x258 PUSH1 0x20 SHL PUSH1 0x20 SHR JUMP JUMPDEST PUSH2 0x25F PUSH1 0x20 SHL PUSH1 0x20 SHR JUMP JUMPDEST PUSH0 PUSH20 0xFFFFFFFFFFFFFFFFFFFFFFFFFFFFFFFFFFFFFFFF AND DUP2 PUSH20 0xFFFFFFFFFFFFFFFFFFFFFFFFFFFFFFFFFFFFFFFF AND SUB PUSH2 0x105 JUMPI PUSH1 0x40 MLOAD PUSH32 0x1AD8836C00000000000000000000000000000000000000000000000000000000 DUP2 MSTORE PUSH1 0x4 ADD PUSH1 0x40 MLOAD DUP1 SWAP2 SUB SWAP1 REVERT JUMPDEST PUSH2 0x114 DUP2 PUSH2 0x25F PUSH1 0x20 SHL PUSH1 0x20 SHR JUMP JUMPDEST POP PUSH2 0x17C PUSH32 0xEAFEC4D89FA9619884B60000A4D96624A38F7AC2D8D9A604ECF07C12C77E480C PUSH0 SHL PUSH1 0x40 MLOAD DUP1 PUSH1 0x40 ADD PUSH1 0x40 MSTORE DUP1 PUSH1 0x4 DUP2 MSTORE PUSH1 0x20 ADD PUSH32 0xA4D9662400000000000000000000000000000000000000000000000000000000 DUP2 MSTORE POP PUSH2 0x320 PUSH1 0x20 SHL PUSH1 0x20 SHR JUMP JUMPDEST PUSH2 0x1AE PUSH32 0xDEBA1E292F8BA88238E10AB3C7F88BD4BE4FAC56CAD5194B6ECCEAF653468AF1 PUSH0 SHL DUP6 PUSH2 0x320 PUSH1 0x20 SHL PUSH1 0x20 SHR JUMP JUMPDEST PUSH2 0x1E0 PUSH32 0x2F0A68AB07768E01943A599E73362A0E17A63A72E94DD2E384D2C1D4DB932756 PUSH0 SHL DUP5 PUSH2 0x320 PUSH1 0x20 SHL PUSH1 0x20 SHR JUMP JUMPDEST PUSH2 0x231 PUSH32 0xE0261FA95DB2EB3B5439BD033CDA66D56B96F92F243A8228FD87550ED7BDFDB3 PUSH0 SHL DUP3 PUSH1 0x40 MLOAD PUSH1 0x20 ADD PUSH2 0x217 SWAP2 SWAP1 PUSH2 0x393 JUMP JUMPDEST PUSH1 0x40 MLOAD PUSH1 0x20 DUP2 DUP4 SUB SUB DUP2 MSTORE SWAP1 PUSH1 0x40 MSTORE PUSH2 0x320 PUSH1 0x20 SHL PUSH1 0x20 SHR JUMP JUMPDEST POP POP POP POP DUP1 PUSH1 0x2 PUSH0 PUSH2 0x100 EXP DUP2 SLOAD DUP2 PUSH1 0xFF MUL NOT AND SWAP1 DUP4 ISZERO ISZERO MUL OR SWAP1 SSTORE POP POP POP POP POP POP PUSH2 0x732 JUMP JUMPDEST PUSH0 CALLER SWAP1 POP SWAP1 JUMP JUMPDEST PUSH0 DUP1 PUSH0 SWAP1 SLOAD SWAP1 PUSH2 0x100 EXP SWAP1 DIV PUSH20 0xFFFFFFFFFFFFFFFFFFFFFFFFFFFFFFFFFFFFFFFF AND SWAP1 POP DUP2 PUSH0 DUP1 PUSH2 0x100 EXP DUP2 SLOAD DUP2 PUSH20 0xFFFFFFFFFFFFFFFFFFFFFFFFFFFFFFFFFFFFFFFF MUL NOT AND SWAP1 DUP4 PUSH20 0xFFFFFFFFFFFFFFFFFFFFFFFFFFFFFFFFFFFFFFFF AND MUL OR SWAP1 SSTORE POP DUP2 PUSH20 0xFFFFFFFFFFFFFFFFFFFFFFFFFFFFFFFFFFFFFFFF AND DUP2 PUSH20 0xFFFFFFFFFFFFFFFFFFFFFFFFFFFFFFFFFFFFFFFF AND PUSH32 0x8BE0079C531659141344CD1FD0A4F28419497F9722A3DAAFE3B4186F6B6457E0 PUSH1 0x40 MLOAD PUSH1 0x40 MLOAD DUP1 SWAP2 SUB SWAP1 LOG3 POP POP JUMP JUMPDEST DUP1 PUSH1 0x1 PUSH0 DUP5 DUP2 MSTORE PUSH1 0x20 ADD SWAP1 DUP2 MSTORE PUSH1 0x20 ADD PUSH0 KECCAK256 SWAP1 DUP2 PUSH2 0x33E SWAP2 SWAP1 PUSH2 0x5DD JUMP JUMPDEST POP DUP2 PUSH32 0xECE574603820D07BC9B91F2A932BAADF4628AABCB8AFBA49776529C14A6104B2 DUP3 PUSH1 0x40 MLOAD PUSH2 0x36F SWAP2 SWAP1 PUSH2 0x712 JUMP JUMPDEST PUSH1 0x40 MLOAD DUP1 SWAP2 SUB SWAP1 LOG2 POP POP JUMP JUMPDEST PUSH0 DUP2 SWAP1 POP SWAP2 SWAP1 POP JUMP JUMPDEST PUSH2 0x38D DUP2 PUSH2 0x37B JUMP JUMPDEST DUP3 MSTORE POP POP JUMP JUMPDEST PUSH0 PUSH1 0x20 DUP3 ADD SWAP1 POP PUSH2 0x3A6 PUSH0 DUP4 ADD DUP5 PUSH2 0x384 JUMP JUMPDEST SWAP3 SWAP2 POP POP JUMP JUMPDEST PUSH0 DUP2 MLOAD SWAP1 POP SWAP2 SWAP1 POP JUMP JUMPDEST PUSH32 0x4E487B7100000000000000000000000000000000000000000000000000000000 PUSH0 MSTORE PUSH1 0x41 PUSH1 0x4 MSTORE PUSH1 0x24 PUSH0 REVERT JUMPDEST PUSH32 0x4E487B7100000000000000000000000000000000000000000000000000000000 PUSH0 MSTORE PUSH1 0x22 PUSH1 0x4 MSTORE PUSH1 0x24 PUSH0 REVERT JUMPDEST PUSH0 PUSH1 0x2 DUP3 DIV SWAP1 POP PUSH1 0x1 DUP3 AND DUP1 PUSH2 0x427 JUMPI PUSH1 0x7F DUP3 AND SWAP2 POP JUMPDEST PUSH1 0x20 DUP3 LT DUP2 SUB PUSH2 0x43A JUMPI PUSH2 0x439 PUSH2 0x3E3 JUMP JUMPDEST JUMPDEST POP SWAP2 SWAP1 POP JUMP JUMPDEST PUSH0 DUP2 SWAP1 POP DUP2 PUSH0 MSTORE PUSH1 0x20 PUSH0 KECCAK256 SWAP1 POP SWAP2 SWAP1 POP JUMP JUMPDEST PUSH0 PUSH1 0x20 PUSH1 0x1F DUP4 ADD DIV SWAP1 POP SWAP2 SWAP1 POP JUMP JUMPDEST PUSH0 DUP3 DUP3 SHL SWAP1 POP SWAP3 SWAP2 POP POP JUMP JUMPDEST PUSH0 PUSH1 0x8 DUP4 MUL PUSH2 0x49C PUSH32 0xFFFFFFFFFFFFFFFFFFFFFFFFFFFFFFFFFFFFFFFFFFFFFFFFFFFFFFFFFFFFFFFF DUP3 PUSH2 0x461 JUMP JUMPDEST PUSH2 0x4A6 DUP7 DUP4 PUSH2 0x461 JUMP JUMPDEST SWAP6 POP DUP1 NOT DUP5 AND SWAP4 POP DUP1 DUP7 AND DUP5 OR SWAP3 POP POP POP SWAP4 SWAP3 POP POP POP JUMP JUMPDEST PUSH0 DUP2 SWAP1 POP SWAP2 SWAP1 POP JUMP JUMPDEST PUSH0 PUSH2 0x4E1 PUSH2 0x4DC PUSH2 0x4D7 DUP5 PUSH2 0x37B JUMP JUMPDEST PUSH2 0x4BE JUMP JUMPDEST PUSH2 0x37B JUMP JUMPDEST SWAP1 POP SWAP2 SWAP1 POP JUMP JUMPDEST PUSH0 DUP2 SWAP1 POP SWAP2 SWAP1 POP JUMP JUMPDEST PUSH2 0x4FA DUP4 PUSH2 0x4C7 JUMP JUMPDEST PUSH2 0x50E PUSH2 0x506 DUP3 PUSH2 0x4E8 JUMP JUMPDEST DUP5 DUP5 SLOAD PUSH2 0x46D JUMP JUMPDEST DUP3 SSTORE POP POP POP POP JUMP JUMPDEST PUSH0 SWAP1 JUMP JUMPDEST PUSH2 0x522 PUSH2 0x516 JUMP JUMPDEST PUSH2 0x52D DUP2 DUP5 DUP5 PUSH2 0x4F1 JUMP JUMPDEST POP POP POP JUMP JUMPDEST JUMPDEST DUP2 DUP2 LT ISZERO PUSH2 0x550 JUMPI PUSH2 0x545 PUSH0 DUP3 PUSH2 0x51A JUMP JUMPDEST PUSH1 0x1 DUP2 ADD SWAP1 POP PUSH2 0x533 JUMP JUMPDEST POP POP JUMP JUMPDEST PUSH1 0x1F DUP3 GT ISZERO PUSH2 0x595 JUMPI PUSH2 0x566 DUP2 PUSH2 0x440 JUMP JUMPDEST PUSH2 0x56F DUP5 PUSH2 0x452 JUMP JUMPDEST DUP2 ADD PUSH1 0x20 DUP6 LT ISZERO PUSH2 0x57E JUMPI DUP2 SWAP1 POP JUMPDEST PUSH2 0x592 PUSH2 0x58A DUP6 PUSH2 0x452 JUMP JUMPDEST DUP4 ADD DUP3 PUSH2 0x532 JUMP JUMPDEST POP POP JUMPDEST POP POP POP JUMP JUMPDEST PUSH0 DUP3 DUP3 SHR SWAP1 POP SWAP3 SWAP2 POP POP JUMP JUMPDEST PUSH0 PUSH2 0x5B5 PUSH0 NOT DUP5 PUSH1 0x8 MUL PUSH2 0x59A JUMP JUMPDEST NOT DUP1 DUP4 AND SWAP2 POP POP SWAP3 SWAP2 POP POP JUMP JUMPDEST PUSH0 PUSH2 0x5CD DUP4 DUP4 PUSH2 0x5A6 JUMP JUMPDEST SWAP2 POP DUP3 PUSH1 0x2 MUL DUP3 OR SWAP1 POP SWAP3 SWAP2 POP POP JUMP JUMPDEST PUSH2 0x5E6 DUP3 PUSH2 0x3AC JUMP JUMPDEST PUSH8 0xFFFFFFFFFFFFFFFF DUP2 GT ISZERO PUSH2 0x5FF JUMPI PUSH2 0x5FE PUSH2 0x3B6 JUMP JUMPDEST JUMPDEST PUSH2 0x609 DUP3 SLOAD PUSH2 0x410 JUMP JUMPDEST PUSH2 0x614 DUP3 DUP3 DUP6 PUSH2 0x554 JUMP JUMPDEST PUSH0 PUSH1 0x20 SWAP1 POP PUSH1 0x1F DUP4 GT PUSH1 0x1 DUP2 EQ PUSH2 0x645 JUMPI PUSH0 DUP5 ISZERO PUSH2 0x633 JUMPI DUP3 DUP8 ADD MLOAD SWAP1 POP JUMPDEST PUSH2 0x63D DUP6 DUP3 PUSH2 0x5C2 JUMP JUMPDEST DUP7 SSTORE POP PUSH2 0x6A4 JUMP JUMPDEST PUSH1 0x1F NOT DUP5 AND PUSH2 0x653 DUP7 PUSH2 0x440 JUMP JUMPDEST PUSH0 JUMPDEST DUP3 DUP2 LT ISZERO PUSH2 0x67A JUMPI DUP5 DUP10 ADD MLOAD DUP3 SSTORE PUSH1 0x1 DUP3 ADD SWAP2 POP PUSH1 0x20 DUP6 ADD SWAP5 POP PUSH1 0x20 DUP2 ADD SWAP1 POP PUSH2 0x655 JUMP JUMPDEST DUP7 DUP4 LT ISZERO PUSH2 0x697 JUMPI DUP5 DUP10 ADD MLOAD PUSH2 0x693 PUSH1 0x1F DUP10 AND DUP3 PUSH2 0x5A6 JUMP JUMPDEST DUP4 SSTORE POP JUMPDEST PUSH1 0x1 PUSH1 0x2 DUP9 MUL ADD DUP9 SSTORE POP POP POP JUMPDEST POP POP POP POP POP POP JUMP JUMPDEST PUSH0 DUP3 DUP3 MSTORE PUSH1 0x20 DUP3 ADD SWAP1 POP SWAP3 SWAP2 POP POP JUMP JUMPDEST DUP3 DUP2 DUP4 MCOPY PUSH0 DUP4 DUP4 ADD MSTORE POP POP POP JUMP JUMPDEST PUSH0 PUSH1 0x1F NOT PUSH1 0x1F DUP4 ADD AND SWAP1 POP SWAP2 SWAP1 POP JUMP JUMPDEST PUSH0 PUSH2 0x6E4 DUP3 PUSH2 0x3AC JUMP JUMPDEST PUSH2 0x6EE DUP2 DUP6 PUSH2 0x6AC JUMP JUMPDEST SWAP4 POP PUSH2 0x6FE DUP2 DUP6 PUSH1 0x20 DUP7 ADD PUSH2 0x6BC JUMP JUMPDEST PUSH2 0x707 DUP2 PUSH2 0x6CA JUMP JUMPDEST DUP5 ADD SWAP2 POP POP SWAP3 SWAP2 POP POP JUMP JUMPDEST PUSH0 PUSH1 0x20 DUP3 ADD SWAP1 POP DUP2 DUP2 SUB PUSH0 DUP4 ADD MSTORE PUSH2 0x72A DUP2 DUP5 PUSH2 0x6DA JUMP JUMPDEST SWAP1 POP SWAP3 SWAP2 POP POP JUMP JUMPDEST PUSH2 0x4AB1 DUP1 PUSH2 0x73F PUSH0 CODECOPY PUSH0 RETURN INVALID PUSH1 0x80 PUSH1 0x40 MSTORE PUSH1 0x4 CALLDATASIZE LT PUSH2 0x143 JUMPI PUSH0 CALLDATALOAD PUSH1 0xE0 SHR DUP1 PUSH4 0x715018A6 GT PUSH2 0xB5 JUMPI DUP1 PUSH4 0xAE0041AA GT PUSH2 0x6E JUMPI DUP1 PUSH4 0xAE0041AA EQ PUSH2 0x524 JUMPI DUP1 PUSH4 0xB49506FD EQ PUSH2 0x54E JUMPI DUP1 PUSH4 0xD72FC29A EQ PUSH2 0x576 JUMPI DUP1 PUSH4 0xDEDFF9C6 EQ PUSH2 0x5B2 JUMPI DUP1 PUSH4 0xF2FDE38B EQ PUSH2 0x5EE JUMPI DUP1 PUSH4 0xF8C94A88 EQ PUSH2 0x616 JUMPI PUSH2 0x1BC JUMP JUMPDEST DUP1 PUSH4 0x715018A6 EQ PUSH2 0x45C JUMPI DUP1 PUSH4 0x760D9BBA EQ PUSH2 0x472 JUMPI DUP1 PUSH4 0x78381670 EQ PUSH2 0x49A JUMPI DUP1 PUSH4 0x7F23690C EQ PUSH2 0x4C2 JUMPI DUP1 PUSH4 0x8DA5CB5B EQ PUSH2 0x4DE JUMPI DUP1 PUSH4 0x97902421 EQ PUSH2 0x508 JUMPI PUSH2 0x1BC JUMP JUMPDEST DUP1 PUSH4 0x313CE567 GT PUSH2 0x107 JUMPI DUP1 PUSH4 0x313CE567 EQ PUSH2 0x300 JUMPI DUP1 PUSH4 0x47C740CD EQ PUSH2 0x32A JUMPI DUP1 PUSH4 0x54F6127F EQ PUSH2 0x36C JUMPI DUP1 PUSH4 0x65AEAA95 EQ PUSH2 0x3A8 JUMPI DUP1 PUSH4 0x6963D438 EQ PUSH2 0x3E4 JUMPI DUP1 PUSH4 0x70A08231 EQ PUSH2 0x420 JUMPI PUSH2 0x1BC JUMP JUMPDEST DUP1 PUSH4 0x1FFC9A7 EQ PUSH2 0x222 JUMPI DUP1 PUSH4 0x18160DDD EQ PUSH2 0x25E JUMPI DUP1 PUSH4 0x2BC1DA82 EQ PUSH2 0x288 JUMPI DUP1 PUSH4 0x2D7667C9 EQ PUSH2 0x2B0 JUMPI DUP1 PUSH4 0x30D0DC37 EQ PUSH2 0x2D8 JUMPI PUSH2 0x1BC JUMP JUMPDEST CALLDATASIZE PUSH2 0x1BC JUMPI PUSH0 CALLVALUE SUB PUSH2 0x18A JUMPI PUSH1 0x40 MLOAD PUSH32 0xE5099EE300000000000000000000000000000000000000000000000000000000 DUP2 MSTORE PUSH1 0x4 ADD PUSH2 0x181 SWAP1 PUSH2 0x29C9 JUMP JUMPDEST PUSH1 0x40 MLOAD DUP1 SWAP2 SUB SWAP1 REVERT JUMPDEST PUSH1 0x40 MLOAD PUSH32 0x388F5ADC00000000000000000000000000000000000000000000000000000000 DUP2 MSTORE PUSH1 0x4 ADD PUSH1 0x40 MLOAD DUP1 SWAP2 SUB SWAP1 REVERT JUMPDEST PUSH0 CALLDATASIZE PUSH1 0x60 PUSH1 0x4 PUSH0 CALLDATASIZE SWAP1 POP LT ISZERO PUSH2 0x20B JUMPI DUP3 DUP3 PUSH1 0x40 MLOAD PUSH32 0xE5099EE300000000000000000000000000000000000000000000000000000000 DUP2 MSTORE PUSH1 0x4 ADD PUSH2 0x202 SWAP3 SWAP2 SWAP1 PUSH2 0x2A31 JUMP JUMPDEST PUSH1 0x40 MLOAD DUP1 SWAP2 SUB SWAP1 REVERT JUMPDEST PUSH2 0x215 DUP4 DUP4 PUSH2 0x63E JUMP JUMPDEST SWAP1 POP SWAP2 POP POP DUP1 MLOAD SWAP1 PUSH1 0x20 ADD RETURN JUMPDEST CALLVALUE DUP1 ISZERO PUSH2 0x22D JUMPI PUSH0 DUP1 REVERT JUMPDEST POP PUSH2 0x248 PUSH1 0x4 DUP1 CALLDATASIZE SUB DUP2 ADD SWAP1 PUSH2 0x243 SWAP2 SWAP1 PUSH2 0x2AB9 JUMP JUMPDEST PUSH2 0x7B4 JUMP JUMPDEST PUSH1 0x40 MLOAD PUSH2 0x255 SWAP2 SWAP1 PUSH2 0x2AFE JUMP JUMPDEST PUSH1 0x40 MLOAD DUP1 SWAP2 SUB SWAP1 RETURN JUMPDEST CALLVALUE DUP1 ISZERO PUSH2 0x269 JUMPI PUSH0 DUP1 REVERT JUMPDEST POP PUSH2 0x272 PUSH2 0x824 JUMP JUMPDEST PUSH1 0x40 MLOAD PUSH2 0x27F SWAP2 SWAP1 PUSH2 0x2B2F JUMP JUMPDEST PUSH1 0x40 MLOAD DUP1 SWAP2 SUB SWAP1 RETURN JUMPDEST CALLVALUE DUP1 ISZERO PUSH2 0x293 JUMPI PUSH0 DUP1 REVERT JUMPDEST POP PUSH2 0x2AE PUSH1 0x4 DUP1 CALLDATASIZE SUB DUP2 ADD SWAP1 PUSH2 0x2A9 SWAP2 SWAP1 PUSH2 0x2CEA JUMP JUMPDEST PUSH2 0x82D JUMP JUMPDEST STOP JUMPDEST CALLVALUE DUP1 ISZERO PUSH2 0x2BB JUMPI PUSH0 DUP1 REVERT JUMPDEST POP PUSH2 0x2D6 PUSH1 0x4 DUP1 CALLDATASIZE SUB DUP2 ADD SWAP1 PUSH2 0x2D1 SWAP2 SWAP1 PUSH2 0x30A2 JUMP JUMPDEST PUSH2 0x8D4 JUMP JUMPDEST STOP JUMPDEST CALLVALUE DUP1 ISZERO PUSH2 0x2E3 JUMPI PUSH0 DUP1 REVERT JUMPDEST POP PUSH2 0x2FE PUSH1 0x4 DUP1 CALLDATASIZE SUB DUP2 ADD SWAP1 PUSH2 0x2F9 SWAP2 SWAP1 PUSH2 0x31A5 JUMP JUMPDEST PUSH2 0x9E6 JUMP JUMPDEST STOP JUMPDEST CALLVALUE DUP1 ISZERO PUSH2 0x30B JUMPI PUSH0 DUP1 REVERT JUMPDEST POP PUSH2 0x314 PUSH2 0xAE0 JUMP JUMPDEST PUSH1 0x40 MLOAD PUSH2 0x321 SWAP2 SWAP1 PUSH2 0x3240 JUMP JUMPDEST PUSH1 0x40 MLOAD DUP1 SWAP2 SUB SWAP1 RETURN JUMPDEST CALLVALUE DUP1 ISZERO PUSH2 0x335 JUMPI PUSH0 DUP1 REVERT JUMPDEST POP PUSH2 0x350 PUSH1 0x4 DUP1 CALLDATASIZE SUB DUP2 ADD SWAP1 PUSH2 0x34B SWAP2 SWAP1 PUSH2 0x3259 JUMP JUMPDEST PUSH2 0xB02 JUMP JUMPDEST PUSH1 0x40 MLOAD PUSH2 0x363 SWAP8 SWAP7 SWAP6 SWAP5 SWAP4 SWAP3 SWAP2 SWAP1 PUSH2 0x3399 JUMP JUMPDEST PUSH1 0x40 MLOAD DUP1 SWAP2 SUB SWAP1 RETURN JUMPDEST CALLVALUE DUP1 ISZERO PUSH2 0x377 JUMPI PUSH0 DUP1 REVERT JUMPDEST POP PUSH2 0x392 PUSH1 0x4 DUP1 CALLDATASIZE SUB DUP2 ADD SWAP1 PUSH2 0x38D SWAP2 SWAP1 PUSH2 0x3447 JUMP JUMPDEST PUSH2 0xCA4 JUMP JUMPDEST PUSH1 0x40 MLOAD PUSH2 0x39F SWAP2 SWAP1 PUSH2 0x3472 JUMP JUMPDEST PUSH1 0x40 MLOAD DUP1 SWAP2 SUB SWAP1 RETURN JUMPDEST CALLVALUE DUP1 ISZERO PUSH2 0x3B3 JUMPI PUSH0 DUP1 REVERT JUMPDEST POP PUSH2 0x3CE PUSH1 0x4 DUP1 CALLDATASIZE SUB DUP2 ADD SWAP1 PUSH2 0x3C9 SWAP2 SWAP1 PUSH2 0x3492 JUMP JUMPDEST PUSH2 0xCB6 JUMP JUMPDEST PUSH1 0x40 MLOAD PUSH2 0x3DB SWAP2 SWAP1 PUSH2 0x2B2F JUMP JUMPDEST PUSH1 0x40 MLOAD DUP1 SWAP2 SUB SWAP1 RETURN JUMPDEST CALLVALUE DUP1 ISZERO PUSH2 0x3EF JUMPI PUSH0 DUP1 REVERT JUMPDEST POP PUSH2 0x40A PUSH1 0x4 DUP1 CALLDATASIZE SUB DUP2 ADD SWAP1 PUSH2 0x405 SWAP2 SWAP1 PUSH2 0x3529 JUMP JUMPDEST PUSH2 0xDB1 JUMP JUMPDEST PUSH1 0x40 MLOAD PUSH2 0x417 SWAP2 SWAP1 PUSH2 0x3677 JUMP JUMPDEST PUSH1 0x40 MLOAD DUP1 SWAP2 SUB SWAP1 RETURN JUMPDEST CALLVALUE DUP1 ISZERO PUSH2 0x42B JUMPI PUSH0 DUP1 REVERT JUMPDEST POP PUSH2 0x446 PUSH1 0x4 DUP1 CALLDATASIZE SUB DUP2 ADD SWAP1 PUSH2 0x441 SWAP2 SWAP1 PUSH2 0x3697 JUMP JUMPDEST PUSH2 0xF27 JUMP JUMPDEST PUSH1 0x40 MLOAD PUSH2 0x453 SWAP2 SWAP1 PUSH2 0x2B2F JUMP JUMPDEST PUSH1 0x40 MLOAD DUP1 SWAP2 SUB SWAP1 RETURN JUMPDEST CALLVALUE DUP1 ISZERO PUSH2 0x467 JUMPI PUSH0 DUP1 REVERT JUMPDEST POP PUSH2 0x470 PUSH2 0xF6D JUMP JUMPDEST STOP JUMPDEST CALLVALUE DUP1 ISZERO PUSH2 0x47D JUMPI PUSH0 DUP1 REVERT JUMPDEST POP PUSH2 0x498 PUSH1 0x4 DUP1 CALLDATASIZE SUB DUP2 ADD SWAP1 PUSH2 0x493 SWAP2 SWAP1 PUSH2 0x36C2 JUMP JUMPDEST PUSH2 0xF80 JUMP JUMPDEST STOP JUMPDEST CALLVALUE DUP1 ISZERO PUSH2 0x4A5 JUMPI PUSH0 DUP1 REVERT JUMPDEST POP PUSH2 0x4C0 PUSH1 0x4 DUP1 CALLDATASIZE SUB DUP2 ADD SWAP1 PUSH2 0x4BB SWAP2 SWAP1 PUSH2 0x3755 JUMP JUMPDEST PUSH2 0xFD3 JUMP JUMPDEST STOP JUMPDEST PUSH2 0x4DC PUSH1 0x4 DUP1 CALLDATASIZE SUB DUP2 ADD SWAP1 PUSH2 0x4D7 SWAP2 SWAP1 PUSH2 0x37D5 JUMP JUMPDEST PUSH2 0x1116 JUMP JUMPDEST STOP JUMPDEST CALLVALUE DUP1 ISZERO PUSH2 0x4E9 JUMPI PUSH0 DUP1 REVERT JUMPDEST POP PUSH2 0x4F2 PUSH2 0x1165 JUMP JUMPDEST PUSH1 0x40 MLOAD PUSH2 0x4FF SWAP2 SWAP1 PUSH2 0x382F JUMP JUMPDEST PUSH1 0x40 MLOAD DUP1 SWAP2 SUB SWAP1 RETURN JUMPDEST PUSH2 0x522 PUSH1 0x4 DUP1 CALLDATASIZE SUB DUP2 ADD SWAP1 PUSH2 0x51D SWAP2 SWAP1 PUSH2 0x3908 JUMP JUMPDEST PUSH2 0x118C JUMP JUMPDEST STOP JUMPDEST CALLVALUE DUP1 ISZERO PUSH2 0x52F JUMPI PUSH0 DUP1 REVERT JUMPDEST POP PUSH2 0x538 PUSH2 0x11DB JUMP JUMPDEST PUSH1 0x40 MLOAD PUSH2 0x545 SWAP2 SWAP1 PUSH2 0x2B2F JUMP JUMPDEST PUSH1 0x40 MLOAD DUP1 SWAP2 SUB SWAP1 RETURN JUMPDEST CALLVALUE DUP1 ISZERO PUSH2 0x559 JUMPI PUSH0 DUP1 REVERT JUMPDEST POP PUSH2 0x574 PUSH1 0x4 DUP1 CALLDATASIZE SUB DUP2 ADD SWAP1 PUSH2 0x56F SWAP2 SWAP1 PUSH2 0x2CEA JUMP JUMPDEST PUSH2 0x11E1 JUMP JUMPDEST STOP JUMPDEST CALLVALUE DUP1 ISZERO PUSH2 0x581 JUMPI PUSH0 DUP1 REVERT JUMPDEST POP PUSH2 0x59C PUSH1 0x4 DUP1 CALLDATASIZE SUB DUP2 ADD SWAP1 PUSH2 0x597 SWAP2 SWAP1 PUSH2 0x3697 JUMP JUMPDEST PUSH2 0x1226 JUMP JUMPDEST PUSH1 0x40 MLOAD PUSH2 0x5A9 SWAP2 SWAP1 PUSH2 0x3A35 JUMP JUMPDEST PUSH1 0x40 MLOAD DUP1 SWAP2 SUB SWAP1 RETURN JUMPDEST CALLVALUE DUP1 ISZERO PUSH2 0x5BD JUMPI PUSH0 DUP1 REVERT JUMPDEST POP PUSH2 0x5D8 PUSH1 0x4 DUP1 CALLDATASIZE SUB DUP2 ADD SWAP1 PUSH2 0x5D3 SWAP2 SWAP1 PUSH2 0x3A55 JUMP JUMPDEST PUSH2 0x1274 JUMP JUMPDEST PUSH1 0x40 MLOAD PUSH2 0x5E5 SWAP2 SWAP1 PUSH2 0x3677 JUMP JUMPDEST PUSH1 0x40 MLOAD DUP1 SWAP2 SUB SWAP1 RETURN JUMPDEST CALLVALUE DUP1 ISZERO PUSH2 0x5F9 JUMPI PUSH0 DUP1 REVERT JUMPDEST POP PUSH2 0x614 PUSH1 0x4 DUP1 CALLDATASIZE SUB DUP2 ADD SWAP1 PUSH2 0x60F SWAP2 SWAP1 PUSH2 0x3697 JUMP JUMPDEST PUSH2 0x1324 JUMP JUMPDEST STOP JUMPDEST CALLVALUE DUP1 ISZERO PUSH2 0x621 JUMPI PUSH0 DUP1 REVERT JUMPDEST POP PUSH2 0x63C PUSH1 0x4 DUP1 CALLDATASIZE SUB DUP2 ADD SWAP1 PUSH2 0x637 SWAP2 SWAP1 PUSH2 0x3C0D JUMP JUMPDEST PUSH2 0x13A6 JUMP JUMPDEST STOP JUMPDEST PUSH1 0x60 PUSH0 PUSH2 0x66D PUSH0 CALLDATALOAD PUSH32 0xFFFFFFFF00000000000000000000000000000000000000000000000000000000 AND PUSH2 0x164C JUMP JUMPDEST POP SWAP1 POP PUSH0 PUSH20 0xFFFFFFFFFFFFFFFFFFFFFFFFFFFFFFFFFFFFFFFF AND DUP2 PUSH20 0xFFFFFFFFFFFFFFFFFFFFFFFFFFFFFFFFFFFFFFFF AND SUB PUSH2 0x703 JUMPI PUSH0 CALLDATALOAD PUSH32 0xFFFFFFFF00000000000000000000000000000000000000000000000000000000 AND PUSH1 0x40 MLOAD PUSH32 0xBB370B2B00000000000000000000000000000000000000000000000000000000 DUP2 MSTORE PUSH1 0x4 ADD PUSH2 0x6FA SWAP2 SWAP1 PUSH2 0x3CE2 JUMP JUMPDEST PUSH1 0x40 MLOAD DUP1 SWAP2 SUB SWAP1 REVERT JUMPDEST PUSH0 DUP1 DUP3 PUSH20 0xFFFFFFFFFFFFFFFFFFFFFFFFFFFFFFFFFFFFFFFF AND CALLVALUE DUP8 DUP8 CALLER CALLVALUE PUSH1 0x40 MLOAD PUSH1 0x20 ADD PUSH2 0x734 SWAP5 SWAP4 SWAP3 SWAP2 SWAP1 PUSH2 0x3D8E JUMP JUMPDEST PUSH1 0x40 MLOAD PUSH1 0x20 DUP2 DUP4 SUB SUB DUP2 MSTORE SWAP1 PUSH1 0x40 MSTORE PUSH1 0x40 MLOAD PUSH2 0x750 SWAP2 SWAP1 PUSH2 0x3DF8 JUMP JUMPDEST PUSH0 PUSH1 0x40 MLOAD DUP1 DUP4 SUB DUP2 DUP6 DUP8 GAS CALL SWAP3 POP POP POP RETURNDATASIZE DUP1 PUSH0 DUP2 EQ PUSH2 0x78A JUMPI PUSH1 0x40 MLOAD SWAP2 POP PUSH1 0x1F NOT PUSH1 0x3F RETURNDATASIZE ADD AND DUP3 ADD PUSH1 0x40 MSTORE RETURNDATASIZE DUP3 MSTORE RETURNDATASIZE PUSH0 PUSH1 0x20 DUP5 ADD RETURNDATACOPY PUSH2 0x78F JUMP JUMPDEST PUSH1 0x60 SWAP2 POP JUMPDEST POP SWAP2 POP SWAP2 POP DUP2 ISZERO PUSH2 0x7A5 JUMPI DUP1 SWAP4 POP POP POP POP PUSH2 0x7AE JUMP JUMPDEST DUP1 MLOAD DUP1 PUSH1 0x20 DUP4 ADD REVERT JUMPDEST SWAP3 SWAP2 POP POP JUMP JUMPDEST PUSH0 PUSH4 0xC52D6008 PUSH1 0xE0 SHL PUSH28 0xFFFFFFFFFFFFFFFFFFFFFFFFFFFFFFFFFFFFFFFFFFFFFFFFFFFFFFFF NOT AND DUP3 PUSH28 0xFFFFFFFFFFFFFFFFFFFFFFFFFFFFFFFFFFFFFFFFFFFFFFFFFFFFFFFF NOT AND EQ DUP1 PUSH2 0x80D JUMPI POP PUSH2 0x80C DUP3 PUSH2 0x1702 JUMP JUMPDEST JUMPDEST DUP1 PUSH2 0x81D JUMPI POP PUSH2 0x81C DUP3 PUSH2 0x1762 JUMP JUMPDEST JUMPDEST SWAP1 POP SWAP2 SWAP1 POP JUMP JUMPDEST PUSH0 PUSH1 0x3 SLOAD SWAP1 POP SWAP1 JUMP JUMPDEST PUSH0 PUSH2 0x838 DUP5 CALLER PUSH2 0xCB6 JUMP JUMPDEST SWAP1 POP PUSH0 DUP2 SUB PUSH2 0x87E JUMPI DUP4 PUSH1 0x40 MLOAD PUSH32 0xCBA6E97700000000000000000000000000000000000000000000000000000000 DUP2 MSTORE PUSH1 0x4 ADD PUSH2 0x875 SWAP2 SWAP1 PUSH2 0x382F JUMP JUMPDEST PUSH1 0x40 MLOAD DUP1 SWAP2 SUB SWAP1 REVERT JUMPDEST PUSH0 DUP4 DUP3 PUSH2 0x88B SWAP2 SWAP1 PUSH2 0x3E3B JUMP JUMPDEST SWAP1 POP PUSH2 0x89B CALLER DUP7 DUP4 PUSH1 0x1 DUP8 PUSH2 0x17C6 JUMP JUMPDEST PUSH0 CALLER DUP3 DUP6 PUSH1 0x40 MLOAD PUSH1 0x20 ADD PUSH2 0x8B1 SWAP4 SWAP3 SWAP2 SWAP1 PUSH2 0x3E6E JUMP JUMPDEST PUSH1 0x40 MLOAD PUSH1 0x20 DUP2 DUP4 SUB SUB DUP2 MSTORE SWAP1 PUSH1 0x40 MSTORE SWAP1 POP PUSH2 0x8CC DUP7 DUP3 PUSH2 0x1A8F JUMP JUMPDEST POP POP POP POP POP POP JUMP JUMPDEST PUSH0 DUP6 MLOAD SWAP1 POP DUP5 MLOAD DUP2 EQ ISZERO DUP1 PUSH2 0x8EA JUMPI POP DUP4 MLOAD DUP2 EQ ISZERO JUMPDEST DUP1 PUSH2 0x8F6 JUMPI POP DUP3 MLOAD DUP2 EQ ISZERO JUMPDEST DUP1 PUSH2 0x902 JUMPI POP DUP2 MLOAD DUP2 EQ ISZERO JUMPDEST ISZERO PUSH2 0x939 JUMPI PUSH1 0x40 MLOAD PUSH32 0x263EEE8D00000000000000000000000000000000000000000000000000000000 DUP2 MSTORE PUSH1 0x4 ADD PUSH1 0x40 MLOAD DUP1 SWAP2 SUB SWAP1 REVERT JUMPDEST PUSH0 JUMPDEST DUP2 DUP2 LT ISZERO PUSH2 0x9DD JUMPI PUSH2 0x9D2 DUP8 DUP3 DUP2 MLOAD DUP2 LT PUSH2 0x959 JUMPI PUSH2 0x958 PUSH2 0x3EAA JUMP JUMPDEST JUMPDEST PUSH1 0x20 MUL PUSH1 0x20 ADD ADD MLOAD DUP8 DUP4 DUP2 MLOAD DUP2 LT PUSH2 0x974 JUMPI PUSH2 0x973 PUSH2 0x3EAA JUMP JUMPDEST JUMPDEST PUSH1 0x20 MUL PUSH1 0x20 ADD ADD MLOAD DUP8 DUP5 DUP2 MLOAD DUP2 LT PUSH2 0x98F JUMPI PUSH2 0x98E PUSH2 0x3EAA JUMP JUMPDEST JUMPDEST PUSH1 0x20 MUL PUSH1 0x20 ADD ADD MLOAD DUP8 DUP6 DUP2 MLOAD DUP2 LT PUSH2 0x9AA JUMPI PUSH2 0x9A9 PUSH2 0x3EAA JUMP JUMPDEST JUMPDEST PUSH1 0x20 MUL PUSH1 0x20 ADD ADD MLOAD DUP8 DUP7 DUP2 MLOAD DUP2 LT PUSH2 0x9C5 JUMPI PUSH2 0x9C4 PUSH2 0x3EAA JUMP JUMPDEST JUMPDEST PUSH1 0x20 MUL PUSH1 0x20 ADD ADD MLOAD PUSH2 0xF80 JUMP JUMPDEST DUP1 PUSH1 0x1 ADD SWAP1 POP PUSH2 0x93B JUMP JUMPDEST POP POP POP POP POP POP POP JUMP JUMPDEST DUP3 PUSH20 0xFFFFFFFFFFFFFFFFFFFFFFFFFFFFFFFFFFFFFFFF AND CALLER PUSH20 0xFFFFFFFFFFFFFFFFFFFFFFFFFFFFFFFFFFFFFFFF AND EQ ISZERO DUP1 ISZERO PUSH2 0xA4E JUMPI POP DUP4 PUSH20 0xFFFFFFFFFFFFFFFFFFFFFFFFFFFFFFFFFFFFFFFF AND CALLER PUSH20 0xFFFFFFFFFFFFFFFFFFFFFFFFFFFFFFFFFFFFFFFF AND EQ ISZERO JUMPDEST ISZERO PUSH2 0xA94 JUMPI CALLER DUP4 DUP6 PUSH1 0x40 MLOAD PUSH32 0x1A525B3200000000000000000000000000000000000000000000000000000000 DUP2 MSTORE PUSH1 0x4 ADD PUSH2 0xA8B SWAP4 SWAP3 SWAP2 SWAP1 PUSH2 0x3ED7 JUMP JUMPDEST PUSH1 0x40 MLOAD DUP1 SWAP2 SUB SWAP1 REVERT JUMPDEST PUSH2 0xAA1 DUP4 DUP6 PUSH0 DUP6 DUP6 PUSH2 0x17C6 JUMP JUMPDEST DUP2 ISZERO PUSH2 0xADA JUMPI PUSH0 DUP4 PUSH0 DUP4 PUSH1 0x40 MLOAD PUSH1 0x20 ADD PUSH2 0xABD SWAP4 SWAP3 SWAP2 SWAP1 PUSH2 0x3F4E JUMP JUMPDEST PUSH1 0x40 MLOAD PUSH1 0x20 DUP2 DUP4 SUB SUB DUP2 MSTORE SWAP1 PUSH1 0x40 MSTORE SWAP1 POP PUSH2 0xAD8 DUP6 DUP3 PUSH2 0x1A8F JUMP JUMPDEST POP JUMPDEST POP POP POP POP JUMP JUMPDEST PUSH0 PUSH1 0x2 PUSH0 SWAP1 SLOAD SWAP1 PUSH2 0x100 EXP SWAP1 DIV PUSH1 0xFF AND PUSH2 0xAFB JUMPI PUSH1 0x12 PUSH2 0xAFD JUMP JUMPDEST PUSH0 JUMPDEST SWAP1 POP SWAP1 JUMP JUMPDEST PUSH1 0x7 PUSH1 0x20 MSTORE DUP1 PUSH0 MSTORE PUSH1 0x40 PUSH0 KECCAK256 PUSH0 SWAP2 POP SWAP1 POP DUP1 PUSH0 ADD PUSH0 SWAP1 SLOAD SWAP1 PUSH2 0x100 EXP SWAP1 DIV PUSH20 0xFFFFFFFFFFFFFFFFFFFFFFFFFFFFFFFFFFFFFFFF AND SWAP1 DUP1 PUSH1 0x1 ADD DUP1 SLOAD PUSH2 0xB46 SWAP1 PUSH2 0x3FB7 JUMP JUMPDEST DUP1 PUSH1 0x1F ADD PUSH1 0x20 DUP1 SWAP2 DIV MUL PUSH1 0x20 ADD PUSH1 0x40 MLOAD SWAP1 DUP2 ADD PUSH1 0x40 MSTORE DUP1 SWAP3 SWAP2 SWAP1 DUP2 DUP2 MSTORE PUSH1 0x20 ADD DUP3 DUP1 SLOAD PUSH2 0xB72 SWAP1 PUSH2 0x3FB7 JUMP JUMPDEST DUP1 ISZERO PUSH2 0xBBD JUMPI DUP1 PUSH1 0x1F LT PUSH2 0xB94 JUMPI PUSH2 0x100 DUP1 DUP4 SLOAD DIV MUL DUP4 MSTORE SWAP2 PUSH1 0x20 ADD SWAP2 PUSH2 0xBBD JUMP JUMPDEST DUP3 ADD SWAP2 SWAP1 PUSH0 MSTORE PUSH1 0x20 PUSH0 KECCAK256 SWAP1 JUMPDEST DUP2 SLOAD DUP2 MSTORE SWAP1 PUSH1 0x1 ADD SWAP1 PUSH1 0x20 ADD DUP1 DUP4 GT PUSH2 0xBA0 JUMPI DUP3 SWAP1 SUB PUSH1 0x1F AND DUP3 ADD SWAP2 JUMPDEST POP POP POP POP POP SWAP1 DUP1 PUSH1 0x2 ADD PUSH0 SWAP1 SLOAD SWAP1 PUSH2 0x100 EXP SWAP1 DIV PUSH4 0xFFFFFFFF AND SWAP1 DUP1 PUSH1 0x2 ADD PUSH1 0x4 SWAP1 SLOAD SWAP1 PUSH2 0x100 EXP SWAP1 DIV PUSH16 0xFFFFFFFFFFFFFFFFFFFFFFFFFFFFFFFF AND SWAP1 DUP1 PUSH1 0x2 ADD PUSH1 0x14 SWAP1 SLOAD SWAP1 PUSH2 0x100 EXP SWAP1 DIV PUSH2 0xFFFF AND SWAP1 DUP1 PUSH1 0x3 ADD DUP1 SLOAD PUSH2 0xC1D SWAP1 PUSH2 0x3FB7 JUMP JUMPDEST DUP1 PUSH1 0x1F ADD PUSH1 0x20 DUP1 SWAP2 DIV MUL PUSH1 0x20 ADD PUSH1 0x40 MLOAD SWAP1 DUP2 ADD PUSH1 0x40 MSTORE DUP1 SWAP3 SWAP2 SWAP1 DUP2 DUP2 MSTORE PUSH1 0x20 ADD DUP3 DUP1 SLOAD PUSH2 0xC49 SWAP1 PUSH2 0x3FB7 JUMP JUMPDEST DUP1 ISZERO PUSH2 0xC94 JUMPI DUP1 PUSH1 0x1F LT PUSH2 0xC6B JUMPI PUSH2 0x100 DUP1 DUP4 SLOAD DIV MUL DUP4 MSTORE SWAP2 PUSH1 0x20 ADD SWAP2 PUSH2 0xC94 JUMP JUMPDEST DUP3 ADD SWAP2 SWAP1 PUSH0 MSTORE PUSH1 0x20 PUSH0 KECCAK256 SWAP1 JUMPDEST DUP2 SLOAD DUP2 MSTORE SWAP1 PUSH1 0x1 ADD SWAP1 PUSH1 0x20 ADD DUP1 DUP4 GT PUSH2 0xC77 JUMPI DUP3 SWAP1 SUB PUSH1 0x1F AND DUP3 ADD SWAP2 JUMPDEST POP POP POP POP POP SWAP1 DUP1 PUSH1 0x4 ADD SLOAD SWAP1 POP DUP8 JUMP JUMPDEST PUSH1 0x60 PUSH2 0xCAF DUP3 PUSH2 0x1AC0 JUMP JUMPDEST SWAP1 POP SWAP2 SWAP1 POP JUMP JUMPDEST PUSH0 DUP3 PUSH20 0xFFFFFFFFFFFFFFFFFFFFFFFFFFFFFFFFFFFFFFFF AND DUP3 PUSH20 0xFFFFFFFFFFFFFFFFFFFFFFFFFFFFFFFFFFFFFFFF AND SUB PUSH2 0xD2F JUMPI PUSH1 0x4 PUSH0 DUP4 PUSH20 0xFFFFFFFFFFFFFFFFFFFFFFFFFFFFFFFFFFFFFFFF AND PUSH20 0xFFFFFFFFFFFFFFFFFFFFFFFFFFFFFFFFFFFFFFFF AND DUP2 MSTORE PUSH1 0x20 ADD SWAP1 DUP2 MSTORE PUSH1 0x20 ADD PUSH0 KECCAK256 SLOAD SWAP1 POP PUSH2 0xDAB JUMP JUMPDEST PUSH1 0x6 PUSH0 DUP4 PUSH20 0xFFFFFFFFFFFFFFFFFFFFFFFFFFFFFFFFFFFFFFFF AND PUSH20 0xFFFFFFFFFFFFFFFFFFFFFFFFFFFFFFFFFFFFFFFF AND DUP2 MSTORE PUSH1 0x20 ADD SWAP1 DUP2 MSTORE PUSH1 0x20 ADD PUSH0 KECCAK256 PUSH0 DUP5 PUSH20 0xFFFFFFFFFFFFFFFFFFFFFFFFFFFFFFFFFFFFFFFF AND PUSH20 0xFFFFFFFFFFFFFFFFFFFFFFFFFFFFFFFFFFFFFFFF AND DUP2 MSTORE PUSH1 0x20 ADD SWAP1 DUP2 MSTORE PUSH1 0x20 ADD PUSH0 KECCAK256 SLOAD SWAP1 POP JUMPDEST SWAP3 SWAP2 POP POP JUMP JUMPDEST PUSH1 0x60 DUP3 DUP3 SWAP1 POP PUSH8 0xFFFFFFFFFFFFFFFF DUP2 GT ISZERO PUSH2 0xDD0 JUMPI PUSH2 0xDCF PUSH2 0x2BD4 JUMP JUMPDEST JUMPDEST PUSH1 0x40 MLOAD SWAP1 DUP1 DUP3 MSTORE DUP1 PUSH1 0x20 MUL PUSH1 0x20 ADD DUP3 ADD PUSH1 0x40 MSTORE DUP1 ISZERO PUSH2 0xE03 JUMPI DUP2 PUSH1 0x20 ADD JUMPDEST PUSH1 0x60 DUP2 MSTORE PUSH1 0x20 ADD SWAP1 PUSH1 0x1 SWAP1 SUB SWAP1 DUP2 PUSH2 0xDEE JUMPI SWAP1 POP JUMPDEST POP SWAP1 POP PUSH0 JUMPDEST DUP4 DUP4 SWAP1 POP DUP2 LT ISZERO PUSH2 0xF20 JUMPI PUSH0 DUP1 ADDRESS PUSH20 0xFFFFFFFFFFFFFFFFFFFFFFFFFFFFFFFFFFFFFFFF AND DUP7 DUP7 DUP6 DUP2 DUP2 LT PUSH2 0xE3F JUMPI PUSH2 0xE3E PUSH2 0x3EAA JUMP JUMPDEST JUMPDEST SWAP1 POP PUSH1 0x20 MUL DUP2 ADD SWAP1 PUSH2 0xE51 SWAP2 SWAP1 PUSH2 0x3FF3 JUMP JUMPDEST PUSH1 0x40 MLOAD PUSH2 0xE5F SWAP3 SWAP2 SWAP1 PUSH2 0x4055 JUMP JUMPDEST PUSH0 PUSH1 0x40 MLOAD DUP1 DUP4 SUB DUP2 DUP6 GAS DELEGATECALL SWAP2 POP POP RETURNDATASIZE DUP1 PUSH0 DUP2 EQ PUSH2 0xE97 JUMPI PUSH1 0x40 MLOAD SWAP2 POP PUSH1 0x1F NOT PUSH1 0x3F RETURNDATASIZE ADD AND DUP3 ADD PUSH1 0x40 MSTORE RETURNDATASIZE DUP3 MSTORE RETURNDATASIZE PUSH0 PUSH1 0x20 DUP5 ADD RETURNDATACOPY PUSH2 0xE9C JUMP JUMPDEST PUSH1 0x60 SWAP2 POP JUMPDEST POP SWAP2 POP SWAP2 POP DUP2 PUSH2 0xEF4 JUMPI PUSH0 DUP2 MLOAD EQ PUSH2 0xEB7 JUMPI DUP1 MLOAD DUP1 DUP3 PUSH1 0x20 ADD REVERT JUMPDEST DUP3 PUSH1 0x40 MLOAD PUSH32 0xB774C28400000000000000000000000000000000000000000000000000000000 DUP2 MSTORE PUSH1 0x4 ADD PUSH2 0xEEB SWAP2 SWAP1 PUSH2 0x2B2F JUMP JUMPDEST PUSH1 0x40 MLOAD DUP1 SWAP2 SUB SWAP1 REVERT JUMPDEST DUP1 DUP5 DUP5 DUP2 MLOAD DUP2 LT PUSH2 0xF08 JUMPI PUSH2 0xF07 PUSH2 0x3EAA JUMP JUMPDEST JUMPDEST PUSH1 0x20 MUL PUSH1 0x20 ADD ADD DUP2 SWAP1 MSTORE POP DUP3 PUSH1 0x1 ADD SWAP3 POP POP POP PUSH2 0xE08 JUMP JUMPDEST POP SWAP3 SWAP2 POP POP JUMP JUMPDEST PUSH0 PUSH1 0x4 PUSH0 DUP4 PUSH20 0xFFFFFFFFFFFFFFFFFFFFFFFFFFFFFFFFFFFFFFFF AND PUSH20 0xFFFFFFFFFFFFFFFFFFFFFFFFFFFFFFFFFFFFFFFF AND DUP2 MSTORE PUSH1 0x20 ADD SWAP1 DUP2 MSTORE PUSH1 0x20 ADD PUSH0 KECCAK256 SLOAD SWAP1 POP SWAP2 SWAP1 POP JUMP JUMPDEST PUSH2 0xF75 PUSH2 0x1B61 JUMP JUMPDEST PUSH2 0xF7E PUSH0 PUSH2 0x1BDF JUMP JUMPDEST JUMP JUMPDEST DUP5 PUSH20 0xFFFFFFFFFFFFFFFFFFFFFFFFFFFFFFFFFFFFFFFF AND CALLER PUSH20 0xFFFFFFFFFFFFFFFFFFFFFFFFFFFFFFFFFFFFFFFF AND EQ PUSH2 0xFBF JUMPI PUSH2 0xFBE CALLER DUP7 DUP6 PUSH2 0x1CA0 JUMP JUMPDEST JUMPDEST PUSH2 0xFCC DUP6 DUP6 DUP6 DUP6 DUP6 PUSH2 0x1D9D JUMP JUMPDEST POP POP POP POP POP JUMP JUMPDEST DUP3 PUSH20 0xFFFFFFFFFFFFFFFFFFFFFFFFFFFFFFFFFFFFFFFF AND CALLER PUSH20 0xFFFFFFFFFFFFFFFFFFFFFFFFFFFFFFFFFFFFFFFF AND EQ ISZERO DUP1 ISZERO PUSH2 0x103B JUMPI POP DUP4 PUSH20 0xFFFFFFFFFFFFFFFFFFFFFFFFFFFFFFFFFFFFFFFF AND CALLER PUSH20 0xFFFFFFFFFFFFFFFFFFFFFFFFFFFFFFFFFFFFFFFF AND EQ ISZERO JUMPDEST ISZERO PUSH2 0x1081 JUMPI CALLER DUP4 DUP6 PUSH1 0x40 MLOAD PUSH32 0x98CE294500000000000000000000000000000000000000000000000000000000 DUP2 MSTORE PUSH1 0x4 ADD PUSH2 0x1078 SWAP4 SWAP3 SWAP2 SWAP1 PUSH2 0x3ED7 JUMP JUMPDEST PUSH1 0x40 MLOAD DUP1 SWAP2 SUB SWAP1 REVERT JUMPDEST PUSH0 PUSH2 0x108C DUP6 DUP6 PUSH2 0xCB6 JUMP JUMPDEST SWAP1 POP DUP3 DUP2 LT ISZERO PUSH2 0x10C8 JUMPI PUSH1 0x40 MLOAD PUSH32 0xEF76C3500000000000000000000000000000000000000000000000000000000 DUP2 MSTORE PUSH1 0x4 ADD PUSH1 0x40 MLOAD DUP1 SWAP2 SUB SWAP1 REVERT JUMPDEST PUSH0 DUP4 DUP3 SUB SWAP1 POP PUSH2 0x10DC DUP6 DUP8 DUP4 PUSH1 0x1 DUP8 PUSH2 0x17C6 JUMP JUMPDEST PUSH0 DUP6 DUP3 DUP6 PUSH1 0x40 MLOAD PUSH1 0x20 ADD PUSH2 0x10F2 SWAP4 SWAP3 SWAP2 SWAP1 PUSH2 0x3E6E JUMP JUMPDEST PUSH1 0x40 MLOAD PUSH1 0x20 DUP2 DUP4 SUB SUB DUP2 MSTORE SWAP1 PUSH1 0x40 MSTORE SWAP1 POP PUSH2 0x110D DUP8 DUP3 PUSH2 0x1A8F JUMP JUMPDEST POP POP POP POP POP POP POP JUMP JUMPDEST PUSH2 0x111E PUSH2 0x1B61 JUMP JUMPDEST PUSH0 CALLVALUE EQ PUSH2 0x1157 JUMPI PUSH1 0x40 MLOAD PUSH32 0xF36BA73700000000000000000000000000000000000000000000000000000000 DUP2 MSTORE PUSH1 0x4 ADD PUSH1 0x40 MLOAD DUP1 SWAP2 SUB SWAP1 REVERT JUMPDEST PUSH2 0x1161 DUP3 DUP3 PUSH2 0x1EA8 JUMP JUMPDEST POP POP JUMP JUMPDEST PUSH0 DUP1 PUSH0 SWAP1 SLOAD SWAP1 PUSH2 0x100 EXP SWAP1 DIV PUSH20 0xFFFFFFFFFFFFFFFFFFFFFFFFFFFFFFFFFFFFFFFF AND SWAP1 POP SWAP1 JUMP JUMPDEST PUSH2 0x1194 PUSH2 0x1B61 JUMP JUMPDEST PUSH0 CALLVALUE EQ PUSH2 0x11CD JUMPI PUSH1 0x40 MLOAD PUSH32 0xF36BA73700000000000000000000000000000000000000000000000000000000 DUP2 MSTORE PUSH1 0x4 ADD PUSH1 0x40 MLOAD DUP1 SWAP2 SUB SWAP1 REVERT JUMPDEST PUSH2 0x11D7 DUP3 DUP3 PUSH2 0x2014 JUMP JUMPDEST POP POP JUMP JUMPDEST PUSH1 0x8 SLOAD DUP2 JUMP JUMPDEST PUSH2 0x11EF CALLER DUP5 DUP5 PUSH1 0x1 DUP6 PUSH2 0x17C6 JUMP JUMPDEST PUSH0 CALLER DUP4 DUP4 PUSH1 0x40 MLOAD PUSH1 0x20 ADD PUSH2 0x1205 SWAP4 SWAP3 SWAP2 SWAP1 PUSH2 0x3E6E JUMP JUMPDEST PUSH1 0x40 MLOAD PUSH1 0x20 DUP2 DUP4 SUB SUB DUP2 MSTORE SWAP1 PUSH1 0x40 MSTORE SWAP1 POP PUSH2 0x1220 DUP5 DUP3 PUSH2 0x1A8F JUMP JUMPDEST POP POP POP POP JUMP JUMPDEST PUSH1 0x60 PUSH2 0x126D PUSH1 0x5 PUSH0 DUP5 PUSH20 0xFFFFFFFFFFFFFFFFFFFFFFFFFFFFFFFFFFFFFFFF AND PUSH20 0xFFFFFFFFFFFFFFFFFFFFFFFFFFFFFFFFFFFFFFFF AND DUP2 MSTORE PUSH1 0x20 ADD SWAP1 DUP2 MSTORE PUSH1 0x20 ADD PUSH0 KECCAK256 PUSH2 0x20E2 JUMP JUMPDEST SWAP1 POP SWAP2 SWAP1 POP JUMP JUMPDEST PUSH1 0x60 DUP2 MLOAD PUSH8 0xFFFFFFFFFFFFFFFF DUP2 GT ISZERO PUSH2 0x1291 JUMPI PUSH2 0x1290 PUSH2 0x2BD4 JUMP JUMPDEST JUMPDEST PUSH1 0x40 MLOAD SWAP1 DUP1 DUP3 MSTORE DUP1 PUSH1 0x20 MUL PUSH1 0x20 ADD DUP3 ADD PUSH1 0x40 MSTORE DUP1 ISZERO PUSH2 0x12C4 JUMPI DUP2 PUSH1 0x20 ADD JUMPDEST PUSH1 0x60 DUP2 MSTORE PUSH1 0x20 ADD SWAP1 PUSH1 0x1 SWAP1 SUB SWAP1 DUP2 PUSH2 0x12AF JUMPI SWAP1 POP JUMPDEST POP SWAP1 POP PUSH0 JUMPDEST DUP3 MLOAD DUP2 LT ISZERO PUSH2 0x131E JUMPI PUSH2 0x12F5 DUP4 DUP3 DUP2 MLOAD DUP2 LT PUSH2 0x12E8 JUMPI PUSH2 0x12E7 PUSH2 0x3EAA JUMP JUMPDEST JUMPDEST PUSH1 0x20 MUL PUSH1 0x20 ADD ADD MLOAD PUSH2 0x1AC0 JUMP JUMPDEST DUP3 DUP3 DUP2 MLOAD DUP2 LT PUSH2 0x1308 JUMPI PUSH2 0x1307 PUSH2 0x3EAA JUMP JUMPDEST JUMPDEST PUSH1 0x20 MUL PUSH1 0x20 ADD ADD DUP2 SWAP1 MSTORE POP DUP1 PUSH1 0x1 ADD SWAP1 POP PUSH2 0x12C9 JUMP JUMPDEST POP SWAP2 SWAP1 POP JUMP JUMPDEST PUSH2 0x132C PUSH2 0x1B61 JUMP JUMPDEST PUSH0 PUSH20 0xFFFFFFFFFFFFFFFFFFFFFFFFFFFFFFFFFFFFFFFF AND DUP2 PUSH20 0xFFFFFFFFFFFFFFFFFFFFFFFFFFFFFFFFFFFFFFFF AND SUB PUSH2 0x139A JUMPI PUSH1 0x40 MLOAD PUSH32 0x8C379A000000000000000000000000000000000000000000000000000000000 DUP2 MSTORE PUSH1 0x4 ADD PUSH2 0x1391 SWAP1 PUSH2 0x40DD JUMP JUMPDEST PUSH1 0x40 MLOAD DUP1 SWAP2 SUB SWAP1 REVERT JUMPDEST PUSH2 0x13A3 DUP2 PUSH2 0x1BDF JUMP JUMPDEST POP JUMP JUMPDEST PUSH0 PUSH20 0xFFFFFFFFFFFFFFFFFFFFFFFFFFFFFFFFFFFFFFFF AND DUP8 PUSH20 0xFFFFFFFFFFFFFFFFFFFFFFFFFFFFFFFFFFFFFFFF AND SUB PUSH2 0x1414 JUMPI PUSH1 0x40 MLOAD PUSH32 0x8C379A000000000000000000000000000000000000000000000000000000000 DUP2 MSTORE PUSH1 0x4 ADD PUSH2 0x140B SWAP1 PUSH2 0x4145 JUMP JUMPDEST PUSH1 0x40 MLOAD DUP1 SWAP2 SUB SWAP1 REVERT JUMPDEST PUSH0 PUSH1 0x8 PUSH0 DUP2 SLOAD PUSH2 0x1423 SWAP1 PUSH2 0x4163 JUMP JUMPDEST SWAP2 SWAP1 POP DUP2 SWAP1 SSTORE SWAP1 POP PUSH1 0x40 MLOAD DUP1 PUSH1 0xE0 ADD PUSH1 0x40 MSTORE DUP1 DUP10 PUSH20 0xFFFFFFFFFFFFFFFFFFFFFFFFFFFFFFFFFFFFFFFF AND DUP2 MSTORE PUSH1 0x20 ADD DUP9 DUP2 MSTORE PUSH1 0x20 ADD DUP8 PUSH4 0xFFFFFFFF AND DUP2 MSTORE PUSH1 0x20 ADD DUP7 PUSH16 0xFFFFFFFFFFFFFFFFFFFFFFFFFFFFFFFF AND DUP2 MSTORE PUSH1 0x20 ADD DUP6 PUSH2 0xFFFF AND DUP2 MSTORE PUSH1 0x20 ADD DUP5 DUP5 DUP1 DUP1 PUSH1 0x1F ADD PUSH1 0x20 DUP1 SWAP2 DIV MUL PUSH1 0x20 ADD PUSH1 0x40 MLOAD SWAP1 DUP2 ADD PUSH1 0x40 MSTORE DUP1 SWAP4 SWAP3 SWAP2 SWAP1 DUP2 DUP2 MSTORE PUSH1 0x20 ADD DUP4 DUP4 DUP1 DUP3 DUP5 CALLDATACOPY PUSH0 DUP2 DUP5 ADD MSTORE PUSH1 0x1F NOT PUSH1 0x1F DUP3 ADD AND SWAP1 POP DUP1 DUP4 ADD SWAP3 POP POP POP POP POP POP POP DUP2 MSTORE PUSH1 0x20 ADD TIMESTAMP DUP2 MSTORE POP PUSH1 0x7 PUSH0 DUP4 DUP2 MSTORE PUSH1 0x20 ADD SWAP1 DUP2 MSTORE PUSH1 0x20 ADD PUSH0 KECCAK256 PUSH0 DUP3 ADD MLOAD DUP2 PUSH0 ADD PUSH0 PUSH2 0x100 EXP DUP2 SLOAD DUP2 PUSH20 0xFFFFFFFFFFFFFFFFFFFFFFFFFFFFFFFFFFFFFFFF MUL NOT AND SWAP1 DUP4 PUSH20 0xFFFFFFFFFFFFFFFFFFFFFFFFFFFFFFFFFFFFFFFF AND MUL OR SWAP1 SSTORE POP PUSH1 0x20 DUP3 ADD MLOAD DUP2 PUSH1 0x1 ADD SWAP1 DUP2 PUSH2 0x153D SWAP2 SWAP1 PUSH2 0x433E JUMP JUMPDEST POP PUSH1 0x40 DUP3 ADD MLOAD DUP2 PUSH1 0x2 ADD PUSH0 PUSH2 0x100 EXP DUP2 SLOAD DUP2 PUSH4 0xFFFFFFFF MUL NOT AND SWAP1 DUP4 PUSH4 0xFFFFFFFF AND MUL OR SWAP1 SSTORE POP PUSH1 0x60 DUP3 ADD MLOAD DUP2 PUSH1 0x2 ADD PUSH1 0x4 PUSH2 0x100 EXP DUP2 SLOAD DUP2 PUSH16 0xFFFFFFFFFFFFFFFFFFFFFFFFFFFFFFFF MUL NOT AND SWAP1 DUP4 PUSH16 0xFFFFFFFFFFFFFFFFFFFFFFFFFFFFFFFF AND MUL OR SWAP1 SSTORE POP PUSH1 0x80 DUP3 ADD MLOAD DUP2 PUSH1 0x2 ADD PUSH1 0x14 PUSH2 0x100 EXP DUP2 SLOAD DUP2 PUSH2 0xFFFF MUL NOT AND SWAP1 DUP4 PUSH2 0xFFFF AND MUL OR SWAP1 SSTORE POP PUSH1 0xA0 DUP3 ADD MLOAD DUP2 PUSH1 0x3 ADD SWAP1 DUP2 PUSH2 0x15DB SWAP2 SWAP1 PUSH2 0x4465 JUMP JUMPDEST POP PUSH1 0xC0 DUP3 ADD MLOAD DUP2 PUSH1 0x4 ADD SSTORE SWAP1 POP POP DUP8 PUSH20 0xFFFFFFFFFFFFFFFFFFFFFFFFFFFFFFFFFFFFFFFF AND DUP2 PUSH32 0x772D68921CC379D545A730FC0A411269FE42CBE08A01093077746CFFE5DC319C DUP10 DUP10 DUP10 DUP10 DUP10 DUP10 PUSH1 0x40 MLOAD PUSH2 0x163A SWAP7 SWAP6 SWAP5 SWAP4 SWAP3 SWAP2 SWAP1 PUSH2 0x4534 JUMP JUMPDEST PUSH1 0x40 MLOAD DUP1 SWAP2 SUB SWAP1 LOG3 POP POP POP POP POP POP POP POP JUMP JUMPDEST PUSH0 DUP1 PUSH0 PUSH2 0x1685 PUSH10 0xCEE78B4094DA86011096 PUSH1 0xB0 SHL DUP6 PUSH28 0xFFFFFFFFFFFFFFFFFFFFFFFFFFFFFFFFFFFFFFFFFFFFFFFFFFFFFFFF NOT AND PUSH2 0x2101 JUMP JUMPDEST SWAP1 POP PUSH0 PUSH2 0x1691 DUP3 PUSH2 0x1AC0 JUMP JUMPDEST SWAP1 POP PUSH1 0x14 DUP2 MLOAD EQ ISZERO DUP1 ISZERO PUSH2 0x16A6 JUMPI POP PUSH0 DUP2 MLOAD EQ ISZERO JUMPDEST ISZERO PUSH2 0x16E8 JUMPI DUP1 PUSH1 0x40 MLOAD PUSH32 0x42BFE79F00000000000000000000000000000000000000000000000000000000 DUP2 MSTORE PUSH1 0x4 ADD PUSH2 0x16DF SWAP2 SWAP1 PUSH2 0x3472 JUMP JUMPDEST PUSH1 0x40 MLOAD DUP1 SWAP2 SUB SWAP1 REVERT JUMPDEST DUP1 PUSH2 0x16F2 SWAP1 PUSH2 0x45E3 JUMP JUMPDEST PUSH1 0x60 SHR PUSH1 0x1 SWAP4 POP SWAP4 POP POP POP SWAP2 POP SWAP2 JUMP JUMPDEST PUSH0 PUSH4 0xA918FA6B PUSH1 0xE0 SHL PUSH28 0xFFFFFFFFFFFFFFFFFFFFFFFFFFFFFFFFFFFFFFFFFFFFFFFFFFFFFFFF NOT AND DUP3 PUSH28 0xFFFFFFFFFFFFFFFFFFFFFFFFFFFFFFFFFFFFFFFFFFFFFFFFFFFFFFFF NOT AND EQ DUP1 PUSH2 0x175B JUMPI POP PUSH2 0x175A DUP3 PUSH2 0x213F JUMP JUMPDEST JUMPDEST SWAP1 POP SWAP2 SWAP1 POP JUMP JUMPDEST PUSH0 DUP1 PUSH2 0x1774 PUSH4 0x1FFC9A7 PUSH1 0xE0 SHL PUSH2 0x164C JUMP JUMPDEST POP SWAP1 POP PUSH0 PUSH20 0xFFFFFFFFFFFFFFFFFFFFFFFFFFFFFFFFFFFFFFFF AND DUP2 PUSH20 0xFFFFFFFFFFFFFFFFFFFFFFFFFFFFFFFFFFFFFFFF AND SUB PUSH2 0x17B3 JUMPI PUSH0 SWAP2 POP POP PUSH2 0x17C1 JUMP JUMPDEST PUSH2 0x17BD DUP2 DUP5 PUSH2 0x2208 JUMP JUMPDEST SWAP2 POP POP JUMPDEST SWAP2 SWAP1 POP JUMP JUMPDEST PUSH0 PUSH20 0xFFFFFFFFFFFFFFFFFFFFFFFFFFFFFFFFFFFFFFFF AND DUP5 PUSH20 0xFFFFFFFFFFFFFFFFFFFFFFFFFFFFFFFFFFFFFFFF AND SUB PUSH2 0x182B JUMPI PUSH1 0x40 MLOAD PUSH32 0x6355E76600000000000000000000000000000000000000000000000000000000 DUP2 MSTORE PUSH1 0x4 ADD PUSH1 0x40 MLOAD DUP1 SWAP2 SUB SWAP1 REVERT JUMPDEST DUP5 PUSH20 0xFFFFFFFFFFFFFFFFFFFFFFFFFFFFFFFFFFFFFFFF AND DUP5 PUSH20 0xFFFFFFFFFFFFFFFFFFFFFFFFFFFFFFFFFFFFFFFF AND SUB PUSH2 0x1890 JUMPI PUSH1 0x40 MLOAD PUSH32 0xDAB7504700000000000000000000000000000000000000000000000000000000 DUP2 MSTORE PUSH1 0x4 ADD PUSH1 0x40 MLOAD DUP1 SWAP2 SUB SWAP1 REVERT JUMPDEST DUP3 PUSH1 0x6 PUSH0 DUP8 PUSH20 0xFFFFFFFFFFFFFFFFFFFFFFFFFFFFFFFFFFFFFFFF AND PUSH20 0xFFFFFFFFFFFFFFFFFFFFFFFFFFFFFFFFFFFFFFFF AND DUP2 MSTORE PUSH1 0x20 ADD SWAP1 DUP2 MSTORE PUSH1 0x20 ADD PUSH0 KECCAK256 PUSH0 DUP7 PUSH20 0xFFFFFFFFFFFFFFFFFFFFFFFFFFFFFFFFFFFFFFFF AND PUSH20 0xFFFFFFFFFFFFFFFFFFFFFFFFFFFFFFFFFFFFFFFF AND DUP2 MSTORE PUSH1 0x20 ADD SWAP1 DUP2 MSTORE PUSH1 0x20 ADD PUSH0 KECCAK256 DUP2 SWAP1 SSTORE POP PUSH0 DUP4 EQ PUSH2 0x19CF JUMPI PUSH2 0x1963 DUP5 PUSH1 0x5 PUSH0 DUP9 PUSH20 0xFFFFFFFFFFFFFFFFFFFFFFFFFFFFFFFFFFFFFFFF AND PUSH20 0xFFFFFFFFFFFFFFFFFFFFFFFFFFFFFFFFFFFFFFFF AND DUP2 MSTORE PUSH1 0x20 ADD SWAP1 DUP2 MSTORE PUSH1 0x20 ADD PUSH0 KECCAK256 PUSH2 0x22C1 SWAP1 SWAP2 SWAP1 PUSH4 0xFFFFFFFF AND JUMP JUMPDEST POP DUP3 DUP6 PUSH20 0xFFFFFFFFFFFFFFFFFFFFFFFFFFFFFFFFFFFFFFFF AND DUP6 PUSH20 0xFFFFFFFFFFFFFFFFFFFFFFFFFFFFFFFFFFFFFFFF AND PUSH32 0xF772A43BFDF4729B196E3FB54A818B91A2CA6C49D10B2E16278752F9F515C25D DUP5 PUSH1 0x40 MLOAD PUSH2 0x19C2 SWAP2 SWAP1 PUSH2 0x3472 JUMP JUMPDEST PUSH1 0x40 MLOAD DUP1 SWAP2 SUB SWAP1 LOG4 PUSH2 0x1A88 JUMP JUMPDEST PUSH2 0x1A1E DUP5 PUSH1 0x5 PUSH0 DUP9 PUSH20 0xFFFFFFFFFFFFFFFFFFFFFFFFFFFFFFFFFFFFFFFF AND PUSH20 0xFFFFFFFFFFFFFFFFFFFFFFFFFFFFFFFFFFFFFFFF AND DUP2 MSTORE PUSH1 0x20 ADD SWAP1 DUP2 MSTORE PUSH1 0x20 ADD PUSH0 KECCAK256 PUSH2 0x22EE SWAP1 SWAP2 SWAP1 PUSH4 0xFFFFFFFF AND JUMP JUMPDEST POP DUP2 ISZERO ISZERO DUP6 PUSH20 0xFFFFFFFFFFFFFFFFFFFFFFFFFFFFFFFFFFFFFFFF AND DUP6 PUSH20 0xFFFFFFFFFFFFFFFFFFFFFFFFFFFFFFFFFFFFFFFF AND PUSH32 0xEBF5762D8855CBE012D2CA42FB33A81175E17C8A8751F8859931BA453BD4167 DUP5 PUSH1 0x40 MLOAD PUSH2 0x1A7F SWAP2 SWAP1 PUSH2 0x3472 JUMP JUMPDEST PUSH1 0x40 MLOAD DUP1 SWAP2 SUB SWAP1 LOG4 JUMPDEST POP POP POP POP POP JUMP JUMPDEST PUSH2 0x1ABC DUP3 PUSH32 0x386072CC5A58E61263B434C722725F21031CD06E7C552CFAA06DB5DE8A320DBC PUSH0 SHL DUP4 PUSH2 0x231B JUMP JUMPDEST POP POP JUMP JUMPDEST PUSH1 0x60 PUSH1 0x1 PUSH0 DUP4 DUP2 MSTORE PUSH1 0x20 ADD SWAP1 DUP2 MSTORE PUSH1 0x20 ADD PUSH0 KECCAK256 DUP1 SLOAD PUSH2 0x1ADE SWAP1 PUSH2 0x3FB7 JUMP JUMPDEST DUP1 PUSH1 0x1F ADD PUSH1 0x20 DUP1 SWAP2 DIV MUL PUSH1 0x20 ADD PUSH1 0x40 MLOAD SWAP1 DUP2 ADD PUSH1 0x40 MSTORE DUP1 SWAP3 SWAP2 SWAP1 DUP2 DUP2 MSTORE PUSH1 0x20 ADD DUP3 DUP1 SLOAD PUSH2 0x1B0A SWAP1 PUSH2 0x3FB7 JUMP JUMPDEST DUP1 ISZERO PUSH2 0x1B55 JUMPI DUP1 PUSH1 0x1F LT PUSH2 0x1B2C JUMPI PUSH2 0x100 DUP1 DUP4 SLOAD DIV MUL DUP4 MSTORE SWAP2 PUSH1 0x20 ADD SWAP2 PUSH2 0x1B55 JUMP JUMPDEST DUP3 ADD SWAP2 SWAP1 PUSH0 MSTORE PUSH1 0x20 PUSH0 KECCAK256 SWAP1 JUMPDEST DUP2 SLOAD DUP2 MSTORE SWAP1 PUSH1 0x1 ADD SWAP1 PUSH1 0x20 ADD DUP1 DUP4 GT PUSH2 0x1B38 JUMPI DUP3 SWAP1 SUB PUSH1 0x1F AND DUP3 ADD SWAP2 JUMPDEST POP POP POP POP POP SWAP1 POP SWAP2 SWAP1 POP JUMP JUMPDEST PUSH2 0x1B69 PUSH2 0x23D5 JUMP JUMPDEST PUSH20 0xFFFFFFFFFFFFFFFFFFFFFFFFFFFFFFFFFFFFFFFF AND PUSH2 0x1B87 PUSH2 0x1165 JUMP JUMPDEST PUSH20 0xFFFFFFFFFFFFFFFFFFFFFFFFFFFFFFFFFFFFFFFF AND EQ PUSH2 0x1BDD JUMPI PUSH1 0x40 MLOAD PUSH32 0x8C379A000000000000000000000000000000000000000000000000000000000 DUP2 MSTORE PUSH1 0x4 ADD PUSH2 0x1BD4 SWAP1 PUSH2 0x4693 JUMP JUMPDEST PUSH1 0x40 MLOAD DUP1 SWAP2 SUB SWAP1 REVERT JUMPDEST JUMP JUMPDEST PUSH0 DUP1 PUSH0 SWAP1 SLOAD SWAP1 PUSH2 0x100 EXP SWAP1 DIV PUSH20 0xFFFFFFFFFFFFFFFFFFFFFFFFFFFFFFFFFFFFFFFF AND SWAP1 POP DUP2 PUSH0 DUP1 PUSH2 0x100 EXP DUP2 SLOAD DUP2 PUSH20 0xFFFFFFFFFFFFFFFFFFFFFFFFFFFFFFFFFFFFFFFF MUL NOT AND SWAP1 DUP4 PUSH20 0xFFFFFFFFFFFFFFFFFFFFFFFFFFFFFFFFFFFFFFFF AND MUL OR SWAP1 SSTORE POP DUP2 PUSH20 0xFFFFFFFFFFFFFFFFFFFFFFFFFFFFFFFFFFFFFFFF AND DUP2 PUSH20 0xFFFFFFFFFFFFFFFFFFFFFFFFFFFFFFFFFFFFFFFF AND PUSH32 0x8BE0079C531659141344CD1FD0A4F28419497F9722A3DAAFE3B4186F6B6457E0 PUSH1 0x40 MLOAD PUSH1 0x40 MLOAD DUP1 SWAP2 SUB SWAP1 LOG3 POP POP JUMP JUMPDEST PUSH0 PUSH1 0x6 PUSH0 DUP5 PUSH20 0xFFFFFFFFFFFFFFFFFFFFFFFFFFFFFFFFFFFFFFFF AND PUSH20 0xFFFFFFFFFFFFFFFFFFFFFFFFFFFFFFFFFFFFFFFF AND DUP2 MSTORE PUSH1 0x20 ADD SWAP1 DUP2 MSTORE PUSH1 0x20 ADD PUSH0 KECCAK256 PUSH0 DUP6 PUSH20 0xFFFFFFFFFFFFFFFFFFFFFFFFFFFFFFFFFFFFFFFF AND PUSH20 0xFFFFFFFFFFFFFFFFFFFFFFFFFFFFFFFFFFFFFFFF AND DUP2 MSTORE PUSH1 0x20 ADD SWAP1 DUP2 MSTORE PUSH1 0x20 ADD PUSH0 KECCAK256 SLOAD SWAP1 POP PUSH0 DUP2 EQ DUP1 PUSH2 0x1D29 JUMPI POP DUP1 DUP3 GT JUMPDEST ISZERO PUSH2 0x1D71 JUMPI DUP3 DUP2 DUP6 DUP5 PUSH1 0x40 MLOAD PUSH32 0xF3A6B69100000000000000000000000000000000000000000000000000000000 DUP2 MSTORE PUSH1 0x4 ADD PUSH2 0x1D68 SWAP5 SWAP4 SWAP3 SWAP2 SWAP1 PUSH2 0x46B1 JUMP JUMPDEST PUSH1 0x40 MLOAD DUP1 SWAP2 SUB SWAP1 REVERT JUMPDEST PUSH2 0x1D97 DUP4 DUP6 DUP5 DUP5 PUSH2 0x1D82 SWAP2 SWAP1 PUSH2 0x46F4 JUMP JUMPDEST PUSH0 PUSH1 0x40 MLOAD DUP1 PUSH1 0x20 ADD PUSH1 0x40 MSTORE DUP1 PUSH0 DUP2 MSTORE POP PUSH2 0x17C6 JUMP JUMPDEST POP POP POP POP JUMP JUMPDEST PUSH0 PUSH20 0xFFFFFFFFFFFFFFFFFFFFFFFFFFFFFFFFFFFFFFFF AND DUP6 PUSH20 0xFFFFFFFFFFFFFFFFFFFFFFFFFFFFFFFFFFFFFFFF AND EQ DUP1 PUSH2 0x1E02 JUMPI POP PUSH0 PUSH20 0xFFFFFFFFFFFFFFFFFFFFFFFFFFFFFFFFFFFFFFFF AND DUP5 PUSH20 0xFFFFFFFFFFFFFFFFFFFFFFFFFFFFFFFFFFFFFFFF AND EQ JUMPDEST ISZERO PUSH2 0x1E39 JUMPI PUSH1 0x40 MLOAD PUSH32 0xD2D5EC3000000000000000000000000000000000000000000000000000000000 DUP2 MSTORE PUSH1 0x4 ADD PUSH1 0x40 MLOAD DUP1 SWAP2 SUB SWAP1 REVERT JUMPDEST PUSH2 0x1E46 DUP6 DUP6 DUP6 DUP6 DUP6 PUSH2 0x23DC JUMP JUMPDEST PUSH2 0x1E53 DUP6 DUP6 DUP6 DUP6 DUP6 PUSH2 0x23E3 JUMP JUMPDEST PUSH2 0x1E60 DUP6 DUP6 DUP6 DUP6 DUP6 PUSH2 0x261C JUMP JUMPDEST PUSH0 CALLER DUP7 DUP7 DUP7 DUP6 PUSH1 0x40 MLOAD PUSH1 0x20 ADD PUSH2 0x1E7A SWAP6 SWAP5 SWAP4 SWAP3 SWAP2 SWAP1 PUSH2 0x4727 JUMP JUMPDEST PUSH1 0x40 MLOAD PUSH1 0x20 DUP2 DUP4 SUB SUB DUP2 MSTORE SWAP1 PUSH1 0x40 MSTORE SWAP1 POP PUSH2 0x1E95 DUP7 DUP3 PUSH2 0x2623 JUMP JUMPDEST PUSH2 0x1EA0 DUP6 DUP5 DUP4 PUSH2 0x2654 JUMP JUMPDEST POP POP POP POP POP POP JUMP JUMPDEST PUSH32 0xDEBA1E292F8BA88238E10AB3C7F88BD4BE4FAC56CAD5194B6ECCEAF653468AF1 PUSH0 SHL DUP3 SUB PUSH2 0x1F03 JUMPI PUSH1 0x40 MLOAD PUSH32 0x85C169BD00000000000000000000000000000000000000000000000000000000 DUP2 MSTORE PUSH1 0x4 ADD PUSH1 0x40 MLOAD DUP1 SWAP2 SUB SWAP1 REVERT JUMPDEST PUSH32 0x2F0A68AB07768E01943A599E73362A0E17A63A72E94DD2E384D2C1D4DB932756 PUSH0 SHL DUP3 SUB PUSH2 0x1F5E JUMPI PUSH1 0x40 MLOAD PUSH32 0x76755B3800000000000000000000000000000000000000000000000000000000 DUP2 MSTORE PUSH1 0x4 ADD PUSH1 0x40 MLOAD DUP1 SWAP2 SUB SWAP1 REVERT JUMPDEST PUSH32 0xE0261FA95DB2EB3B5439BD033CDA66D56B96F92F243A8228FD87550ED7BDFDB3 PUSH0 SHL DUP3 SUB PUSH2 0x1FB9 JUMPI PUSH1 0x40 MLOAD PUSH32 0x4EF6D7FB00000000000000000000000000000000000000000000000000000000 DUP2 MSTORE PUSH1 0x4 ADD PUSH1 0x40 MLOAD DUP1 SWAP2 SUB SWAP1 REVERT JUMPDEST DUP1 PUSH1 0x1 PUSH0 DUP5 DUP2 MSTORE PUSH1 0x20 ADD SWAP1 DUP2 MSTORE PUSH1 0x20 ADD PUSH0 KECCAK256 SWAP1 DUP2 PUSH2 0x1FD7 SWAP2 SWAP1 PUSH2 0x4465 JUMP JUMPDEST POP DUP2 PUSH32 0xECE574603820D07BC9B91F2A932BAADF4628AABCB8AFBA49776529C14A6104B2 DUP3 PUSH1 0x40 MLOAD PUSH2 0x2008 SWAP2 SWAP1 PUSH2 0x3472 JUMP JUMPDEST PUSH1 0x40 MLOAD DUP1 SWAP2 SUB SWAP1 LOG2 POP POP JUMP JUMPDEST DUP1 MLOAD DUP3 MLOAD EQ PUSH2 0x204F JUMPI PUSH1 0x40 MLOAD PUSH32 0x3BCC897900000000000000000000000000000000000000000000000000000000 DUP2 MSTORE PUSH1 0x4 ADD PUSH1 0x40 MLOAD DUP1 SWAP2 SUB SWAP1 REVERT JUMPDEST PUSH0 DUP3 MLOAD SUB PUSH2 0x2089 JUMPI PUSH1 0x40 MLOAD PUSH32 0x97DA5F9500000000000000000000000000000000000000000000000000000000 DUP2 MSTORE PUSH1 0x4 ADD PUSH1 0x40 MLOAD DUP1 SWAP2 SUB SWAP1 REVERT JUMPDEST PUSH0 JUMPDEST DUP3 MLOAD DUP2 LT ISZERO PUSH2 0x20DD JUMPI PUSH2 0x20D2 DUP4 DUP3 DUP2 MLOAD DUP2 LT PUSH2 0x20AA JUMPI PUSH2 0x20A9 PUSH2 0x3EAA JUMP JUMPDEST JUMPDEST PUSH1 0x20 MUL PUSH1 0x20 ADD ADD MLOAD DUP4 DUP4 DUP2 MLOAD DUP2 LT PUSH2 0x20C5 JUMPI PUSH2 0x20C4 PUSH2 0x3EAA JUMP JUMPDEST JUMPDEST PUSH1 0x20 MUL PUSH1 0x20 ADD ADD MLOAD PUSH2 0x1EA8 JUMP JUMPDEST DUP1 PUSH1 0x1 ADD SWAP1 POP PUSH2 0x208B JUMP JUMPDEST POP POP POP JUMP JUMPDEST PUSH1 0x60 PUSH0 PUSH2 0x20F0 DUP4 PUSH0 ADD PUSH2 0x27B3 JUMP JUMPDEST SWAP1 POP PUSH1 0x60 DUP2 SWAP1 POP DUP1 SWAP3 POP POP POP SWAP2 SWAP1 POP JUMP JUMPDEST PUSH0 DUP1 DUP4 PUSH0 PUSH1 0xF0 SHL DUP5 PUSH1 0x40 MLOAD PUSH1 0x20 ADD PUSH2 0x211B SWAP4 SWAP3 SWAP2 SWAP1 PUSH2 0x4835 JUMP JUMPDEST PUSH1 0x40 MLOAD PUSH1 0x20 DUP2 DUP4 SUB SUB DUP2 MSTORE SWAP1 PUSH1 0x40 MSTORE SWAP1 POP DUP1 PUSH2 0x2136 SWAP1 PUSH2 0x4885 JUMP JUMPDEST SWAP2 POP POP SWAP3 SWAP2 POP POP JUMP JUMPDEST PUSH0 PUSH4 0x629AA694 PUSH1 0xE0 SHL PUSH28 0xFFFFFFFFFFFFFFFFFFFFFFFFFFFFFFFFFFFFFFFFFFFFFFFFFFFFFFFF NOT AND DUP3 PUSH28 0xFFFFFFFFFFFFFFFFFFFFFFFFFFFFFFFFFFFFFFFFFFFFFFFFFFFFFFFF NOT AND EQ DUP1 PUSH2 0x2198 JUMPI POP PUSH2 0x2197 DUP3 PUSH2 0x219F JUMP JUMPDEST JUMPDEST SWAP1 POP SWAP2 SWAP1 POP JUMP JUMPDEST PUSH0 PUSH32 0x1FFC9A700000000000000000000000000000000000000000000000000000000 PUSH28 0xFFFFFFFFFFFFFFFFFFFFFFFFFFFFFFFFFFFFFFFFFFFFFFFFFFFFFFFF NOT AND DUP3 PUSH28 0xFFFFFFFFFFFFFFFFFFFFFFFFFFFFFFFFFFFFFFFFFFFFFFFFFFFFFFFF NOT AND EQ SWAP1 POP SWAP2 SWAP1 POP JUMP JUMPDEST PUSH0 DUP1 PUSH4 0x1FFC9A7 PUSH1 0xE0 SHL DUP4 PUSH1 0x40 MLOAD PUSH1 0x24 ADD PUSH2 0x2223 SWAP2 SWAP1 PUSH2 0x3CE2 JUMP JUMPDEST PUSH1 0x40 MLOAD PUSH1 0x20 DUP2 DUP4 SUB SUB DUP2 MSTORE SWAP1 PUSH1 0x40 MSTORE SWAP1 PUSH28 0xFFFFFFFFFFFFFFFFFFFFFFFFFFFFFFFFFFFFFFFFFFFFFFFFFFFFFFFF NOT AND PUSH1 0x20 DUP3 ADD DUP1 MLOAD PUSH28 0xFFFFFFFFFFFFFFFFFFFFFFFFFFFFFFFFFFFFFFFFFFFFFFFFFFFFFFFF DUP4 DUP2 DUP4 AND OR DUP4 MSTORE POP POP POP POP SWAP1 POP PUSH0 DUP1 PUSH0 PUSH1 0x20 PUSH0 DUP6 MLOAD PUSH1 0x20 DUP8 ADD DUP11 PUSH2 0x7530 STATICCALL SWAP3 POP RETURNDATASIZE SWAP2 POP PUSH0 MLOAD SWAP1 POP DUP3 DUP1 ISZERO PUSH2 0x22AA JUMPI POP PUSH1 0x20 DUP3 LT ISZERO JUMPDEST DUP1 ISZERO PUSH2 0x22B5 JUMPI POP PUSH0 DUP2 GT JUMPDEST SWAP5 POP POP POP POP POP SWAP3 SWAP2 POP POP JUMP JUMPDEST PUSH0 PUSH2 0x22E6 DUP4 PUSH0 ADD DUP4 PUSH20 0xFFFFFFFFFFFFFFFFFFFFFFFFFFFFFFFFFFFFFFFF AND PUSH0 SHL PUSH2 0x280C JUMP JUMPDEST SWAP1 POP SWAP3 SWAP2 POP POP JUMP JUMPDEST PUSH0 PUSH2 0x2313 DUP4 PUSH0 ADD DUP4 PUSH20 0xFFFFFFFFFFFFFFFFFFFFFFFFFFFFFFFFFFFFFFFF AND PUSH0 SHL PUSH2 0x2873 JUMP JUMPDEST SWAP1 POP SWAP3 SWAP2 POP POP JUMP JUMPDEST PUSH2 0x234B PUSH4 0x6BB56A14 PUSH1 0xE0 SHL DUP5 PUSH20 0xFFFFFFFFFFFFFFFFFFFFFFFFFFFFFFFFFFFFFFFF AND PUSH2 0x2208 SWAP1 SWAP2 SWAP1 PUSH4 0xFFFFFFFF AND JUMP JUMPDEST ISZERO PUSH2 0x23D0 JUMPI DUP3 PUSH20 0xFFFFFFFFFFFFFFFFFFFFFFFFFFFFFFFFFFFFFFFF AND PUSH4 0x6BB56A14 DUP4 DUP4 PUSH1 0x40 MLOAD DUP4 PUSH4 0xFFFFFFFF AND PUSH1 0xE0 SHL DUP2 MSTORE PUSH1 0x4 ADD PUSH2 0x238B SWAP3 SWAP2 SWAP1 PUSH2 0x48FA JUMP JUMPDEST PUSH0 PUSH1 0x40 MLOAD DUP1 DUP4 SUB DUP2 PUSH0 DUP8 GAS CALL ISZERO DUP1 ISZERO PUSH2 0x23A6 JUMPI RETURNDATASIZE PUSH0 DUP1 RETURNDATACOPY RETURNDATASIZE PUSH0 REVERT JUMPDEST POP POP POP POP PUSH1 0x40 MLOAD RETURNDATASIZE PUSH0 DUP3 RETURNDATACOPY RETURNDATASIZE PUSH1 0x1F NOT PUSH1 0x1F DUP3 ADD AND DUP3 ADD DUP1 PUSH1 0x40 MSTORE POP DUP2 ADD SWAP1 PUSH2 0x23CE SWAP2 SWAP1 PUSH2 0x4996 JUMP JUMPDEST POP JUMPDEST POP POP POP JUMP JUMPDEST PUSH0 CALLER SWAP1 POP SWAP1 JUMP JUMPDEST POP POP POP POP POP JUMP JUMPDEST PUSH0 PUSH20 0xFFFFFFFFFFFFFFFFFFFFFFFFFFFFFFFFFFFFFFFF AND DUP6 PUSH20 0xFFFFFFFFFFFFFFFFFFFFFFFFFFFFFFFFFFFFFFFF AND SUB PUSH2 0x2433 JUMPI DUP3 PUSH1 0x3 PUSH0 DUP3 DUP3 SLOAD PUSH2 0x2427 SWAP2 SWAP1 PUSH2 0x3E3B JUMP JUMPDEST SWAP3 POP POP DUP2 SWAP1 SSTORE POP PUSH2 0x2503 JUMP JUMPDEST PUSH0 PUSH1 0x4 PUSH0 DUP8 PUSH20 0xFFFFFFFFFFFFFFFFFFFFFFFFFFFFFFFFFFFFFFFF AND PUSH20 0xFFFFFFFFFFFFFFFFFFFFFFFFFFFFFFFFFFFFFFFF AND DUP2 MSTORE PUSH1 0x20 ADD SWAP1 DUP2 MSTORE PUSH1 0x20 ADD PUSH0 KECCAK256 SLOAD SWAP1 POP DUP4 DUP2 LT ISZERO PUSH2 0x24BD JUMPI DUP1 DUP7 DUP6 PUSH1 0x40 MLOAD PUSH32 0x8D4794900000000000000000000000000000000000000000000000000000000 DUP2 MSTORE PUSH1 0x4 ADD PUSH2 0x24B4 SWAP4 SWAP3 SWAP2 SWAP1 PUSH2 0x49DD JUMP JUMPDEST PUSH1 0x40 MLOAD DUP1 SWAP2 SUB SWAP1 REVERT JUMPDEST DUP4 DUP2 SUB PUSH1 0x4 PUSH0 DUP9 PUSH20 0xFFFFFFFFFFFFFFFFFFFFFFFFFFFFFFFFFFFFFFFF AND PUSH20 0xFFFFFFFFFFFFFFFFFFFFFFFFFFFFFFFFFFFFFFFF AND DUP2 MSTORE PUSH1 0x20 ADD SWAP1 DUP2 MSTORE PUSH1 0x20 ADD PUSH0 KECCAK256 DUP2 SWAP1 SSTORE POP POP JUMPDEST PUSH0 PUSH20 0xFFFFFFFFFFFFFFFFFFFFFFFFFFFFFFFFFFFFFFFF AND DUP5 PUSH20 0xFFFFFFFFFFFFFFFFFFFFFFFFFFFFFFFFFFFFFFFF AND SUB PUSH2 0x254A JUMPI DUP3 PUSH1 0x3 PUSH0 DUP3 DUP3 SLOAD SUB SWAP3 POP POP DUP2 SWAP1 SSTORE POP PUSH2 0x2595 JUMP JUMPDEST DUP3 PUSH1 0x4 PUSH0 DUP7 PUSH20 0xFFFFFFFFFFFFFFFFFFFFFFFFFFFFFFFFFFFFFFFF AND PUSH20 0xFFFFFFFFFFFFFFFFFFFFFFFFFFFFFFFFFFFFFFFF AND DUP2 MSTORE PUSH1 0x20 ADD SWAP1 DUP2 MSTORE PUSH1 0x20 ADD PUSH0 KECCAK256 PUSH0 DUP3 DUP3 SLOAD ADD SWAP3 POP POP DUP2 SWAP1 SSTORE POP JUMPDEST DUP4 PUSH20 0xFFFFFFFFFFFFFFFFFFFFFFFFFFFFFFFFFFFFFFFF AND DUP6 PUSH20 0xFFFFFFFFFFFFFFFFFFFFFFFFFFFFFFFFFFFFFFFF AND CALLER PUSH20 0xFFFFFFFFFFFFFFFFFFFFFFFFFFFFFFFFFFFFFFFF AND PUSH32 0x3997E418D2CEF0B3B0E907B1E39605C3F7D32DBD061E82EA5B4A770D46A160A6 DUP7 DUP7 DUP7 PUSH1 0x40 MLOAD PUSH2 0x260D SWAP4 SWAP3 SWAP2 SWAP1 PUSH2 0x4A12 JUMP JUMPDEST PUSH1 0x40 MLOAD DUP1 SWAP2 SUB SWAP1 LOG4 POP POP POP POP POP JUMP JUMPDEST POP POP POP POP POP JUMP JUMPDEST PUSH2 0x2650 DUP3 PUSH32 0x429AC7A06903DBC9C13DFCB3C9D11DF8194581FA047C96D7A4171FC7402958EA PUSH0 SHL DUP4 PUSH2 0x231B JUMP JUMPDEST POP POP JUMP JUMPDEST PUSH2 0x2665 DUP4 PUSH4 0x6BB56A14 PUSH1 0xE0 SHL PUSH2 0x2208 JUMP JUMPDEST ISZERO PUSH2 0x2710 JUMPI DUP3 PUSH20 0xFFFFFFFFFFFFFFFFFFFFFFFFFFFFFFFFFFFFFFFF AND PUSH4 0x6BB56A14 PUSH32 0x20804611B3E2EA21C480DC465142210ACF4A2485947541770EC1FB87DEE4A55C PUSH0 SHL DUP4 PUSH1 0x40 MLOAD DUP4 PUSH4 0xFFFFFFFF AND PUSH1 0xE0 SHL DUP2 MSTORE PUSH1 0x4 ADD PUSH2 0x26C7 SWAP3 SWAP2 SWAP1 PUSH2 0x48FA JUMP JUMPDEST PUSH0 PUSH1 0x40 MLOAD DUP1 DUP4 SUB DUP2 PUSH0 DUP8 GAS CALL ISZERO DUP1 ISZERO PUSH2 0x26E2 JUMPI RETURNDATASIZE PUSH0 DUP1 RETURNDATACOPY RETURNDATASIZE PUSH0 REVERT JUMPDEST POP POP POP POP PUSH1 0x40 MLOAD RETURNDATASIZE PUSH0 DUP3 RETURNDATACOPY RETURNDATASIZE PUSH1 0x1F NOT PUSH1 0x1F DUP3 ADD AND DUP3 ADD DUP1 PUSH1 0x40 MSTORE POP DUP2 ADD SWAP1 PUSH2 0x270A SWAP2 SWAP1 PUSH2 0x4996 JUMP JUMPDEST POP PUSH2 0x27AE JUMP JUMPDEST DUP2 PUSH2 0x27AD JUMPI PUSH0 DUP4 PUSH20 0xFFFFFFFFFFFFFFFFFFFFFFFFFFFFFFFFFFFFFFFF AND EXTCODESIZE EQ PUSH2 0x2770 JUMPI DUP3 PUSH1 0x40 MLOAD PUSH32 0xA608FBB600000000000000000000000000000000000000000000000000000000 DUP2 MSTORE PUSH1 0x4 ADD PUSH2 0x2767 SWAP2 SWAP1 PUSH2 0x382F JUMP JUMPDEST PUSH1 0x40 MLOAD DUP1 SWAP2 SUB SWAP1 REVERT JUMPDEST DUP3 PUSH1 0x40 MLOAD PUSH32 0x26C247F400000000000000000000000000000000000000000000000000000000 DUP2 MSTORE PUSH1 0x4 ADD PUSH2 0x27A4 SWAP2 SWAP1 PUSH2 0x382F JUMP JUMPDEST PUSH1 0x40 MLOAD DUP1 SWAP2 SUB SWAP1 REVERT JUMPDEST JUMPDEST POP POP POP JUMP JUMPDEST PUSH1 0x60 DUP2 PUSH0 ADD DUP1 SLOAD DUP1 PUSH1 0x20 MUL PUSH1 0x20 ADD PUSH1 0x40 MLOAD SWAP1 DUP2 ADD PUSH1 0x40 MSTORE DUP1 SWAP3 SWAP2 SWAP1 DUP2 DUP2 MSTORE PUSH1 0x20 ADD DUP3 DUP1 SLOAD DUP1 ISZERO PUSH2 0x2800 JUMPI PUSH1 0x20 MUL DUP3 ADD SWAP2 SWAP1 PUSH0 MSTORE PUSH1 0x20 PUSH0 KECCAK256 SWAP1 JUMPDEST DUP2 SLOAD DUP2 MSTORE PUSH1 0x20 ADD SWAP1 PUSH1 0x1 ADD SWAP1 DUP1 DUP4 GT PUSH2 0x27EC JUMPI JUMPDEST POP POP POP POP POP SWAP1 POP SWAP2 SWAP1 POP JUMP JUMPDEST PUSH0 PUSH2 0x2817 DUP4 DUP4 PUSH2 0x296F JUMP JUMPDEST PUSH2 0x2869 JUMPI DUP3 PUSH0 ADD DUP3 SWAP1 DUP1 PUSH1 0x1 DUP2 SLOAD ADD DUP1 DUP3 SSTORE DUP1 SWAP2 POP POP PUSH1 0x1 SWAP1 SUB SWAP1 PUSH0 MSTORE PUSH1 0x20 PUSH0 KECCAK256 ADD PUSH0 SWAP1 SWAP2 SWAP1 SWAP2 SWAP1 SWAP2 POP SSTORE DUP3 PUSH0 ADD DUP1 SLOAD SWAP1 POP DUP4 PUSH1 0x1 ADD PUSH0 DUP5 DUP2 MSTORE PUSH1 0x20 ADD SWAP1 DUP2 MSTORE PUSH1 0x20 ADD PUSH0 KECCAK256 DUP2 SWAP1 SSTORE POP PUSH1 0x1 SWAP1 POP PUSH2 0x286D JUMP JUMPDEST PUSH0 SWAP1 POP JUMPDEST SWAP3 SWAP2 POP POP JUMP JUMPDEST PUSH0 DUP1 DUP4 PUSH1 0x1 ADD PUSH0 DUP5 DUP2 MSTORE PUSH1 0x20 ADD SWAP1 DUP2 MSTORE PUSH1 0x20 ADD PUSH0 KECCAK256 SLOAD SWAP1 POP PUSH0 DUP2 EQ PUSH2 0x2964 JUMPI PUSH0 PUSH1 0x1 DUP3 PUSH2 0x28A0 SWAP2 SWAP1 PUSH2 0x46F4 JUMP JUMPDEST SWAP1 POP PUSH0 PUSH1 0x1 DUP7 PUSH0 ADD DUP1 SLOAD SWAP1 POP PUSH2 0x28B6 SWAP2 SWAP1 PUSH2 0x46F4 JUMP JUMPDEST SWAP1 POP DUP2 DUP2 EQ PUSH2 0x291C JUMPI PUSH0 DUP7 PUSH0 ADD DUP3 DUP2 SLOAD DUP2 LT PUSH2 0x28D5 JUMPI PUSH2 0x28D4 PUSH2 0x3EAA JUMP JUMPDEST JUMPDEST SWAP1 PUSH0 MSTORE PUSH1 0x20 PUSH0 KECCAK256 ADD SLOAD SWAP1 POP DUP1 DUP8 PUSH0 ADD DUP5 DUP2 SLOAD DUP2 LT PUSH2 0x28F6 JUMPI PUSH2 0x28F5 PUSH2 0x3EAA JUMP JUMPDEST JUMPDEST SWAP1 PUSH0 MSTORE PUSH1 0x20 PUSH0 KECCAK256 ADD DUP2 SWAP1 SSTORE POP DUP4 DUP8 PUSH1 0x1 ADD PUSH0 DUP4 DUP2 MSTORE PUSH1 0x20 ADD SWAP1 DUP2 MSTORE PUSH1 0x20 ADD PUSH0 KECCAK256 DUP2 SWAP1 SSTORE POP POP JUMPDEST DUP6 PUSH0 ADD DUP1 SLOAD DUP1 PUSH2 0x292F JUMPI PUSH2 0x292E PUSH2 0x4A4E JUMP JUMPDEST JUMPDEST PUSH1 0x1 SWAP1 SUB DUP2 DUP2 SWAP1 PUSH0 MSTORE PUSH1 0x20 PUSH0 KECCAK256 ADD PUSH0 SWAP1 SSTORE SWAP1 SSTORE DUP6 PUSH1 0x1 ADD PUSH0 DUP7 DUP2 MSTORE PUSH1 0x20 ADD SWAP1 DUP2 MSTORE PUSH1 0x20 ADD PUSH0 KECCAK256 PUSH0 SWAP1 SSTORE PUSH1 0x1 SWAP4 POP POP POP POP PUSH2 0x2969 JUMP JUMPDEST PUSH0 SWAP2 POP POP JUMPDEST SWAP3 SWAP2 POP POP JUMP JUMPDEST PUSH0 DUP1 DUP4 PUSH1 0x1 ADD PUSH0 DUP5 DUP2 MSTORE PUSH1 0x20 ADD SWAP1 DUP2 MSTORE PUSH1 0x20 ADD PUSH0 KECCAK256 SLOAD EQ ISZERO SWAP1 POP SWAP3 SWAP2 POP POP JUMP JUMPDEST PUSH0 DUP3 DUP3 MSTORE PUSH1 0x20 DUP3 ADD SWAP1 POP SWAP3 SWAP2 POP POP JUMP JUMPDEST PUSH0 DUP1 DUP3 ADD MSTORE POP JUMP JUMPDEST PUSH0 PUSH2 0x29B3 PUSH1 0x4 DUP4 PUSH2 0x298F JUMP JUMPDEST SWAP2 POP PUSH2 0x29BE DUP3 PUSH2 0x299F JUMP JUMPDEST PUSH1 0x20 DUP3 ADD SWAP1 POP SWAP2 SWAP1 POP JUMP JUMPDEST PUSH0 PUSH1 0x20 DUP3 ADD SWAP1 POP DUP2 DUP2 SUB PUSH0 DUP4 ADD MSTORE PUSH2 0x29E0 DUP2 PUSH2 0x29A7 JUMP JUMPDEST SWAP1 POP SWAP2 SWAP1 POP JUMP JUMPDEST DUP3 DUP2 DUP4 CALLDATACOPY PUSH0 DUP4 DUP4 ADD MSTORE POP POP POP JUMP JUMPDEST PUSH0 PUSH1 0x1F NOT PUSH1 0x1F DUP4 ADD AND SWAP1 POP SWAP2 SWAP1 POP JUMP JUMPDEST PUSH0 PUSH2 0x2A10 DUP4 DUP6 PUSH2 0x298F JUMP JUMPDEST SWAP4 POP PUSH2 0x2A1D DUP4 DUP6 DUP5 PUSH2 0x29E7 JUMP JUMPDEST PUSH2 0x2A26 DUP4 PUSH2 0x29F5 JUMP JUMPDEST DUP5 ADD SWAP1 POP SWAP4 SWAP3 POP POP POP JUMP JUMPDEST PUSH0 PUSH1 0x20 DUP3 ADD SWAP1 POP DUP2 DUP2 SUB PUSH0 DUP4 ADD MSTORE PUSH2 0x2A4A DUP2 DUP5 DUP7 PUSH2 0x2A05 JUMP JUMPDEST SWAP1 POP SWAP4 SWAP3 POP POP POP JUMP JUMPDEST PUSH0 PUSH1 0x40 MLOAD SWAP1 POP SWAP1 JUMP JUMPDEST PUSH0 DUP1 REVERT JUMPDEST PUSH0 DUP1 REVERT JUMPDEST PUSH0 PUSH32 0xFFFFFFFF00000000000000000000000000000000000000000000000000000000 DUP3 AND SWAP1 POP SWAP2 SWAP1 POP JUMP JUMPDEST PUSH2 0x2A98 DUP2 PUSH2 0x2A64 JUMP JUMPDEST DUP2 EQ PUSH2 0x2AA2 JUMPI PUSH0 DUP1 REVERT JUMPDEST POP JUMP JUMPDEST PUSH0 DUP2 CALLDATALOAD SWAP1 POP PUSH2 0x2AB3 DUP2 PUSH2 0x2A8F JUMP JUMPDEST SWAP3 SWAP2 POP POP JUMP JUMPDEST PUSH0 PUSH1 0x20 DUP3 DUP5 SUB SLT ISZERO PUSH2 0x2ACE JUMPI PUSH2 0x2ACD PUSH2 0x2A5C JUMP JUMPDEST JUMPDEST PUSH0 PUSH2 0x2ADB DUP5 DUP3 DUP6 ADD PUSH2 0x2AA5 JUMP JUMPDEST SWAP2 POP POP SWAP3 SWAP2 POP POP JUMP JUMPDEST PUSH0 DUP2 ISZERO ISZERO SWAP1 POP SWAP2 SWAP1 POP JUMP JUMPDEST PUSH2 0x2AF8 DUP2 PUSH2 0x2AE4 JUMP JUMPDEST DUP3 MSTORE POP POP JUMP JUMPDEST PUSH0 PUSH1 0x20 DUP3 ADD SWAP1 POP PUSH2 0x2B11 PUSH0 DUP4 ADD DUP5 PUSH2 0x2AEF JUMP JUMPDEST SWAP3 SWAP2 POP POP JUMP JUMPDEST PUSH0 DUP2 SWAP1 POP SWAP2 SWAP1 POP JUMP JUMPDEST PUSH2 0x2B29 DUP2 PUSH2 0x2B17 JUMP JUMPDEST DUP3 MSTORE POP POP JUMP JUMPDEST PUSH0 PUSH1 0x20 DUP3 ADD SWAP1 POP PUSH2 0x2B42 PUSH0 DUP4 ADD DUP5 PUSH2 0x2B20 JUMP JUMPDEST SWAP3 SWAP2 POP POP JUMP JUMPDEST PUSH0 PUSH20 0xFFFFFFFFFFFFFFFFFFFFFFFFFFFFFFFFFFFFFFFF DUP3 AND SWAP1 POP SWAP2 SWAP1 POP JUMP JUMPDEST PUSH0 PUSH2 0x2B71 DUP3 PUSH2 0x2B48 JUMP JUMPDEST SWAP1 POP SWAP2 SWAP1 POP JUMP JUMPDEST PUSH2 0x2B81 DUP2 PUSH2 0x2B67 JUMP JUMPDEST DUP2 EQ PUSH2 0x2B8B JUMPI PUSH0 DUP1 REVERT JUMPDEST POP JUMP JUMPDEST PUSH0 DUP2 CALLDATALOAD SWAP1 POP PUSH2 0x2B9C DUP2 PUSH2 0x2B78 JUMP JUMPDEST SWAP3 SWAP2 POP POP JUMP JUMPDEST PUSH2 0x2BAB DUP2 PUSH2 0x2B17 JUMP JUMPDEST DUP2 EQ PUSH2 0x2BB5 JUMPI PUSH0 DUP1 REVERT JUMPDEST POP JUMP JUMPDEST PUSH0 DUP2 CALLDATALOAD SWAP1 POP PUSH2 0x2BC6 DUP2 PUSH2 0x2BA2 JUMP JUMPDEST SWAP3 SWAP2 POP POP JUMP JUMPDEST PUSH0 DUP1 REVERT JUMPDEST PUSH0 DUP1 REVERT JUMPDEST PUSH32 0x4E487B7100000000000000000000000000000000000000000000000000000000 PUSH0 MSTORE PUSH1 0x41 PUSH1 0x4 MSTORE PUSH1 0x24 PUSH0 REVERT JUMPDEST PUSH2 0x2C0A DUP3 PUSH2 0x29F5 JUMP JUMPDEST DUP2 ADD DUP2 DUP2 LT PUSH8 0xFFFFFFFFFFFFFFFF DUP3 GT OR ISZERO PUSH2 0x2C29 JUMPI PUSH2 0x2C28 PUSH2 0x2BD4 JUMP JUMPDEST JUMPDEST DUP1 PUSH1 0x40 MSTORE POP POP POP JUMP JUMPDEST PUSH0 PUSH2 0x2C3B PUSH2 0x2A53 JUMP JUMPDEST SWAP1 POP PUSH2 0x2C47 DUP3 DUP3 PUSH2 0x2C01 JUMP JUMPDEST SWAP2 SWAP1 POP JUMP JUMPDEST PUSH0 PUSH8 0xFFFFFFFFFFFFFFFF DUP3 GT ISZERO PUSH2 0x2C66 JUMPI PUSH2 0x2C65 PUSH2 0x2BD4 JUMP JUMPDEST JUMPDEST PUSH2 0x2C6F DUP3 PUSH2 0x29F5 JUMP JUMPDEST SWAP1 POP PUSH1 0x20 DUP2 ADD SWAP1 POP SWAP2 SWAP1 POP JUMP JUMPDEST PUSH0 PUSH2 0x2C8E PUSH2 0x2C89 DUP5 PUSH2 0x2C4C JUMP JUMPDEST PUSH2 0x2C32 JUMP JUMPDEST SWAP1 POP DUP3 DUP2 MSTORE PUSH1 0x20 DUP2 ADD DUP5 DUP5 DUP5 ADD GT ISZERO PUSH2 0x2CAA JUMPI PUSH2 0x2CA9 PUSH2 0x2BD0 JUMP JUMPDEST JUMPDEST PUSH2 0x2CB5 DUP5 DUP3 DUP6 PUSH2 0x29E7 JUMP JUMPDEST POP SWAP4 SWAP3 POP POP POP JUMP JUMPDEST PUSH0 DUP3 PUSH1 0x1F DUP4 ADD SLT PUSH2 0x2CD1 JUMPI PUSH2 0x2CD0 PUSH2 0x2BCC JUMP JUMPDEST JUMPDEST DUP2 CALLDATALOAD PUSH2 0x2CE1 DUP5 DUP3 PUSH1 0x20 DUP7 ADD PUSH2 0x2C7C JUMP JUMPDEST SWAP2 POP POP SWAP3 SWAP2 POP POP JUMP JUMPDEST PUSH0 DUP1 PUSH0 PUSH1 0x60 DUP5 DUP7 SUB SLT ISZERO PUSH2 0x2D01 JUMPI PUSH2 0x2D00 PUSH2 0x2A5C JUMP JUMPDEST JUMPDEST PUSH0 PUSH2 0x2D0E DUP7 DUP3 DUP8 ADD PUSH2 0x2B8E JUMP JUMPDEST SWAP4 POP POP PUSH1 0x20 PUSH2 0x2D1F DUP7 DUP3 DUP8 ADD PUSH2 0x2BB8 JUMP JUMPDEST SWAP3 POP POP PUSH1 0x40 DUP5 ADD CALLDATALOAD PUSH8 0xFFFFFFFFFFFFFFFF DUP2 GT ISZERO PUSH2 0x2D40 JUMPI PUSH2 0x2D3F PUSH2 0x2A60 JUMP JUMPDEST JUMPDEST PUSH2 0x2D4C DUP7 DUP3 DUP8 ADD PUSH2 0x2CBD JUMP JUMPDEST SWAP2 POP POP SWAP3 POP SWAP3 POP SWAP3 JUMP JUMPDEST PUSH0 PUSH8 0xFFFFFFFFFFFFFFFF DUP3 GT ISZERO PUSH2 0x2D70 JUMPI PUSH2 0x2D6F PUSH2 0x2BD4 JUMP JUMPDEST JUMPDEST PUSH1 0x20 DUP3 MUL SWAP1 POP PUSH1 0x20 DUP2 ADD SWAP1 POP SWAP2 SWAP1 POP JUMP JUMPDEST PUSH0 DUP1 REVERT JUMPDEST PUSH0 PUSH2 0x2D97 PUSH2 0x2D92 DUP5 PUSH2 0x2D56 JUMP JUMPDEST PUSH2 0x2C32 JUMP JUMPDEST SWAP1 POP DUP1 DUP4 DUP3 MSTORE PUSH1 0x20 DUP3 ADD SWAP1 POP PUSH1 0x20 DUP5 MUL DUP4 ADD DUP6 DUP2 GT ISZERO PUSH2 0x2DBA JUMPI PUSH2 0x2DB9 PUSH2 0x2D81 JUMP JUMPDEST JUMPDEST DUP4 JUMPDEST DUP2 DUP2 LT ISZERO PUSH2 0x2DE3 JUMPI DUP1 PUSH2 0x2DCF DUP9 DUP3 PUSH2 0x2B8E JUMP JUMPDEST DUP5 MSTORE PUSH1 0x20 DUP5 ADD SWAP4 POP POP PUSH1 0x20 DUP2 ADD SWAP1 POP PUSH2 0x2DBC JUMP JUMPDEST POP POP POP SWAP4 SWAP3 POP POP POP JUMP JUMPDEST PUSH0 DUP3 PUSH1 0x1F DUP4 ADD SLT PUSH2 0x2E01 JUMPI PUSH2 0x2E00 PUSH2 0x2BCC JUMP JUMPDEST JUMPDEST DUP2 CALLDATALOAD PUSH2 0x2E11 DUP5 DUP3 PUSH1 0x20 DUP7 ADD PUSH2 0x2D85 JUMP JUMPDEST SWAP2 POP POP SWAP3 SWAP2 POP POP JUMP JUMPDEST PUSH0 PUSH8 0xFFFFFFFFFFFFFFFF DUP3 GT ISZERO PUSH2 0x2E34 JUMPI PUSH2 0x2E33 PUSH2 0x2BD4 JUMP JUMPDEST JUMPDEST PUSH1 0x20 DUP3 MUL SWAP1 POP PUSH1 0x20 DUP2 ADD SWAP1 POP SWAP2 SWAP1 POP JUMP JUMPDEST PUSH0 PUSH2 0x2E57 PUSH2 0x2E52 DUP5 PUSH2 0x2E1A JUMP JUMPDEST PUSH2 0x2C32 JUMP JUMPDEST SWAP1 POP DUP1 DUP4 DUP3 MSTORE PUSH1 0x20 DUP3 ADD SWAP1 POP PUSH1 0x20 DUP5 MUL DUP4 ADD DUP6 DUP2 GT ISZERO PUSH2 0x2E7A JUMPI PUSH2 0x2E79 PUSH2 0x2D81 JUMP JUMPDEST JUMPDEST DUP4 JUMPDEST DUP2 DUP2 LT ISZERO PUSH2 0x2EA3 JUMPI DUP1 PUSH2 0x2E8F DUP9 DUP3 PUSH2 0x2BB8 JUMP JUMPDEST DUP5 MSTORE PUSH1 0x20 DUP5 ADD SWAP4 POP POP PUSH1 0x20 DUP2 ADD SWAP1 POP PUSH2 0x2E7C JUMP JUMPDEST POP POP POP SWAP4 SWAP3 POP POP POP JUMP JUMPDEST PUSH0 DUP3 PUSH1 0x1F DUP4 ADD SLT PUSH2 0x2EC1 JUMPI PUSH2 0x2EC0 PUSH2 0x2BCC JUMP JUMPDEST JUMPDEST DUP2 CALLDATALOAD PUSH2 0x2ED1 DUP5 DUP3 PUSH1 0x20 DUP7 ADD PUSH2 0x2E45 JUMP JUMPDEST SWAP2 POP POP SWAP3 SWAP2 POP POP JUMP JUMPDEST PUSH0 PUSH8 0xFFFFFFFFFFFFFFFF DUP3 GT ISZERO PUSH2 0x2EF4 JUMPI PUSH2 0x2EF3 PUSH2 0x2BD4 JUMP JUMPDEST JUMPDEST PUSH1 0x20 DUP3 MUL SWAP1 POP PUSH1 0x20 DUP2 ADD SWAP1 POP SWAP2 SWAP1 POP JUMP JUMPDEST PUSH2 0x2F0E DUP2 PUSH2 0x2AE4 JUMP JUMPDEST DUP2 EQ PUSH2 0x2F18 JUMPI PUSH0 DUP1 REVERT JUMPDEST POP JUMP JUMPDEST PUSH0 DUP2 CALLDATALOAD SWAP1 POP PUSH2 0x2F29 DUP2 PUSH2 0x2F05 JUMP JUMPDEST SWAP3 SWAP2 POP POP JUMP JUMPDEST PUSH0 PUSH2 0x2F41 PUSH2 0x2F3C DUP5 PUSH2 0x2EDA JUMP JUMPDEST PUSH2 0x2C32 JUMP JUMPDEST SWAP1 POP DUP1 DUP4 DUP3 MSTORE PUSH1 0x20 DUP3 ADD SWAP1 POP PUSH1 0x20 DUP5 MUL DUP4 ADD DUP6 DUP2 GT ISZERO PUSH2 0x2F64 JUMPI PUSH2 0x2F63 PUSH2 0x2D81 JUMP JUMPDEST JUMPDEST DUP4 JUMPDEST DUP2 DUP2 LT ISZERO PUSH2 0x2F8D JUMPI DUP1 PUSH2 0x2F79 DUP9 DUP3 PUSH2 0x2F1B JUMP JUMPDEST DUP5 MSTORE PUSH1 0x20 DUP5 ADD SWAP4 POP POP PUSH1 0x20 DUP2 ADD SWAP1 POP PUSH2 0x2F66 JUMP JUMPDEST POP POP POP SWAP4 SWAP3 POP POP POP JUMP JUMPDEST PUSH0 DUP3 PUSH1 0x1F DUP4 ADD SLT PUSH2 0x2FAB JUMPI PUSH2 0x2FAA PUSH2 0x2BCC JUMP JUMPDEST JUMPDEST DUP2 CALLDATALOAD PUSH2 0x2FBB DUP5 DUP3 PUSH1 0x20 DUP7 ADD PUSH2 0x2F2F JUMP JUMPDEST SWAP2 POP POP SWAP3 SWAP2 POP POP JUMP JUMPDEST PUSH0 PUSH8 0xFFFFFFFFFFFFFFFF DUP3 GT ISZERO PUSH2 0x2FDE JUMPI PUSH2 0x2FDD PUSH2 0x2BD4 JUMP JUMPDEST JUMPDEST PUSH1 0x20 DUP3 MUL SWAP1 POP PUSH1 0x20 DUP2 ADD SWAP1 POP SWAP2 SWAP1 POP JUMP JUMPDEST PUSH0 PUSH2 0x3001 PUSH2 0x2FFC DUP5 PUSH2 0x2FC4 JUMP JUMPDEST PUSH2 0x2C32 JUMP JUMPDEST SWAP1 POP DUP1 DUP4 DUP3 MSTORE PUSH1 0x20 DUP3 ADD SWAP1 POP PUSH1 0x20 DUP5 MUL DUP4 ADD DUP6 DUP2 GT ISZERO PUSH2 0x3024 JUMPI PUSH2 0x3023 PUSH2 0x2D81 JUMP JUMPDEST JUMPDEST DUP4 JUMPDEST DUP2 DUP2 LT ISZERO PUSH2 0x306B JUMPI DUP1 CALLDATALOAD PUSH8 0xFFFFFFFFFFFFFFFF DUP2 GT ISZERO PUSH2 0x3049 JUMPI PUSH2 0x3048 PUSH2 0x2BCC JUMP JUMPDEST JUMPDEST DUP1 DUP7 ADD PUSH2 0x3056 DUP10 DUP3 PUSH2 0x2CBD JUMP JUMPDEST DUP6 MSTORE PUSH1 0x20 DUP6 ADD SWAP5 POP POP POP PUSH1 0x20 DUP2 ADD SWAP1 POP PUSH2 0x3026 JUMP JUMPDEST POP POP POP SWAP4 SWAP3 POP POP POP JUMP JUMPDEST PUSH0 DUP3 PUSH1 0x1F DUP4 ADD SLT PUSH2 0x3089 JUMPI PUSH2 0x3088 PUSH2 0x2BCC JUMP JUMPDEST JUMPDEST DUP2 CALLDATALOAD PUSH2 0x3099 DUP5 DUP3 PUSH1 0x20 DUP7 ADD PUSH2 0x2FEF JUMP JUMPDEST SWAP2 POP POP SWAP3 SWAP2 POP POP JUMP JUMPDEST PUSH0 DUP1 PUSH0 DUP1 PUSH0 PUSH1 0xA0 DUP7 DUP9 SUB SLT ISZERO PUSH2 0x30BB JUMPI PUSH2 0x30BA PUSH2 0x2A5C JUMP JUMPDEST JUMPDEST PUSH0 DUP7 ADD CALLDATALOAD PUSH8 0xFFFFFFFFFFFFFFFF DUP2 GT ISZERO PUSH2 0x30D8 JUMPI PUSH2 0x30D7 PUSH2 0x2A60 JUMP JUMPDEST JUMPDEST PUSH2 0x30E4 DUP9 DUP3 DUP10 ADD PUSH2 0x2DED JUMP JUMPDEST SWAP6 POP POP PUSH1 0x20 DUP7 ADD CALLDATALOAD PUSH8 0xFFFFFFFFFFFFFFFF DUP2 GT ISZERO PUSH2 0x3105 JUMPI PUSH2 0x3104 PUSH2 0x2A60 JUMP JUMPDEST JUMPDEST PUSH2 0x3111 DUP9 DUP3 DUP10 ADD PUSH2 0x2DED JUMP JUMPDEST SWAP5 POP POP PUSH1 0x40 DUP7 ADD CALLDATALOAD PUSH8 0xFFFFFFFFFFFFFFFF DUP2 GT ISZERO PUSH2 0x3132 JUMPI PUSH2 0x3131 PUSH2 0x2A60 JUMP JUMPDEST JUMPDEST PUSH2 0x313E DUP9 DUP3 DUP10 ADD PUSH2 0x2EAD JUMP JUMPDEST SWAP4 POP POP PUSH1 0x60 DUP7 ADD CALLDATALOAD PUSH8 0xFFFFFFFFFFFFFFFF DUP2 GT ISZERO PUSH2 0x315F JUMPI PUSH2 0x315E PUSH2 0x2A60 JUMP JUMPDEST JUMPDEST PUSH2 0x316B DUP9 DUP3 DUP10 ADD PUSH2 0x2F97 JUMP JUMPDEST SWAP3 POP POP PUSH1 0x80 DUP7 ADD CALLDATALOAD PUSH8 0xFFFFFFFFFFFFFFFF DUP2 GT ISZERO PUSH2 0x318C JUMPI PUSH2 0x318B PUSH2 0x2A60 JUMP JUMPDEST JUMPDEST PUSH2 0x3198 DUP9 DUP3 DUP10 ADD PUSH2 0x3075 JUMP JUMPDEST SWAP2 POP POP SWAP3 SWAP6 POP SWAP3 SWAP6 SWAP1 SWAP4 POP JUMP JUMPDEST PUSH0 DUP1 PUSH0 DUP1 PUSH1 0x80 DUP6 DUP8 SUB SLT ISZERO PUSH2 0x31BD JUMPI PUSH2 0x31BC PUSH2 0x2A5C JUMP JUMPDEST JUMPDEST PUSH0 PUSH2 0x31CA DUP8 DUP3 DUP9 ADD PUSH2 0x2B8E JUMP JUMPDEST SWAP5 POP POP PUSH1 0x20 PUSH2 0x31DB DUP8 DUP3 DUP9 ADD PUSH2 0x2B8E JUMP JUMPDEST SWAP4 POP POP PUSH1 0x40 PUSH2 0x31EC DUP8 DUP3 DUP9 ADD PUSH2 0x2F1B JUMP JUMPDEST SWAP3 POP POP PUSH1 0x60 DUP6 ADD CALLDATALOAD PUSH8 0xFFFFFFFFFFFFFFFF DUP2 GT ISZERO PUSH2 0x320D JUMPI PUSH2 0x320C PUSH2 0x2A60 JUMP JUMPDEST JUMPDEST PUSH2 0x3219 DUP8 DUP3 DUP9 ADD PUSH2 0x2CBD JUMP JUMPDEST SWAP2 POP POP SWAP3 SWAP6 SWAP2 SWAP5 POP SWAP3 POP JUMP JUMPDEST PUSH0 PUSH1 0xFF DUP3 AND SWAP1 POP SWAP2 SWAP1 POP JUMP JUMPDEST PUSH2 0x323A DUP2 PUSH2 0x3225 JUMP JUMPDEST DUP3 MSTORE POP POP JUMP JUMPDEST PUSH0 PUSH1 0x20 DUP3 ADD SWAP1 POP PUSH2 0x3253 PUSH0 DUP4 ADD DUP5 PUSH2 0x3231 JUMP JUMPDEST SWAP3 SWAP2 POP POP JUMP JUMPDEST PUSH0 PUSH1 0x20 DUP3 DUP5 SUB SLT ISZERO PUSH2 0x326E JUMPI PUSH2 0x326D PUSH2 0x2A5C JUMP JUMPDEST JUMPDEST PUSH0 PUSH2 0x327B DUP5 DUP3 DUP6 ADD PUSH2 0x2BB8 JUMP JUMPDEST SWAP2 POP POP SWAP3 SWAP2 POP POP JUMP JUMPDEST PUSH2 0x328D DUP2 PUSH2 0x2B67 JUMP JUMPDEST DUP3 MSTORE POP POP JUMP JUMPDEST PUSH0 DUP2 MLOAD SWAP1 POP SWAP2 SWAP1 POP JUMP JUMPDEST PUSH0 DUP3 DUP3 MSTORE PUSH1 0x20 DUP3 ADD SWAP1 POP SWAP3 SWAP2 POP POP JUMP JUMPDEST DUP3 DUP2 DUP4 MCOPY PUSH0 DUP4 DUP4 ADD MSTORE POP POP POP JUMP JUMPDEST PUSH0 PUSH2 0x32C5 DUP3 PUSH2 0x3293 JUMP JUMPDEST PUSH2 0x32CF DUP2 DUP6 PUSH2 0x329D JUMP JUMPDEST SWAP4 POP PUSH2 0x32DF DUP2 DUP6 PUSH1 0x20 DUP7 ADD PUSH2 0x32AD JUMP JUMPDEST PUSH2 0x32E8 DUP2 PUSH2 0x29F5 JUMP JUMPDEST DUP5 ADD SWAP2 POP POP SWAP3 SWAP2 POP POP JUMP JUMPDEST PUSH0 PUSH4 0xFFFFFFFF DUP3 AND SWAP1 POP SWAP2 SWAP1 POP JUMP JUMPDEST PUSH2 0x330B DUP2 PUSH2 0x32F3 JUMP JUMPDEST DUP3 MSTORE POP POP JUMP JUMPDEST PUSH0 PUSH16 0xFFFFFFFFFFFFFFFFFFFFFFFFFFFFFFFF DUP3 AND SWAP1 POP SWAP2 SWAP1 POP JUMP JUMPDEST PUSH2 0x3335 DUP2 PUSH2 0x3311 JUMP JUMPDEST DUP3 MSTORE POP POP JUMP JUMPDEST PUSH0 PUSH2 0xFFFF DUP3 AND SWAP1 POP SWAP2 SWAP1 POP JUMP JUMPDEST PUSH2 0x3351 DUP2 PUSH2 0x333B JUMP JUMPDEST DUP3 MSTORE POP POP JUMP JUMPDEST PUSH0 DUP2 MLOAD SWAP1 POP SWAP2 SWAP1 POP JUMP JUMPDEST PUSH0 PUSH2 0x336B DUP3 PUSH2 0x3357 JUMP JUMPDEST PUSH2 0x3375 DUP2 DUP6 PUSH2 0x298F JUMP JUMPDEST SWAP4 POP PUSH2 0x3385 DUP2 DUP6 PUSH1 0x20 DUP7 ADD PUSH2 0x32AD JUMP JUMPDEST PUSH2 0x338E DUP2 PUSH2 0x29F5 JUMP JUMPDEST DUP5 ADD SWAP2 POP POP SWAP3 SWAP2 POP POP JUMP JUMPDEST PUSH0 PUSH1 0xE0 DUP3 ADD SWAP1 POP PUSH2 0x33AC PUSH0 DUP4 ADD DUP11 PUSH2 0x3284 JUMP JUMPDEST DUP2 DUP2 SUB PUSH1 0x20 DUP4 ADD MSTORE PUSH2 0x33BE DUP2 DUP10 PUSH2 0x32BB JUMP JUMPDEST SWAP1 POP PUSH2 0x33CD PUSH1 0x40 DUP4 ADD DUP9 PUSH2 0x3302 JUMP JUMPDEST PUSH2 0x33DA PUSH1 0x60 DUP4 ADD DUP8 PUSH2 0x332C JUMP JUMPDEST PUSH2 0x33E7 PUSH1 0x80 DUP4 ADD DUP7 PUSH2 0x3348 JUMP JUMPDEST DUP2 DUP2 SUB PUSH1 0xA0 DUP4 ADD MSTORE PUSH2 0x33F9 DUP2 DUP6 PUSH2 0x3361 JUMP JUMPDEST SWAP1 POP PUSH2 0x3408 PUSH1 0xC0 DUP4 ADD DUP5 PUSH2 0x2B20 JUMP JUMPDEST SWAP9 SWAP8 POP POP POP POP POP POP POP POP JUMP JUMPDEST PUSH0 DUP2 SWAP1 POP SWAP2 SWAP1 POP JUMP JUMPDEST PUSH2 0x3426 DUP2 PUSH2 0x3414 JUMP JUMPDEST DUP2 EQ PUSH2 0x3430 JUMPI PUSH0 DUP1 REVERT JUMPDEST POP JUMP JUMPDEST PUSH0 DUP2 CALLDATALOAD SWAP1 POP PUSH2 0x3441 DUP2 PUSH2 0x341D JUMP JUMPDEST SWAP3 SWAP2 POP POP JUMP JUMPDEST PUSH0 PUSH1 0x20 DUP3 DUP5 SUB SLT ISZERO PUSH2 0x345C JUMPI PUSH2 0x345B PUSH2 0x2A5C JUMP JUMPDEST JUMPDEST PUSH0 PUSH2 0x3469 DUP5 DUP3 DUP6 ADD PUSH2 0x3433 JUMP JUMPDEST SWAP2 POP POP SWAP3 SWAP2 POP POP JUMP JUMPDEST PUSH0 PUSH1 0x20 DUP3 ADD SWAP1 POP DUP2 DUP2 SUB PUSH0 DUP4 ADD MSTORE PUSH2 0x348A DUP2 DUP5 PUSH2 0x3361 JUMP JUMPDEST SWAP1 POP SWAP3 SWAP2 POP POP JUMP JUMPDEST PUSH0 DUP1 PUSH1 0x40 DUP4 DUP6 SUB SLT ISZERO PUSH2 0x34A8 JUMPI PUSH2 0x34A7 PUSH2 0x2A5C JUMP JUMPDEST JUMPDEST PUSH0 PUSH2 0x34B5 DUP6 DUP3 DUP7 ADD PUSH2 0x2B8E JUMP JUMPDEST SWAP3 POP POP PUSH1 0x20 PUSH2 0x34C6 DUP6 DUP3 DUP7 ADD PUSH2 0x2B8E JUMP JUMPDEST SWAP2 POP POP SWAP3 POP SWAP3 SWAP1 POP JUMP JUMPDEST PUSH0 DUP1 REVERT JUMPDEST PUSH0 DUP1 DUP4 PUSH1 0x1F DUP5 ADD SLT PUSH2 0x34E9 JUMPI PUSH2 0x34E8 PUSH2 0x2BCC JUMP JUMPDEST JUMPDEST DUP3 CALLDATALOAD SWAP1 POP PUSH8 0xFFFFFFFFFFFFFFFF DUP2 GT ISZERO PUSH2 0x3506 JUMPI PUSH2 0x3505 PUSH2 0x34D0 JUMP JUMPDEST JUMPDEST PUSH1 0x20 DUP4 ADD SWAP2 POP DUP4 PUSH1 0x20 DUP3 MUL DUP4 ADD GT ISZERO PUSH2 0x3522 JUMPI PUSH2 0x3521 PUSH2 0x2D81 JUMP JUMPDEST JUMPDEST SWAP3 POP SWAP3 SWAP1 POP JUMP JUMPDEST PUSH0 DUP1 PUSH1 0x20 DUP4 DUP6 SUB SLT ISZERO PUSH2 0x353F JUMPI PUSH2 0x353E PUSH2 0x2A5C JUMP JUMPDEST JUMPDEST PUSH0 DUP4 ADD CALLDATALOAD PUSH8 0xFFFFFFFFFFFFFFFF DUP2 GT ISZERO PUSH2 0x355C JUMPI PUSH2 0x355B PUSH2 0x2A60 JUMP JUMPDEST JUMPDEST PUSH2 0x3568 DUP6 DUP3 DUP7 ADD PUSH2 0x34D4 JUMP JUMPDEST SWAP3 POP SWAP3 POP POP SWAP3 POP SWAP3 SWAP1 POP JUMP JUMPDEST PUSH0 DUP2 MLOAD SWAP1 POP SWAP2 SWAP1 POP JUMP JUMPDEST PUSH0 DUP3 DUP3 MSTORE PUSH1 0x20 DUP3 ADD SWAP1 POP SWAP3 SWAP2 POP POP JUMP JUMPDEST PUSH0 DUP2 SWAP1 POP PUSH1 0x20 DUP3 ADD SWAP1 POP SWAP2 SWAP1 POP JUMP JUMPDEST PUSH0 DUP3 DUP3 MSTORE PUSH1 0x20 DUP3 ADD SWAP1 POP SWAP3 SWAP2 POP POP JUMP JUMPDEST PUSH0 PUSH2 0x35B7 DUP3 PUSH2 0x3357 JUMP JUMPDEST PUSH2 0x35C1 DUP2 DUP6 PUSH2 0x359D JUMP JUMPDEST SWAP4 POP PUSH2 0x35D1 DUP2 DUP6 PUSH1 0x20 DUP7 ADD PUSH2 0x32AD JUMP JUMPDEST PUSH2 0x35DA DUP2 PUSH2 0x29F5 JUMP JUMPDEST DUP5 ADD SWAP2 POP POP SWAP3 SWAP2 POP POP JUMP JUMPDEST PUSH0 PUSH2 0x35F0 DUP4 DUP4 PUSH2 0x35AD JUMP JUMPDEST SWAP1 POP SWAP3 SWAP2 POP POP JUMP JUMPDEST PUSH0 PUSH1 0x20 DUP3 ADD SWAP1 POP SWAP2 SWAP1 POP JUMP JUMPDEST PUSH0 PUSH2 0x360E DUP3 PUSH2 0x3574 JUMP JUMPDEST PUSH2 0x3618 DUP2 DUP6 PUSH2 0x357E JUMP JUMPDEST SWAP4 POP DUP4 PUSH1 0x20 DUP3 MUL DUP6 ADD PUSH2 0x362A DUP6 PUSH2 0x358E JUMP JUMPDEST DUP1 PUSH0 JUMPDEST DUP6 DUP2 LT ISZERO PUSH2 0x3665 JUMPI DUP5 DUP5 SUB DUP10 MSTORE DUP2 MLOAD PUSH2 0x3646 DUP6 DUP3 PUSH2 0x35E5 JUMP JUMPDEST SWAP5 POP PUSH2 0x3651 DUP4 PUSH2 0x35F8 JUMP JUMPDEST SWAP3 POP PUSH1 0x20 DUP11 ADD SWAP10 POP POP PUSH1 0x1 DUP2 ADD SWAP1 POP PUSH2 0x362D JUMP JUMPDEST POP DUP3 SWAP8 POP DUP8 SWAP6 POP POP POP POP POP POP SWAP3 SWAP2 POP POP JUMP JUMPDEST PUSH0 PUSH1 0x20 DUP3 ADD SWAP1 POP DUP2 DUP2 SUB PUSH0 DUP4 ADD MSTORE PUSH2 0x368F DUP2 DUP5 PUSH2 0x3604 JUMP JUMPDEST SWAP1 POP SWAP3 SWAP2 POP POP JUMP JUMPDEST PUSH0 PUSH1 0x20 DUP3 DUP5 SUB SLT ISZERO PUSH2 0x36AC JUMPI PUSH2 0x36AB PUSH2 0x2A5C JUMP JUMPDEST JUMPDEST PUSH0 PUSH2 0x36B9 DUP5 DUP3 DUP6 ADD PUSH2 0x2B8E JUMP JUMPDEST SWAP2 POP POP SWAP3 SWAP2 POP POP JUMP JUMPDEST PUSH0 DUP1 PUSH0 DUP1 PUSH0 PUSH1 0xA0 DUP7 DUP9 SUB SLT ISZERO PUSH2 0x36DB JUMPI PUSH2 0x36DA PUSH2 0x2A5C JUMP JUMPDEST JUMPDEST PUSH0 PUSH2 0x36E8 DUP9 DUP3 DUP10 ADD PUSH2 0x2B8E JUMP JUMPDEST SWAP6 POP POP PUSH1 0x20 PUSH2 0x36F9 DUP9 DUP3 DUP10 ADD PUSH2 0x2B8E JUMP JUMPDEST SWAP5 POP POP PUSH1 0x40 PUSH2 0x370A DUP9 DUP3 DUP10 ADD PUSH2 0x2BB8 JUMP JUMPDEST SWAP4 POP POP PUSH1 0x60 PUSH2 0x371B DUP9 DUP3 DUP10 ADD PUSH2 0x2F1B JUMP JUMPDEST SWAP3 POP POP PUSH1 0x80 DUP7 ADD CALLDATALOAD PUSH8 0xFFFFFFFFFFFFFFFF DUP2 GT ISZERO PUSH2 0x373C JUMPI PUSH2 0x373B PUSH2 0x2A60 JUMP JUMPDEST JUMPDEST PUSH2 0x3748 DUP9 DUP3 DUP10 ADD PUSH2 0x2CBD JUMP JUMPDEST SWAP2 POP POP SWAP3 SWAP6 POP SWAP3 SWAP6 SWAP1 SWAP4 POP JUMP JUMPDEST PUSH0 DUP1 PUSH0 DUP1 PUSH1 0x80 DUP6 DUP8 SUB SLT ISZERO PUSH2 0x376D JUMPI PUSH2 0x376C PUSH2 0x2A5C JUMP JUMPDEST JUMPDEST PUSH0 PUSH2 0x377A DUP8 DUP3 DUP9 ADD PUSH2 0x2B8E JUMP JUMPDEST SWAP5 POP POP PUSH1 0x20 PUSH2 0x378B DUP8 DUP3 DUP9 ADD PUSH2 0x2B8E JUMP JUMPDEST SWAP4 POP POP PUSH1 0x40 PUSH2 0x379C DUP8 DUP3 DUP9 ADD PUSH2 0x2BB8 JUMP JUMPDEST SWAP3 POP POP PUSH1 0x60 DUP6 ADD CALLDATALOAD PUSH8 0xFFFFFFFFFFFFFFFF DUP2 GT ISZERO PUSH2 0x37BD JUMPI PUSH2 0x37BC PUSH2 0x2A60 JUMP JUMPDEST JUMPDEST PUSH2 0x37C9 DUP8 DUP3 DUP9 ADD PUSH2 0x2CBD JUMP JUMPDEST SWAP2 POP POP SWAP3 SWAP6 SWAP2 SWAP5 POP SWAP3 POP JUMP JUMPDEST PUSH0 DUP1 PUSH1 0x40 DUP4 DUP6 SUB SLT ISZERO PUSH2 0x37EB JUMPI PUSH2 0x37EA PUSH2 0x2A5C JUMP JUMPDEST JUMPDEST PUSH0 PUSH2 0x37F8 DUP6 DUP3 DUP7 ADD PUSH2 0x3433 JUMP JUMPDEST SWAP3 POP POP PUSH1 0x20 DUP4 ADD CALLDATALOAD PUSH8 0xFFFFFFFFFFFFFFFF DUP2 GT ISZERO PUSH2 0x3819 JUMPI PUSH2 0x3818 PUSH2 0x2A60 JUMP JUMPDEST JUMPDEST PUSH2 0x3825 DUP6 DUP3 DUP7 ADD PUSH2 0x2CBD JUMP JUMPDEST SWAP2 POP POP SWAP3 POP SWAP3 SWAP1 POP JUMP JUMPDEST PUSH0 PUSH1 0x20 DUP3 ADD SWAP1 POP PUSH2 0x3842 PUSH0 DUP4 ADD DUP5 PUSH2 0x3284 JUMP JUMPDEST SWAP3 SWAP2 POP POP JUMP JUMPDEST PUSH0 PUSH8 0xFFFFFFFFFFFFFFFF DUP3 GT ISZERO PUSH2 0x3862 JUMPI PUSH2 0x3861 PUSH2 0x2BD4 JUMP JUMPDEST JUMPDEST PUSH1 0x20 DUP3 MUL SWAP1 POP PUSH1 0x20 DUP2 ADD SWAP1 POP SWAP2 SWAP1 POP JUMP JUMPDEST PUSH0 PUSH2 0x3885 PUSH2 0x3880 DUP5 PUSH2 0x3848 JUMP JUMPDEST PUSH2 0x2C32 JUMP JUMPDEST SWAP1 POP DUP1 DUP4 DUP3 MSTORE PUSH1 0x20 DUP3 ADD SWAP1 POP PUSH1 0x20 DUP5 MUL DUP4 ADD DUP6 DUP2 GT ISZERO PUSH2 0x38A8 JUMPI PUSH2 0x38A7 PUSH2 0x2D81 JUMP JUMPDEST JUMPDEST DUP4 JUMPDEST DUP2 DUP2 LT ISZERO PUSH2 0x38D1 JUMPI DUP1 PUSH2 0x38BD DUP9 DUP3 PUSH2 0x3433 JUMP JUMPDEST DUP5 MSTORE PUSH1 0x20 DUP5 ADD SWAP4 POP POP PUSH1 0x20 DUP2 ADD SWAP1 POP PUSH2 0x38AA JUMP JUMPDEST POP POP POP SWAP4 SWAP3 POP POP POP JUMP JUMPDEST PUSH0 DUP3 PUSH1 0x1F DUP4 ADD SLT PUSH2 0x38EF JUMPI PUSH2 0x38EE PUSH2 0x2BCC JUMP JUMPDEST JUMPDEST DUP2 CALLDATALOAD PUSH2 0x38FF DUP5 DUP3 PUSH1 0x20 DUP7 ADD PUSH2 0x3873 JUMP JUMPDEST SWAP2 POP POP SWAP3 SWAP2 POP POP JUMP JUMPDEST PUSH0 DUP1 PUSH1 0x40 DUP4 DUP6 SUB SLT ISZERO PUSH2 0x391E JUMPI PUSH2 0x391D PUSH2 0x2A5C JUMP JUMPDEST JUMPDEST PUSH0 DUP4 ADD CALLDATALOAD PUSH8 0xFFFFFFFFFFFFFFFF DUP2 GT ISZERO PUSH2 0x393B JUMPI PUSH2 0x393A PUSH2 0x2A60 JUMP JUMPDEST JUMPDEST PUSH2 0x3947 DUP6 DUP3 DUP7 ADD PUSH2 0x38DB JUMP JUMPDEST SWAP3 POP POP PUSH1 0x20 DUP4 ADD CALLDATALOAD PUSH8 0xFFFFFFFFFFFFFFFF DUP2 GT ISZERO PUSH2 0x3968 JUMPI PUSH2 0x3967 PUSH2 0x2A60 JUMP JUMPDEST JUMPDEST PUSH2 0x3974 DUP6 DUP3 DUP7 ADD PUSH2 0x3075 JUMP JUMPDEST SWAP2 POP POP SWAP3 POP SWAP3 SWAP1 POP JUMP JUMPDEST PUSH0 DUP2 MLOAD SWAP1 POP SWAP2 SWAP1 POP JUMP JUMPDEST PUSH0 DUP3 DUP3 MSTORE PUSH1 0x20 DUP3 ADD SWAP1 POP SWAP3 SWAP2 POP POP JUMP JUMPDEST PUSH0 DUP2 SWAP1 POP PUSH1 0x20 DUP3 ADD SWAP1 POP SWAP2 SWAP1 POP JUMP JUMPDEST PUSH2 0x39B0 DUP2 PUSH2 0x2B67 JUMP JUMPDEST DUP3 MSTORE POP POP JUMP JUMPDEST PUSH0 PUSH2 0x39C1 DUP4 DUP4 PUSH2 0x39A7 JUMP JUMPDEST PUSH1 0x20 DUP4 ADD SWAP1 POP SWAP3 SWAP2 POP POP JUMP JUMPDEST PUSH0 PUSH1 0x20 DUP3 ADD SWAP1 POP SWAP2 SWAP1 POP JUMP JUMPDEST PUSH0 PUSH2 0x39E3 DUP3 PUSH2 0x397E JUMP JUMPDEST PUSH2 0x39ED DUP2 DUP6 PUSH2 0x3988 JUMP JUMPDEST SWAP4 POP PUSH2 0x39F8 DUP4 PUSH2 0x3998 JUMP JUMPDEST DUP1 PUSH0 JUMPDEST DUP4 DUP2 LT ISZERO PUSH2 0x3A28 JUMPI DUP2 MLOAD PUSH2 0x3A0F DUP9 DUP3 PUSH2 0x39B6 JUMP JUMPDEST SWAP8 POP PUSH2 0x3A1A DUP4 PUSH2 0x39CD JUMP JUMPDEST SWAP3 POP POP PUSH1 0x1 DUP2 ADD SWAP1 POP PUSH2 0x39FB JUMP JUMPDEST POP DUP6 SWAP4 POP POP POP POP SWAP3 SWAP2 POP POP JUMP JUMPDEST PUSH0 PUSH1 0x20 DUP3 ADD SWAP1 POP DUP2 DUP2 SUB PUSH0 DUP4 ADD MSTORE PUSH2 0x3A4D DUP2 DUP5 PUSH2 0x39D9 JUMP JUMPDEST SWAP1 POP SWAP3 SWAP2 POP POP JUMP JUMPDEST PUSH0 PUSH1 0x20 DUP3 DUP5 SUB SLT ISZERO PUSH2 0x3A6A JUMPI PUSH2 0x3A69 PUSH2 0x2A5C JUMP JUMPDEST JUMPDEST PUSH0 DUP3 ADD CALLDATALOAD PUSH8 0xFFFFFFFFFFFFFFFF DUP2 GT ISZERO PUSH2 0x3A87 JUMPI PUSH2 0x3A86 PUSH2 0x2A60 JUMP JUMPDEST JUMPDEST PUSH2 0x3A93 DUP5 DUP3 DUP6 ADD PUSH2 0x38DB JUMP JUMPDEST SWAP2 POP POP SWAP3 SWAP2 POP POP JUMP JUMPDEST PUSH0 PUSH8 0xFFFFFFFFFFFFFFFF DUP3 GT ISZERO PUSH2 0x3AB6 JUMPI PUSH2 0x3AB5 PUSH2 0x2BD4 JUMP JUMPDEST JUMPDEST PUSH2 0x3ABF DUP3 PUSH2 0x29F5 JUMP JUMPDEST SWAP1 POP PUSH1 0x20 DUP2 ADD SWAP1 POP SWAP2 SWAP1 POP JUMP JUMPDEST PUSH0 PUSH2 0x3ADE PUSH2 0x3AD9 DUP5 PUSH2 0x3A9C JUMP JUMPDEST PUSH2 0x2C32 JUMP JUMPDEST SWAP1 POP DUP3 DUP2 MSTORE PUSH1 0x20 DUP2 ADD DUP5 DUP5 DUP5 ADD GT ISZERO PUSH2 0x3AFA JUMPI PUSH2 0x3AF9 PUSH2 0x2BD0 JUMP JUMPDEST JUMPDEST PUSH2 0x3B05 DUP5 DUP3 DUP6 PUSH2 0x29E7 JUMP JUMPDEST POP SWAP4 SWAP3 POP POP POP JUMP JUMPDEST PUSH0 DUP3 PUSH1 0x1F DUP4 ADD SLT PUSH2 0x3B21 JUMPI PUSH2 0x3B20 PUSH2 0x2BCC JUMP JUMPDEST JUMPDEST DUP2 CALLDATALOAD PUSH2 0x3B31 DUP5 DUP3 PUSH1 0x20 DUP7 ADD PUSH2 0x3ACC JUMP JUMPDEST SWAP2 POP POP SWAP3 SWAP2 POP POP JUMP JUMPDEST PUSH2 0x3B43 DUP2 PUSH2 0x32F3 JUMP JUMPDEST DUP2 EQ PUSH2 0x3B4D JUMPI PUSH0 DUP1 REVERT JUMPDEST POP JUMP JUMPDEST PUSH0 DUP2 CALLDATALOAD SWAP1 POP PUSH2 0x3B5E DUP2 PUSH2 0x3B3A JUMP JUMPDEST SWAP3 SWAP2 POP POP JUMP JUMPDEST PUSH2 0x3B6D DUP2 PUSH2 0x3311 JUMP JUMPDEST DUP2 EQ PUSH2 0x3B77 JUMPI PUSH0 DUP1 REVERT JUMPDEST POP JUMP JUMPDEST PUSH0 DUP2 CALLDATALOAD SWAP1 POP PUSH2 0x3B88 DUP2 PUSH2 0x3B64 JUMP JUMPDEST SWAP3 SWAP2 POP POP JUMP JUMPDEST PUSH2 0x3B97 DUP2 PUSH2 0x333B JUMP JUMPDEST DUP2 EQ PUSH2 0x3BA1 JUMPI PUSH0 DUP1 REVERT JUMPDEST POP JUMP JUMPDEST PUSH0 DUP2 CALLDATALOAD SWAP1 POP PUSH2 0x3BB2 DUP2 PUSH2 0x3B8E JUMP JUMPDEST SWAP3 SWAP2 POP POP JUMP JUMPDEST PUSH0 DUP1 DUP4 PUSH1 0x1F DUP5 ADD SLT PUSH2 0x3BCD JUMPI PUSH2 0x3BCC PUSH2 0x2BCC JUMP JUMPDEST JUMPDEST DUP3 CALLDATALOAD SWAP1 POP PUSH8 0xFFFFFFFFFFFFFFFF DUP2 GT ISZERO PUSH2 0x3BEA JUMPI PUSH2 0x3BE9 PUSH2 0x34D0 JUMP JUMPDEST JUMPDEST PUSH1 0x20 DUP4 ADD SWAP2 POP DUP4 PUSH1 0x1 DUP3 MUL DUP4 ADD GT ISZERO PUSH2 0x3C06 JUMPI PUSH2 0x3C05 PUSH2 0x2D81 JUMP JUMPDEST JUMPDEST SWAP3 POP SWAP3 SWAP1 POP JUMP JUMPDEST PUSH0 DUP1 PUSH0 DUP1 PUSH0 DUP1 PUSH0 PUSH1 0xC0 DUP9 DUP11 SUB SLT ISZERO PUSH2 0x3C28 JUMPI PUSH2 0x3C27 PUSH2 0x2A5C JUMP JUMPDEST JUMPDEST PUSH0 PUSH2 0x3C35 DUP11 DUP3 DUP12 ADD PUSH2 0x2B8E JUMP JUMPDEST SWAP8 POP POP PUSH1 0x20 DUP9 ADD CALLDATALOAD PUSH8 0xFFFFFFFFFFFFFFFF DUP2 GT ISZERO PUSH2 0x3C56 JUMPI PUSH2 0x3C55 PUSH2 0x2A60 JUMP JUMPDEST JUMPDEST PUSH2 0x3C62 DUP11 DUP3 DUP12 ADD PUSH2 0x3B0D JUMP JUMPDEST SWAP7 POP POP PUSH1 0x40 PUSH2 0x3C73 DUP11 DUP3 DUP12 ADD PUSH2 0x3B50 JUMP JUMPDEST SWAP6 POP POP PUSH1 0x60 PUSH2 0x3C84 DUP11 DUP3 DUP12 ADD PUSH2 0x3B7A JUMP JUMPDEST SWAP5 POP POP PUSH1 0x80 PUSH2 0x3C95 DUP11 DUP3 DUP12 ADD PUSH2 0x3BA4 JUMP JUMPDEST SWAP4 POP POP PUSH1 0xA0 DUP9 ADD CALLDATALOAD PUSH8 0xFFFFFFFFFFFFFFFF DUP2 GT ISZERO PUSH2 0x3CB6 JUMPI PUSH2 0x3CB5 PUSH2 0x2A60 JUMP JUMPDEST JUMPDEST PUSH2 0x3CC2 DUP11 DUP3 DUP12 ADD PUSH2 0x3BB8 JUMP JUMPDEST SWAP3 POP SWAP3 POP POP SWAP3 SWAP6 SWAP9 SWAP2 SWAP5 SWAP8 POP SWAP3 SWAP6 POP JUMP JUMPDEST PUSH2 0x3CDC DUP2 PUSH2 0x2A64 JUMP JUMPDEST DUP3 MSTORE POP POP JUMP JUMPDEST PUSH0 PUSH1 0x20 DUP3 ADD SWAP1 POP PUSH2 0x3CF5 PUSH0 DUP4 ADD DUP5 PUSH2 0x3CD3 JUMP JUMPDEST SWAP3 SWAP2 POP POP JUMP JUMPDEST PUSH0 DUP2 SWAP1 POP SWAP3 SWAP2 POP POP JUMP JUMPDEST PUSH0 PUSH2 0x3D10 DUP4 DUP6 PUSH2 0x3CFB JUMP JUMPDEST SWAP4 POP PUSH2 0x3D1D DUP4 DUP6 DUP5 PUSH2 0x29E7 JUMP JUMPDEST DUP3 DUP5 ADD SWAP1 POP SWAP4 SWAP3 POP POP POP JUMP JUMPDEST PUSH0 DUP2 PUSH1 0x60 SHL SWAP1 POP SWAP2 SWAP1 POP JUMP JUMPDEST PUSH0 PUSH2 0x3D3F DUP3 PUSH2 0x3D29 JUMP JUMPDEST SWAP1 POP SWAP2 SWAP1 POP JUMP JUMPDEST PUSH0 PUSH2 0x3D50 DUP3 PUSH2 0x3D35 JUMP JUMPDEST SWAP1 POP SWAP2 SWAP1 POP JUMP JUMPDEST PUSH2 0x3D68 PUSH2 0x3D63 DUP3 PUSH2 0x2B67 JUMP JUMPDEST PUSH2 0x3D46 JUMP JUMPDEST DUP3 MSTORE POP POP JUMP JUMPDEST PUSH0 DUP2 SWAP1 POP SWAP2 SWAP1 POP JUMP JUMPDEST PUSH2 0x3D88 PUSH2 0x3D83 DUP3 PUSH2 0x2B17 JUMP JUMPDEST PUSH2 0x3D6E JUMP JUMPDEST DUP3 MSTORE POP POP JUMP JUMPDEST PUSH0 PUSH2 0x3D9A DUP3 DUP7 DUP9 PUSH2 0x3D05 JUMP JUMPDEST SWAP2 POP PUSH2 0x3DA6 DUP3 DUP6 PUSH2 0x3D57 JUMP JUMPDEST PUSH1 0x14 DUP3 ADD SWAP2 POP PUSH2 0x3DB6 DUP3 DUP5 PUSH2 0x3D77 JUMP JUMPDEST PUSH1 0x20 DUP3 ADD SWAP2 POP DUP2 SWAP1 POP SWAP6 SWAP5 POP POP POP POP POP JUMP JUMPDEST PUSH0 PUSH2 0x3DD2 DUP3 PUSH2 0x3357 JUMP JUMPDEST PUSH2 0x3DDC DUP2 DUP6 PUSH2 0x3CFB JUMP JUMPDEST SWAP4 POP PUSH2 0x3DEC DUP2 DUP6 PUSH1 0x20 DUP7 ADD PUSH2 0x32AD JUMP JUMPDEST DUP1 DUP5 ADD SWAP2 POP POP SWAP3 SWAP2 POP POP JUMP JUMPDEST PUSH0 PUSH2 0x3E03 DUP3 DUP5 PUSH2 0x3DC8 JUMP JUMPDEST SWAP2 POP DUP2 SWAP1 POP SWAP3 SWAP2 POP POP JUMP JUMPDEST PUSH32 0x4E487B7100000000000000000000000000000000000000000000000000000000 PUSH0 MSTORE PUSH1 0x11 PUSH1 0x4 MSTORE PUSH1 0x24 PUSH0 REVERT JUMPDEST PUSH0 PUSH2 0x3E45 DUP3 PUSH2 0x2B17 JUMP JUMPDEST SWAP2 POP PUSH2 0x3E50 DUP4 PUSH2 0x2B17 JUMP JUMPDEST SWAP3 POP DUP3 DUP3 ADD SWAP1 POP DUP1 DUP3 GT ISZERO PUSH2 0x3E68 JUMPI PUSH2 0x3E67 PUSH2 0x3E0E JUMP JUMPDEST JUMPDEST SWAP3 SWAP2 POP POP JUMP JUMPDEST PUSH0 PUSH1 0x60 DUP3 ADD SWAP1 POP PUSH2 0x3E81 PUSH0 DUP4 ADD DUP7 PUSH2 0x3284 JUMP JUMPDEST PUSH2 0x3E8E PUSH1 0x20 DUP4 ADD DUP6 PUSH2 0x2B20 JUMP JUMPDEST DUP2 DUP2 SUB PUSH1 0x40 DUP4 ADD MSTORE PUSH2 0x3EA0 DUP2 DUP5 PUSH2 0x3361 JUMP JUMPDEST SWAP1 POP SWAP5 SWAP4 POP POP POP POP JUMP JUMPDEST PUSH32 0x4E487B7100000000000000000000000000000000000000000000000000000000 PUSH0 MSTORE PUSH1 0x32 PUSH1 0x4 MSTORE PUSH1 0x24 PUSH0 REVERT JUMPDEST PUSH0 PUSH1 0x60 DUP3 ADD SWAP1 POP PUSH2 0x3EEA PUSH0 DUP4 ADD DUP7 PUSH2 0x3284 JUMP JUMPDEST PUSH2 0x3EF7 PUSH1 0x20 DUP4 ADD DUP6 PUSH2 0x3284 JUMP JUMPDEST PUSH2 0x3F04 PUSH1 0x40 DUP4 ADD DUP5 PUSH2 0x3284 JUMP JUMPDEST SWAP5 SWAP4 POP POP POP POP JUMP JUMPDEST PUSH0 DUP2 SWAP1 POP SWAP2 SWAP1 POP JUMP JUMPDEST PUSH0 DUP2 SWAP1 POP SWAP2 SWAP1 POP JUMP JUMPDEST PUSH0 PUSH2 0x3F38 PUSH2 0x3F33 PUSH2 0x3F2E DUP5 PUSH2 0x3F0C JUMP JUMPDEST PUSH2 0x3F15 JUMP JUMPDEST PUSH2 0x3225 JUMP JUMPDEST SWAP1 POP SWAP2 SWAP1 POP JUMP JUMPDEST PUSH2 0x3F48 DUP2 PUSH2 0x3F1E JUMP JUMPDEST DUP3 MSTORE POP POP JUMP JUMPDEST PUSH0 PUSH1 0x60 DUP3 ADD SWAP1 POP PUSH2 0x3F61 PUSH0 DUP4 ADD DUP7 PUSH2 0x3284 JUMP JUMPDEST PUSH2 0x3F6E PUSH1 0x20 DUP4 ADD DUP6 PUSH2 0x3F3F JUMP JUMPDEST DUP2 DUP2 SUB PUSH1 0x40 DUP4 ADD MSTORE PUSH2 0x3F80 DUP2 DUP5 PUSH2 0x3361 JUMP JUMPDEST SWAP1 POP SWAP5 SWAP4 POP POP POP POP JUMP JUMPDEST PUSH32 0x4E487B7100000000000000000000000000000000000000000000000000000000 PUSH0 MSTORE PUSH1 0x22 PUSH1 0x4 MSTORE PUSH1 0x24 PUSH0 REVERT JUMPDEST PUSH0 PUSH1 0x2 DUP3 DIV SWAP1 POP PUSH1 0x1 DUP3 AND DUP1 PUSH2 0x3FCE JUMPI PUSH1 0x7F DUP3 AND SWAP2 POP JUMPDEST PUSH1 0x20 DUP3 LT DUP2 SUB PUSH2 0x3FE1 JUMPI PUSH2 0x3FE0 PUSH2 0x3F8A JUMP JUMPDEST JUMPDEST POP SWAP2 SWAP1 POP JUMP JUMPDEST PUSH0 DUP1 REVERT JUMPDEST PUSH0 DUP1 REVERT JUMPDEST PUSH0 DUP1 REVERT JUMPDEST PUSH0 DUP1 DUP4 CALLDATALOAD PUSH1 0x1 PUSH1 0x20 SUB DUP5 CALLDATASIZE SUB SUB DUP2 SLT PUSH2 0x400F JUMPI PUSH2 0x400E PUSH2 0x3FE7 JUMP JUMPDEST JUMPDEST DUP1 DUP5 ADD SWAP3 POP DUP3 CALLDATALOAD SWAP2 POP PUSH8 0xFFFFFFFFFFFFFFFF DUP3 GT ISZERO PUSH2 0x4031 JUMPI PUSH2 0x4030 PUSH2 0x3FEB JUMP JUMPDEST JUMPDEST PUSH1 0x20 DUP4 ADD SWAP3 POP PUSH1 0x1 DUP3 MUL CALLDATASIZE SUB DUP4 SGT ISZERO PUSH2 0x404D JUMPI PUSH2 0x404C PUSH2 0x3FEF JUMP JUMPDEST JUMPDEST POP SWAP3 POP SWAP3 SWAP1 POP JUMP JUMPDEST PUSH0 PUSH2 0x4061 DUP3 DUP5 DUP7 PUSH2 0x3D05 JUMP JUMPDEST SWAP2 POP DUP2 SWAP1 POP SWAP4 SWAP3 POP POP POP JUMP JUMPDEST PUSH32 0x4F776E61626C653A206E6577206F776E657220697320746865207A65726F2061 PUSH0 DUP3 ADD MSTORE PUSH32 0x6464726573730000000000000000000000000000000000000000000000000000 PUSH1 0x20 DUP3 ADD MSTORE POP JUMP JUMPDEST PUSH0 PUSH2 0x40C7 PUSH1 0x26 DUP4 PUSH2 0x329D JUMP JUMPDEST SWAP2 POP PUSH2 0x40D2 DUP3 PUSH2 0x406D JUMP JUMPDEST PUSH1 0x40 DUP3 ADD SWAP1 POP SWAP2 SWAP1 POP JUMP JUMPDEST PUSH0 PUSH1 0x20 DUP3 ADD SWAP1 POP DUP2 DUP2 SUB PUSH0 DUP4 ADD MSTORE PUSH2 0x40F4 DUP2 PUSH2 0x40BB JUMP JUMPDEST SWAP1 POP SWAP2 SWAP1 POP JUMP JUMPDEST PUSH32 0x41737365742063616E6E6F74206265207A65726F2E0000000000000000000000 PUSH0 DUP3 ADD MSTORE POP JUMP JUMPDEST PUSH0 PUSH2 0x412F PUSH1 0x15 DUP4 PUSH2 0x329D JUMP JUMPDEST SWAP2 POP PUSH2 0x413A DUP3 PUSH2 0x40FB JUMP JUMPDEST PUSH1 0x20 DUP3 ADD SWAP1 POP SWAP2 SWAP1 POP JUMP JUMPDEST PUSH0 PUSH1 0x20 DUP3 ADD SWAP1 POP DUP2 DUP2 SUB PUSH0 DUP4 ADD MSTORE PUSH2 0x415C DUP2 PUSH2 0x4123 JUMP JUMPDEST SWAP1 POP SWAP2 SWAP1 POP JUMP JUMPDEST PUSH0 PUSH2 0x416D DUP3 PUSH2 0x2B17 JUMP JUMPDEST SWAP2 POP PUSH32 0xFFFFFFFFFFFFFFFFFFFFFFFFFFFFFFFFFFFFFFFFFFFFFFFFFFFFFFFFFFFFFFFF DUP3 SUB PUSH2 0x419F JUMPI PUSH2 0x419E PUSH2 0x3E0E JUMP JUMPDEST JUMPDEST PUSH1 0x1 DUP3 ADD SWAP1 POP SWAP2 SWAP1 POP JUMP JUMPDEST PUSH0 DUP2 SWAP1 POP DUP2 PUSH0 MSTORE PUSH1 0x20 PUSH0 KECCAK256 SWAP1 POP SWAP2 SWAP1 POP JUMP JUMPDEST PUSH0 PUSH1 0x20 PUSH1 0x1F DUP4 ADD DIV SWAP1 POP SWAP2 SWAP1 POP JUMP JUMPDEST PUSH0 DUP3 DUP3 SHL SWAP1 POP SWAP3 SWAP2 POP POP JUMP JUMPDEST PUSH0 PUSH1 0x8 DUP4 MUL PUSH2 0x4206 PUSH32 0xFFFFFFFFFFFFFFFFFFFFFFFFFFFFFFFFFFFFFFFFFFFFFFFFFFFFFFFFFFFFFFFF DUP3 PUSH2 0x41CB JUMP JUMPDEST PUSH2 0x4210 DUP7 DUP4 PUSH2 0x41CB JUMP JUMPDEST SWAP6 POP DUP1 NOT DUP5 AND SWAP4 POP DUP1 DUP7 AND DUP5 OR SWAP3 POP POP POP SWAP4 SWAP3 POP POP POP JUMP JUMPDEST PUSH0 PUSH2 0x4242 PUSH2 0x423D PUSH2 0x4238 DUP5 PUSH2 0x2B17 JUMP JUMPDEST PUSH2 0x3F15 JUMP JUMPDEST PUSH2 0x2B17 JUMP JUMPDEST SWAP1 POP SWAP2 SWAP1 POP JUMP JUMPDEST PUSH0 DUP2 SWAP1 POP SWAP2 SWAP1 POP JUMP JUMPDEST PUSH2 0x425B DUP4 PUSH2 0x4228 JUMP JUMPDEST PUSH2 0x426F PUSH2 0x4267 DUP3 PUSH2 0x4249 JUMP JUMPDEST DUP5 DUP5 SLOAD PUSH2 0x41D7 JUMP JUMPDEST DUP3 SSTORE POP POP POP POP JUMP JUMPDEST PUSH0 SWAP1 JUMP JUMPDEST PUSH2 0x4283 PUSH2 0x4277 JUMP JUMPDEST PUSH2 0x428E DUP2 DUP5 DUP5 PUSH2 0x4252 JUMP JUMPDEST POP POP POP JUMP JUMPDEST JUMPDEST DUP2 DUP2 LT ISZERO PUSH2 0x42B1 JUMPI PUSH2 0x42A6 PUSH0 DUP3 PUSH2 0x427B JUMP JUMPDEST PUSH1 0x1 DUP2 ADD SWAP1 POP PUSH2 0x4294 JUMP JUMPDEST POP POP JUMP JUMPDEST PUSH1 0x1F DUP3 GT ISZERO PUSH2 0x42F6 JUMPI PUSH2 0x42C7 DUP2 PUSH2 0x41AA JUMP JUMPDEST PUSH2 0x42D0 DUP5 PUSH2 0x41BC JUMP JUMPDEST DUP2 ADD PUSH1 0x20 DUP6 LT ISZERO PUSH2 0x42DF JUMPI DUP2 SWAP1 POP JUMPDEST PUSH2 0x42F3 PUSH2 0x42EB DUP6 PUSH2 0x41BC JUMP JUMPDEST DUP4 ADD DUP3 PUSH2 0x4293 JUMP JUMPDEST POP POP JUMPDEST POP POP POP JUMP JUMPDEST PUSH0 DUP3 DUP3 SHR SWAP1 POP SWAP3 SWAP2 POP POP JUMP JUMPDEST PUSH0 PUSH2 0x4316 PUSH0 NOT DUP5 PUSH1 0x8 MUL PUSH2 0x42FB JUMP JUMPDEST NOT DUP1 DUP4 AND SWAP2 POP POP SWAP3 SWAP2 POP POP JUMP JUMPDEST PUSH0 PUSH2 0x432E DUP4 DUP4 PUSH2 0x4307 JUMP JUMPDEST SWAP2 POP DUP3 PUSH1 0x2 MUL DUP3 OR SWAP1 POP SWAP3 SWAP2 POP POP JUMP JUMPDEST PUSH2 0x4347 DUP3 PUSH2 0x3293 JUMP JUMPDEST PUSH8 0xFFFFFFFFFFFFFFFF DUP2 GT ISZERO PUSH2 0x4360 JUMPI PUSH2 0x435F PUSH2 0x2BD4 JUMP JUMPDEST JUMPDEST PUSH2 0x436A DUP3 SLOAD PUSH2 0x3FB7 JUMP JUMPDEST PUSH2 0x4375 DUP3 DUP3 DUP6 PUSH2 0x42B5 JUMP JUMPDEST PUSH0 PUSH1 0x20 SWAP1 POP PUSH1 0x1F DUP4 GT PUSH1 0x1 DUP2 EQ PUSH2 0x43A6 JUMPI PUSH0 DUP5 ISZERO PUSH2 0x4394 JUMPI DUP3 DUP8 ADD MLOAD SWAP1 POP JUMPDEST PUSH2 0x439E DUP6 DUP3 PUSH2 0x4323 JUMP JUMPDEST DUP7 SSTORE POP PUSH2 0x4405 JUMP JUMPDEST PUSH1 0x1F NOT DUP5 AND PUSH2 0x43B4 DUP7 PUSH2 0x41AA JUMP JUMPDEST PUSH0 JUMPDEST DUP3 DUP2 LT ISZERO PUSH2 0x43DB JUMPI DUP5 DUP10 ADD MLOAD DUP3 SSTORE PUSH1 0x1 DUP3 ADD SWAP2 POP PUSH1 0x20 DUP6 ADD SWAP5 POP PUSH1 0x20 DUP2 ADD SWAP1 POP PUSH2 0x43B6 JUMP JUMPDEST DUP7 DUP4 LT ISZERO PUSH2 0x43F8 JUMPI DUP5 DUP10 ADD MLOAD PUSH2 0x43F4 PUSH1 0x1F DUP10 AND DUP3 PUSH2 0x4307 JUMP JUMPDEST DUP4 SSTORE POP JUMPDEST PUSH1 0x1 PUSH1 0x2 DUP9 MUL ADD DUP9 SSTORE POP POP POP JUMPDEST POP POP POP POP POP POP JUMP JUMPDEST PUSH0 DUP2 SWAP1 POP DUP2 PUSH0 MSTORE PUSH1 0x20 PUSH0 KECCAK256 SWAP1 POP SWAP2 SWAP1 POP JUMP JUMPDEST PUSH1 0x1F DUP3 GT ISZERO PUSH2 0x4460 JUMPI PUSH2 0x4431 DUP2 PUSH2 0x440D JUMP JUMPDEST PUSH2 0x443A DUP5 PUSH2 0x41BC JUMP JUMPDEST DUP2 ADD PUSH1 0x20 DUP6 LT ISZERO PUSH2 0x4449 JUMPI DUP2 SWAP1 POP JUMPDEST PUSH2 0x445D PUSH2 0x4455 DUP6 PUSH2 0x41BC JUMP JUMPDEST DUP4 ADD DUP3 PUSH2 0x4293 JUMP JUMPDEST POP POP JUMPDEST POP POP POP JUMP JUMPDEST PUSH2 0x446E DUP3 PUSH2 0x3357 JUMP JUMPDEST PUSH8 0xFFFFFFFFFFFFFFFF DUP2 GT ISZERO PUSH2 0x4487 JUMPI PUSH2 0x4486 PUSH2 0x2BD4 JUMP JUMPDEST JUMPDEST PUSH2 0x4491 DUP3 SLOAD PUSH2 0x3FB7 JUMP JUMPDEST PUSH2 0x449C DUP3 DUP3 DUP6 PUSH2 0x441F JUMP JUMPDEST PUSH0 PUSH1 0x20 SWAP1 POP PUSH1 0x1F DUP4 GT PUSH1 0x1 DUP2 EQ PUSH2 0x44CD JUMPI PUSH0 DUP5 ISZERO PUSH2 0x44BB JUMPI DUP3 DUP8 ADD MLOAD SWAP1 POP JUMPDEST PUSH2 0x44C5 DUP6 DUP3 PUSH2 0x4323 JUMP JUMPDEST DUP7 SSTORE POP PUSH2 0x452C JUMP JUMPDEST PUSH1 0x1F NOT DUP5 AND PUSH2 0x44DB DUP7 PUSH2 0x440D JUMP JUMPDEST PUSH0 JUMPDEST DUP3 DUP2 LT ISZERO PUSH2 0x4502 JUMPI DUP5 DUP10 ADD MLOAD DUP3 SSTORE PUSH1 0x1 DUP3 ADD SWAP2 POP PUSH1 0x20 DUP6 ADD SWAP5 POP PUSH1 0x20 DUP2 ADD SWAP1 POP PUSH2 0x44DD JUMP JUMPDEST DUP7 DUP4 LT ISZERO PUSH2 0x451F JUMPI DUP5 DUP10 ADD MLOAD PUSH2 0x451B PUSH1 0x1F DUP10 AND DUP3 PUSH2 0x4307 JUMP JUMPDEST DUP4 SSTORE POP JUMPDEST PUSH1 0x1 PUSH1 0x2 DUP9 MUL ADD DUP9 SSTORE POP POP POP JUMPDEST POP POP POP POP POP POP JUMP JUMPDEST PUSH0 PUSH1 0xA0 DUP3 ADD SWAP1 POP DUP2 DUP2 SUB PUSH0 DUP4 ADD MSTORE PUSH2 0x454C DUP2 DUP10 PUSH2 0x32BB JUMP JUMPDEST SWAP1 POP PUSH2 0x455B PUSH1 0x20 DUP4 ADD DUP9 PUSH2 0x3302 JUMP JUMPDEST PUSH2 0x4568 PUSH1 0x40 DUP4 ADD DUP8 PUSH2 0x332C JUMP JUMPDEST PUSH2 0x4575 PUSH1 0x60 DUP4 ADD DUP7 PUSH2 0x3348 JUMP JUMPDEST DUP2 DUP2 SUB PUSH1 0x80 DUP4 ADD MSTORE PUSH2 0x4588 DUP2 DUP5 DUP7 PUSH2 0x2A05 JUMP JUMPDEST SWAP1 POP SWAP8 SWAP7 POP POP POP POP POP POP POP JUMP JUMPDEST PUSH0 DUP2 SWAP1 POP PUSH1 0x20 DUP3 ADD SWAP1 POP SWAP2 SWAP1 POP JUMP JUMPDEST PUSH0 PUSH32 0xFFFFFFFFFFFFFFFFFFFFFFFFFFFFFFFFFFFFFFFF000000000000000000000000 DUP3 AND SWAP1 POP SWAP2 SWAP1 POP JUMP JUMPDEST PUSH0 PUSH2 0x45DA DUP3 MLOAD PUSH2 0x45A4 JUMP JUMPDEST DUP1 SWAP2 POP POP SWAP2 SWAP1 POP JUMP JUMPDEST PUSH0 PUSH2 0x45ED DUP3 PUSH2 0x3357 JUMP JUMPDEST DUP3 PUSH2 0x45F7 DUP5 PUSH2 0x4595 JUMP JUMPDEST SWAP1 POP PUSH2 0x4602 DUP2 PUSH2 0x45CF JUMP JUMPDEST SWAP3 POP PUSH1 0x14 DUP3 LT ISZERO PUSH2 0x4642 JUMPI PUSH2 0x463D PUSH32 0xFFFFFFFFFFFFFFFFFFFFFFFFFFFFFFFFFFFFFFFF000000000000000000000000 DUP4 PUSH1 0x14 SUB PUSH1 0x8 MUL PUSH2 0x41CB JUMP JUMPDEST DUP4 AND SWAP3 POP JUMPDEST POP POP SWAP2 SWAP1 POP JUMP JUMPDEST PUSH32 0x4F776E61626C653A2063616C6C6572206973206E6F7420746865206F776E6572 PUSH0 DUP3 ADD MSTORE POP JUMP JUMPDEST PUSH0 PUSH2 0x467D PUSH1 0x20 DUP4 PUSH2 0x329D JUMP JUMPDEST SWAP2 POP PUSH2 0x4688 DUP3 PUSH2 0x4649 JUMP JUMPDEST PUSH1 0x20 DUP3 ADD SWAP1 POP SWAP2 SWAP1 POP JUMP JUMPDEST PUSH0 PUSH1 0x20 DUP3 ADD SWAP1 POP DUP2 DUP2 SUB PUSH0 DUP4 ADD MSTORE PUSH2 0x46AA DUP2 PUSH2 0x4671 JUMP JUMPDEST SWAP1 POP SWAP2 SWAP1 POP JUMP JUMPDEST PUSH0 PUSH1 0x80 DUP3 ADD SWAP1 POP PUSH2 0x46C4 PUSH0 DUP4 ADD DUP8 PUSH2 0x3284 JUMP JUMPDEST PUSH2 0x46D1 PUSH1 0x20 DUP4 ADD DUP7 PUSH2 0x2B20 JUMP JUMPDEST PUSH2 0x46DE PUSH1 0x40 DUP4 ADD DUP6 PUSH2 0x3284 JUMP JUMPDEST PUSH2 0x46EB PUSH1 0x60 DUP4 ADD DUP5 PUSH2 0x2B20 JUMP JUMPDEST SWAP6 SWAP5 POP POP POP POP POP JUMP JUMPDEST PUSH0 PUSH2 0x46FE DUP3 PUSH2 0x2B17 JUMP JUMPDEST SWAP2 POP PUSH2 0x4709 DUP4 PUSH2 0x2B17 JUMP JUMPDEST SWAP3 POP DUP3 DUP3 SUB SWAP1 POP DUP2 DUP2 GT ISZERO PUSH2 0x4721 JUMPI PUSH2 0x4720 PUSH2 0x3E0E JUMP JUMPDEST JUMPDEST SWAP3 SWAP2 POP POP JUMP JUMPDEST PUSH0 PUSH1 0xA0 DUP3 ADD SWAP1 POP PUSH2 0x473A PUSH0 DUP4 ADD DUP9 PUSH2 0x3284 JUMP JUMPDEST PUSH2 0x4747 PUSH1 0x20 DUP4 ADD DUP8 PUSH2 0x3284 JUMP JUMPDEST PUSH2 0x4754 PUSH1 0x40 DUP4 ADD DUP7 PUSH2 0x3284 JUMP JUMPDEST PUSH2 0x4761 PUSH1 0x60 DUP4 ADD DUP6 PUSH2 0x2B20 JUMP JUMPDEST DUP2 DUP2 SUB PUSH1 0x80 DUP4 ADD MSTORE PUSH2 0x4773 DUP2 DUP5 PUSH2 0x3361 JUMP JUMPDEST SWAP1 POP SWAP7 SWAP6 POP POP POP POP POP POP JUMP JUMPDEST PUSH0 PUSH32 0xFFFFFFFFFFFFFFFFFFFF00000000000000000000000000000000000000000000 DUP3 AND SWAP1 POP SWAP2 SWAP1 POP JUMP JUMPDEST PUSH0 DUP2 SWAP1 POP SWAP2 SWAP1 POP JUMP JUMPDEST PUSH2 0x47C4 PUSH2 0x47BF DUP3 PUSH2 0x477F JUMP JUMPDEST PUSH2 0x47AA JUMP JUMPDEST DUP3 MSTORE POP POP JUMP JUMPDEST PUSH0 PUSH32 0xFFFF000000000000000000000000000000000000000000000000000000000000 DUP3 AND SWAP1 POP SWAP2 SWAP1 POP JUMP JUMPDEST PUSH0 DUP2 SWAP1 POP SWAP2 SWAP1 POP JUMP JUMPDEST PUSH2 0x480F PUSH2 0x480A DUP3 PUSH2 0x47CA JUMP JUMPDEST PUSH2 0x47F5 JUMP JUMPDEST DUP3 MSTORE POP POP JUMP JUMPDEST PUSH0 DUP2 SWAP1 POP SWAP2 SWAP1 POP JUMP JUMPDEST PUSH2 0x482F PUSH2 0x482A DUP3 PUSH2 0x45A4 JUMP JUMPDEST PUSH2 0x4815 JUMP JUMPDEST DUP3 MSTORE POP POP JUMP JUMPDEST PUSH0 PUSH2 0x4840 DUP3 DUP7 PUSH2 0x47B3 JUMP JUMPDEST PUSH1 0xA DUP3 ADD SWAP2 POP PUSH2 0x4850 DUP3 DUP6 PUSH2 0x47FE JUMP JUMPDEST PUSH1 0x2 DUP3 ADD SWAP2 POP PUSH2 0x4860 DUP3 DUP5 PUSH2 0x481E JUMP JUMPDEST PUSH1 0x14 DUP3 ADD SWAP2 POP DUP2 SWAP1 POP SWAP5 SWAP4 POP POP POP POP JUMP JUMPDEST PUSH0 PUSH2 0x487C DUP3 MLOAD PUSH2 0x3414 JUMP JUMPDEST DUP1 SWAP2 POP POP SWAP2 SWAP1 POP JUMP JUMPDEST PUSH0 PUSH2 0x488F DUP3 PUSH2 0x3357 JUMP JUMPDEST DUP3 PUSH2 0x4899 DUP5 PUSH2 0x4595 JUMP JUMPDEST SWAP1 POP PUSH2 0x48A4 DUP2 PUSH2 0x4871 JUMP JUMPDEST SWAP3 POP PUSH1 0x20 DUP3 LT ISZERO PUSH2 0x48E4 JUMPI PUSH2 0x48DF PUSH32 0xFFFFFFFFFFFFFFFFFFFFFFFFFFFFFFFFFFFFFFFFFFFFFFFFFFFFFFFFFFFFFFFF DUP4 PUSH1 0x20 SUB PUSH1 0x8 MUL PUSH2 0x41CB JUMP JUMPDEST DUP4 AND SWAP3 POP JUMPDEST POP POP SWAP2 SWAP1 POP JUMP JUMPDEST PUSH2 0x48F4 DUP2 PUSH2 0x3414 JUMP JUMPDEST DUP3 MSTORE POP POP JUMP JUMPDEST PUSH0 PUSH1 0x40 DUP3 ADD SWAP1 POP PUSH2 0x490D PUSH0 DUP4 ADD DUP6 PUSH2 0x48EB JUMP JUMPDEST DUP2 DUP2 SUB PUSH1 0x20 DUP4 ADD MSTORE PUSH2 0x491F DUP2 DUP5 PUSH2 0x3361 JUMP JUMPDEST SWAP1 POP SWAP4 SWAP3 POP POP POP JUMP JUMPDEST PUSH0 PUSH2 0x493A PUSH2 0x4935 DUP5 PUSH2 0x2C4C JUMP JUMPDEST PUSH2 0x2C32 JUMP JUMPDEST SWAP1 POP DUP3 DUP2 MSTORE PUSH1 0x20 DUP2 ADD DUP5 DUP5 DUP5 ADD GT ISZERO PUSH2 0x4956 JUMPI PUSH2 0x4955 PUSH2 0x2BD0 JUMP JUMPDEST JUMPDEST PUSH2 0x4961 DUP5 DUP3 DUP6 PUSH2 0x32AD JUMP JUMPDEST POP SWAP4 SWAP3 POP POP POP JUMP JUMPDEST PUSH0 DUP3 PUSH1 0x1F DUP4 ADD SLT PUSH2 0x497D JUMPI PUSH2 0x497C PUSH2 0x2BCC JUMP JUMPDEST JUMPDEST DUP2 MLOAD PUSH2 0x498D DUP5 DUP3 PUSH1 0x20 DUP7 ADD PUSH2 0x4928 JUMP JUMPDEST SWAP2 POP POP SWAP3 SWAP2 POP POP JUMP JUMPDEST PUSH0 PUSH1 0x20 DUP3 DUP5 SUB SLT ISZERO PUSH2 0x49AB JUMPI PUSH2 0x49AA PUSH2 0x2A5C JUMP JUMPDEST JUMPDEST PUSH0 DUP3 ADD MLOAD PUSH8 0xFFFFFFFFFFFFFFFF DUP2 GT ISZERO PUSH2 0x49C8 JUMPI PUSH2 0x49C7 PUSH2 0x2A60 JUMP JUMPDEST JUMPDEST PUSH2 0x49D4 DUP5 DUP3 DUP6 ADD PUSH2 0x4969 JUMP JUMPDEST SWAP2 POP POP SWAP3 SWAP2 POP POP JUMP JUMPDEST PUSH0 PUSH1 0x60 DUP3 ADD SWAP1 POP PUSH2 0x49F0 PUSH0 DUP4 ADD DUP7 PUSH2 0x2B20 JUMP JUMPDEST PUSH2 0x49FD PUSH1 0x20 DUP4 ADD DUP6 PUSH2 0x3284 JUMP JUMPDEST PUSH2 0x4A0A PUSH1 0x40 DUP4 ADD DUP5 PUSH2 0x2B20 JUMP JUMPDEST SWAP5 SWAP4 POP POP POP POP JUMP JUMPDEST PUSH0 PUSH1 0x60 DUP3 ADD SWAP1 POP PUSH2 0x4A25 PUSH0 DUP4 ADD DUP7 PUSH2 0x2B20 JUMP JUMPDEST PUSH2 0x4A32 PUSH1 0x20 DUP4 ADD DUP6 PUSH2 0x2AEF JUMP JUMPDEST DUP2 DUP2 SUB PUSH1 0x40 DUP4 ADD MSTORE PUSH2 0x4A44 DUP2 DUP5 PUSH2 0x3361 JUMP JUMPDEST SWAP1 POP SWAP5 SWAP4 POP POP POP POP JUMP JUMPDEST PUSH32 0x4E487B7100000000000000000000000000000000000000000000000000000000 PUSH0 MSTORE PUSH1 0x31 PUSH1 0x4 MSTORE PUSH1 0x24 PUSH0 REVERT INVALID LOG2 PUSH5 0x6970667358 0x22 SLT KECCAK256 0xBC AND PUSH23 0x9490C3EEFDCAEBDE928EC5D4AD550D5CD88C6D73BC019A 0xFC PUSH10 0xDE28796064736F6C6343 STOP ADDMOD BYTE STOP CALLER "
		},
		"gasEstimates": {
			"creation": {
				"codeDepositCost": "3824200",
				"executionCost": "infinite",
				"totalCost": "infinite"
			},
			"external": {
				"": "infinite",
				"authorizeOperator(address,uint256,bytes)": "infinite",
				"authorizedAmountFor(address,address)": "infinite",
				"balanceOf(address)": "2962",
				"batchCalls(bytes[])": "infinite",
				"createTradingSignal(address,string,uint32,uint128,uint16,bytes)": "infinite",
				"decimals()": "2524",
				"decreaseAllowance(address,address,uint256,bytes)": "infinite",
				"getData(bytes32)": "infinite",
				"getDataBatch(bytes32[])": "infinite",
				"getOperatorsOf(address)": "infinite",
				"increaseAllowance(address,uint256,bytes)": "infinite",
				"owner()": "2626",
				"renounceOwnership()": "30413",
				"revokeOperator(address,address,bool,bytes)": "infinite",
				"setData(bytes32,bytes)": "infinite",
				"setDataBatch(bytes32[],bytes[])": "infinite",
				"signalCount()": "2447",
				"signals(uint256)": "infinite",
				"supportsInterface(bytes4)": "infinite",
				"totalSupply()": "2478",
				"transfer(address,address,uint256,bool,bytes)": "infinite",
				"transferBatch(address[],address[],uint256[],bool[],bytes[])": "infinite",
				"transferOwnership(address)": "30841"
			}
		},
		"methodIdentifiers": {
			"authorizeOperator(address,uint256,bytes)": "b49506fd",
			"authorizedAmountFor(address,address)": "65aeaa95",
			"balanceOf(address)": "70a08231",
			"batchCalls(bytes[])": "6963d438",
			"createTradingSignal(address,string,uint32,uint128,uint16,bytes)": "f8c94a88",
			"decimals()": "313ce567",
			"decreaseAllowance(address,address,uint256,bytes)": "78381670",
			"getData(bytes32)": "54f6127f",
			"getDataBatch(bytes32[])": "dedff9c6",
			"getOperatorsOf(address)": "d72fc29a",
			"increaseAllowance(address,uint256,bytes)": "2bc1da82",
			"owner()": "8da5cb5b",
			"renounceOwnership()": "715018a6",
			"revokeOperator(address,address,bool,bytes)": "30d0dc37",
			"setData(bytes32,bytes)": "7f23690c",
			"setDataBatch(bytes32[],bytes[])": "97902421",
			"signalCount()": "ae0041aa",
			"signals(uint256)": "47c740cd",
			"supportsInterface(bytes4)": "01ffc9a7",
			"totalSupply()": "18160ddd",
			"transfer(address,address,uint256,bool,bytes)": "760d9bba",
			"transferBatch(address[],address[],uint256[],bool[],bytes[])": "2d7667c9",
			"transferOwnership(address)": "f2fde38b"
		}
	},
	"abi": [
		{
			"inputs": [],
			"stateMutability": "nonpayable",
			"type": "constructor"
		},
		{
			"inputs": [],
			"name": "ERC725Y_DataKeysValuesEmptyArray",
			"type": "error"
		},
		{
			"inputs": [],
			"name": "ERC725Y_DataKeysValuesLengthMismatch",
			"type": "error"
		},
		{
			"inputs": [],
			"name": "ERC725Y_MsgValueDisallowed",
			"type": "error"
		},
		{
			"inputs": [
				{
					"internalType": "bytes",
					"name": "storedData",
					"type": "bytes"
				}
			],
			"name": "InvalidExtensionAddress",
			"type": "error"
		},
		{
			"inputs": [
				{
					"internalType": "bytes",
					"name": "data",
					"type": "bytes"
				}
			],
			"name": "InvalidFunctionSelector",
			"type": "error"
		},
		{
			"inputs": [],
			"name": "LSP4TokenNameNotEditable",
			"type": "error"
		},
		{
			"inputs": [],
			"name": "LSP4TokenSymbolNotEditable",
			"type": "error"
		},
		{
			"inputs": [],
			"name": "LSP4TokenTypeNotEditable",
			"type": "error"
		},
		{
			"inputs": [
				{
					"internalType": "address",
					"name": "tokenOwner",
					"type": "address"
				},
				{
					"internalType": "uint256",
					"name": "authorizedAmount",
					"type": "uint256"
				},
				{
					"internalType": "address",
					"name": "operator",
					"type": "address"
				},
				{
					"internalType": "uint256",
					"name": "amount",
					"type": "uint256"
				}
			],
			"name": "LSP7AmountExceedsAuthorizedAmount",
			"type": "error"
		},
		{
			"inputs": [
				{
					"internalType": "uint256",
					"name": "balance",
					"type": "uint256"
				},
				{
					"internalType": "address",
					"name": "tokenOwner",
					"type": "address"
				},
				{
					"internalType": "uint256",
					"name": "amount",
					"type": "uint256"
				}
			],
			"name": "LSP7AmountExceedsBalance",
			"type": "error"
		},
		{
			"inputs": [
				{
					"internalType": "uint256",
					"name": "callIndex",
					"type": "uint256"
				}
			],
			"name": "LSP7BatchCallFailed",
			"type": "error"
		},
		{
			"inputs": [],
			"name": "LSP7CannotSendWithAddressZero",
			"type": "error"
		},
		{
			"inputs": [],
			"name": "LSP7CannotUseAddressZeroAsOperator",
			"type": "error"
		},
		{
			"inputs": [
				{
					"internalType": "address",
					"name": "caller",
					"type": "address"
				},
				{
					"internalType": "address",
					"name": "tokenOwner",
					"type": "address"
				},
				{
					"internalType": "address",
					"name": "operator",
					"type": "address"
				}
			],
			"name": "LSP7DecreaseAllowanceNotAuthorized",
			"type": "error"
		},
		{
			"inputs": [],
			"name": "LSP7DecreasedAllowanceBelowZero",
			"type": "error"
		},
		{
			"inputs": [],
			"name": "LSP7InvalidTransferBatch",
			"type": "error"
		},
		{
			"inputs": [
				{
					"internalType": "address",
					"name": "tokenReceiver",
					"type": "address"
				}
			],
			"name": "LSP7NotifyTokenReceiverContractMissingLSP1Interface",
			"type": "error"
		},
		{
			"inputs": [
				{
					"internalType": "address",
					"name": "tokenReceiver",
					"type": "address"
				}
			],
			"name": "LSP7NotifyTokenReceiverIsEOA",
			"type": "error"
		},
		{
			"inputs": [
				{
					"internalType": "address",
					"name": "caller",
					"type": "address"
				},
				{
					"internalType": "address",
					"name": "tokenOwner",
					"type": "address"
				},
				{
					"internalType": "address",
					"name": "operator",
					"type": "address"
				}
			],
			"name": "LSP7RevokeOperatorNotAuthorized",
			"type": "error"
		},
		{
			"inputs": [],
			"name": "LSP7TokenContractCannotHoldValue",
			"type": "error"
		},
		{
			"inputs": [],
			"name": "LSP7TokenOwnerCannotBeOperator",
			"type": "error"
		},
		{
			"inputs": [
				{
					"internalType": "bytes4",
					"name": "functionSelector",
					"type": "bytes4"
				}
			],
			"name": "NoExtensionFoundForFunctionSelector",
			"type": "error"
		},
		{
			"inputs": [
				{
					"internalType": "address",
					"name": "operator",
					"type": "address"
				}
			],
			"name": "OperatorAllowanceCannotBeIncreasedFromZero",
			"type": "error"
		},
		{
			"inputs": [],
			"name": "OwnableCannotSetZeroAddressAsOwner",
			"type": "error"
		},
		{
			"anonymous": false,
			"inputs": [
				{
					"indexed": true,
					"internalType": "bytes32",
					"name": "dataKey",
					"type": "bytes32"
				},
				{
					"indexed": false,
					"internalType": "bytes",
					"name": "dataValue",
					"type": "bytes"
				}
			],
			"name": "DataChanged",
			"type": "event"
		},
		{
			"anonymous": false,
			"inputs": [
				{
					"indexed": true,
					"internalType": "uint256",
					"name": "signalId",
					"type": "uint256"
				},
				{
					"indexed": true,
					"internalType": "address",
					"name": "asset",
					"type": "address"
				},
				{
					"indexed": false,
					"internalType": "string",
					"name": "action",
					"type": "string"
				},
				{
					"indexed": false,
					"internalType": "uint32",
					"name": "timeframe",
					"type": "uint32"
				},
				{
					"indexed": false,
					"internalType": "uint128",
					"name": "priceTarget",
					"type": "uint128"
				},
				{
					"indexed": false,
					"internalType": "uint16",
					"name": "confidenceLevel",
					"type": "uint16"
				},
				{
					"indexed": false,
					"internalType": "bytes",
					"name": "analysis",
					"type": "bytes"
				}
			],
			"name": "NewSignal",
			"type": "event"
		},
		{
			"anonymous": false,
			"inputs": [
				{
					"indexed": true,
					"internalType": "address",
					"name": "operator",
					"type": "address"
				},
				{
					"indexed": true,
					"internalType": "address",
					"name": "tokenOwner",
					"type": "address"
				},
				{
					"indexed": true,
					"internalType": "uint256",
					"name": "amount",
					"type": "uint256"
				},
				{
					"indexed": false,
					"internalType": "bytes",
					"name": "operatorNotificationData",
					"type": "bytes"
				}
			],
			"name": "OperatorAuthorizationChanged",
			"type": "event"
		},
		{
			"anonymous": false,
			"inputs": [
				{
					"indexed": true,
					"internalType": "address",
					"name": "operator",
					"type": "address"
				},
				{
					"indexed": true,
					"internalType": "address",
					"name": "tokenOwner",
					"type": "address"
				},
				{
					"indexed": true,
					"internalType": "bool",
					"name": "notified",
					"type": "bool"
				},
				{
					"indexed": false,
					"internalType": "bytes",
					"name": "operatorNotificationData",
					"type": "bytes"
				}
			],
			"name": "OperatorRevoked",
			"type": "event"
		},
		{
			"anonymous": false,
			"inputs": [
				{
					"indexed": true,
					"internalType": "address",
					"name": "previousOwner",
					"type": "address"
				},
				{
					"indexed": true,
					"internalType": "address",
					"name": "newOwner",
					"type": "address"
				}
			],
			"name": "OwnershipTransferred",
			"type": "event"
		},
		{
			"anonymous": false,
			"inputs": [
				{
					"indexed": true,
					"internalType": "address",
					"name": "operator",
					"type": "address"
				},
				{
					"indexed": true,
					"internalType": "address",
					"name": "from",
					"type": "address"
				},
				{
					"indexed": true,
					"internalType": "address",
					"name": "to",
					"type": "address"
				},
				{
					"indexed": false,
					"internalType": "uint256",
					"name": "amount",
					"type": "uint256"
				},
				{
					"indexed": false,
					"internalType": "bool",
					"name": "force",
					"type": "bool"
				},
				{
					"indexed": false,
					"internalType": "bytes",
					"name": "data",
					"type": "bytes"
				}
			],
			"name": "Transfer",
			"type": "event"
		},
		{
			"stateMutability": "payable",
			"type": "fallback"
		},
		{
			"inputs": [
				{
					"internalType": "address",
					"name": "operator",
					"type": "address"
				},
				{
					"internalType": "uint256",
					"name": "amount",
					"type": "uint256"
				},
				{
					"internalType": "bytes",
					"name": "operatorNotificationData",
					"type": "bytes"
				}
			],
			"name": "authorizeOperator",
			"outputs": [],
			"stateMutability": "nonpayable",
			"type": "function"
		},
		{
			"inputs": [
				{
					"internalType": "address",
					"name": "operator",
					"type": "address"
				},
				{
					"internalType": "address",
					"name": "tokenOwner",
					"type": "address"
				}
			],
			"name": "authorizedAmountFor",
			"outputs": [
				{
					"internalType": "uint256",
					"name": "",
					"type": "uint256"
				}
			],
			"stateMutability": "view",
			"type": "function"
		},
		{
			"inputs": [
				{
					"internalType": "address",
					"name": "tokenOwner",
					"type": "address"
				}
			],
			"name": "balanceOf",
			"outputs": [
				{
					"internalType": "uint256",
					"name": "",
					"type": "uint256"
				}
			],
			"stateMutability": "view",
			"type": "function"
		},
		{
			"inputs": [
				{
					"internalType": "bytes[]",
					"name": "data",
					"type": "bytes[]"
				}
			],
			"name": "batchCalls",
			"outputs": [
				{
					"internalType": "bytes[]",
					"name": "results",
					"type": "bytes[]"
				}
			],
			"stateMutability": "nonpayable",
			"type": "function"
		},
		{
			"inputs": [
				{
					"internalType": "address",
					"name": "_asset",
					"type": "address"
				},
				{
					"internalType": "string",
					"name": "_action",
					"type": "string"
				},
				{
					"internalType": "uint32",
					"name": "_timeframe",
					"type": "uint32"
				},
				{
					"internalType": "uint128",
					"name": "_priceTarget",
					"type": "uint128"
				},
				{
					"internalType": "uint16",
					"name": "_confidenceLevel",
					"type": "uint16"
				},
				{
					"internalType": "bytes",
					"name": "_analysis",
					"type": "bytes"
				}
			],
			"name": "createTradingSignal",
			"outputs": [],
			"stateMutability": "nonpayable",
			"type": "function"
		},
		{
			"inputs": [],
			"name": "decimals",
			"outputs": [
				{
					"internalType": "uint8",
					"name": "",
					"type": "uint8"
				}
			],
			"stateMutability": "view",
			"type": "function"
		},
		{
			"inputs": [
				{
					"internalType": "address",
					"name": "operator",
					"type": "address"
				},
				{
					"internalType": "address",
					"name": "tokenOwner",
					"type": "address"
				},
				{
					"internalType": "uint256",
					"name": "subtractedAmount",
					"type": "uint256"
				},
				{
					"internalType": "bytes",
					"name": "operatorNotificationData",
					"type": "bytes"
				}
			],
			"name": "decreaseAllowance",
			"outputs": [],
			"stateMutability": "nonpayable",
			"type": "function"
		},
		{
			"inputs": [
				{
					"internalType": "bytes32",
					"name": "dataKey",
					"type": "bytes32"
				}
			],
			"name": "getData",
			"outputs": [
				{
					"internalType": "bytes",
					"name": "dataValue",
					"type": "bytes"
				}
			],
			"stateMutability": "view",
			"type": "function"
		},
		{
			"inputs": [
				{
					"internalType": "bytes32[]",
					"name": "dataKeys",
					"type": "bytes32[]"
				}
			],
			"name": "getDataBatch",
			"outputs": [
				{
					"internalType": "bytes[]",
					"name": "dataValues",
					"type": "bytes[]"
				}
			],
			"stateMutability": "view",
			"type": "function"
		},
		{
			"inputs": [
				{
					"internalType": "address",
					"name": "tokenOwner",
					"type": "address"
				}
			],
			"name": "getOperatorsOf",
			"outputs": [
				{
					"internalType": "address[]",
					"name": "",
					"type": "address[]"
				}
			],
			"stateMutability": "view",
			"type": "function"
		},
		{
			"inputs": [
				{
					"internalType": "address",
					"name": "operator",
					"type": "address"
				},
				{
					"internalType": "uint256",
					"name": "addedAmount",
					"type": "uint256"
				},
				{
					"internalType": "bytes",
					"name": "operatorNotificationData",
					"type": "bytes"
				}
			],
			"name": "increaseAllowance",
			"outputs": [],
			"stateMutability": "nonpayable",
			"type": "function"
		},
		{
			"inputs": [],
			"name": "owner",
			"outputs": [
				{
					"internalType": "address",
					"name": "",
					"type": "address"
				}
			],
			"stateMutability": "view",
			"type": "function"
		},
		{
			"inputs": [],
			"name": "renounceOwnership",
			"outputs": [],
			"stateMutability": "nonpayable",
			"type": "function"
		},
		{
			"inputs": [
				{
					"internalType": "address",
					"name": "operator",
					"type": "address"
				},
				{
					"internalType": "address",
					"name": "tokenOwner",
					"type": "address"
				},
				{
					"internalType": "bool",
					"name": "notify",
					"type": "bool"
				},
				{
					"internalType": "bytes",
					"name": "operatorNotificationData",
					"type": "bytes"
				}
			],
			"name": "revokeOperator",
			"outputs": [],
			"stateMutability": "nonpayable",
			"type": "function"
		},
		{
			"inputs": [
				{
					"internalType": "bytes32",
					"name": "dataKey",
					"type": "bytes32"
				},
				{
					"internalType": "bytes",
					"name": "dataValue",
					"type": "bytes"
				}
			],
			"name": "setData",
			"outputs": [],
			"stateMutability": "payable",
			"type": "function"
		},
		{
			"inputs": [
				{
					"internalType": "bytes32[]",
					"name": "dataKeys",
					"type": "bytes32[]"
				},
				{
					"internalType": "bytes[]",
					"name": "dataValues",
					"type": "bytes[]"
				}
			],
			"name": "setDataBatch",
			"outputs": [],
			"stateMutability": "payable",
			"type": "function"
		},
		{
			"inputs": [],
			"name": "signalCount",
			"outputs": [
				{
					"internalType": "uint256",
					"name": "",
					"type": "uint256"
				}
			],
			"stateMutability": "view",
			"type": "function"
		},
		{
			"inputs": [
				{
					"internalType": "uint256",
					"name": "",
					"type": "uint256"
				}
			],
			"name": "signals",
			"outputs": [
				{
					"internalType": "address",
					"name": "asset",
					"type": "address"
				},
				{
					"internalType": "string",
					"name": "action",
					"type": "string"
				},
				{
					"internalType": "uint32",
					"name": "timeframe",
					"type": "uint32"
				},
				{
					"internalType": "uint128",
					"name": "priceTarget",
					"type": "uint128"
				},
				{
					"internalType": "uint16",
					"name": "confidenceLevel",
					"type": "uint16"
				},
				{
					"internalType": "bytes",
					"name": "analysis",
					"type": "bytes"
				},
				{
					"internalType": "uint256",
					"name": "timestamp",
					"type": "uint256"
				}
			],
			"stateMutability": "view",
			"type": "function"
		},
		{
			"inputs": [
				{
					"internalType": "bytes4",
					"name": "interfaceId",
					"type": "bytes4"
				}
			],
			"name": "supportsInterface",
			"outputs": [
				{
					"internalType": "bool",
					"name": "",
					"type": "bool"
				}
			],
			"stateMutability": "view",
			"type": "function"
		},
		{
			"inputs": [],
			"name": "totalSupply",
			"outputs": [
				{
					"internalType": "uint256",
					"name": "",
					"type": "uint256"
				}
			],
			"stateMutability": "view",
			"type": "function"
		},
		{
			"inputs": [
				{
					"internalType": "address",
					"name": "from",
					"type": "address"
				},
				{
					"internalType": "address",
					"name": "to",
					"type": "address"
				},
				{
					"internalType": "uint256",
					"name": "amount",
					"type": "uint256"
				},
				{
					"internalType": "bool",
					"name": "force",
					"type": "bool"
				},
				{
					"internalType": "bytes",
					"name": "data",
					"type": "bytes"
				}
			],
			"name": "transfer",
			"outputs": [],
			"stateMutability": "nonpayable",
			"type": "function"
		},
		{
			"inputs": [
				{
					"internalType": "address[]",
					"name": "from",
					"type": "address[]"
				},
				{
					"internalType": "address[]",
					"name": "to",
					"type": "address[]"
				},
				{
					"internalType": "uint256[]",
					"name": "amount",
					"type": "uint256[]"
				},
				{
					"internalType": "bool[]",
					"name": "force",
					"type": "bool[]"
				},
				{
					"internalType": "bytes[]",
					"name": "data",
					"type": "bytes[]"
				}
			],
			"name": "transferBatch",
			"outputs": [],
			"stateMutability": "nonpayable",
			"type": "function"
		},
		{
			"inputs": [
				{
					"internalType": "address",
					"name": "newOwner",
					"type": "address"
				}
			],
			"name": "transferOwnership",
			"outputs": [],
			"stateMutability": "nonpayable",
			"type": "function"
		},
		{
			"stateMutability": "payable",
			"type": "receive"
		}
	]
}